{
	"SecondLife.sol": {
		"SecondLife": {
			"abi": [
				{
					"inputs": [],
					"stateMutability": "nonpayable",
					"type": "constructor"
				},
				{
					"inputs": [
						{
							"internalType": "address",
							"name": "hospitalsaddr",
							"type": "address"
						},
						{
							"internalType": "string",
							"name": "_name",
							"type": "string"
						}
					],
					"name": "HospitalReg",
					"outputs": [],
					"stateMutability": "nonpayable",
					"type": "function"
				},
				{
					"inputs": [
						{
							"internalType": "uint256",
							"name": "",
							"type": "uint256"
						}
					],
					"name": "_blooddonated",
					"outputs": [
						{
							"internalType": "string",
							"name": "bloodtype",
							"type": "string"
						},
						{
							"internalType": "uint256",
							"name": "amount",
							"type": "uint256"
						},
						{
							"internalType": "address",
							"name": "tohospital",
							"type": "address"
						},
						{
							"internalType": "address",
							"name": "frompatient",
							"type": "address"
						}
					],
					"stateMutability": "view",
					"type": "function"
				},
				{
					"inputs": [
						{
							"internalType": "uint256",
							"name": "",
							"type": "uint256"
						}
					],
					"name": "_bloodsupply",
					"outputs": [
						{
							"internalType": "uint256",
							"name": "amount",
							"type": "uint256"
						},
						{
							"internalType": "string",
							"name": "bloodtype",
							"type": "string"
						},
						{
							"internalType": "address",
							"name": "topatient",
							"type": "address"
						},
						{
							"internalType": "address",
							"name": "fromhospital",
							"type": "address"
						}
					],
					"stateMutability": "view",
					"type": "function"
				},
				{
					"inputs": [
						{
							"internalType": "uint256",
							"name": "",
							"type": "uint256"
						}
					],
					"name": "_organdonated",
					"outputs": [
						{
							"internalType": "uint256",
							"name": "amount",
							"type": "uint256"
						},
						{
							"internalType": "string",
							"name": "organname",
							"type": "string"
						},
						{
							"internalType": "address",
							"name": "frompatient",
							"type": "address"
						},
						{
							"internalType": "address",
							"name": "tohospital",
							"type": "address"
						}
					],
					"stateMutability": "view",
					"type": "function"
				},
				{
					"inputs": [
						{
							"internalType": "uint256",
							"name": "",
							"type": "uint256"
						}
					],
					"name": "_organsupply",
					"outputs": [
						{
							"internalType": "uint256",
							"name": "amount",
							"type": "uint256"
						},
						{
							"internalType": "string",
							"name": "organname",
							"type": "string"
						},
						{
							"internalType": "address",
							"name": "topatient",
							"type": "address"
						},
						{
							"internalType": "address",
							"name": "fromhospital",
							"type": "address"
						}
					],
					"stateMutability": "view",
					"type": "function"
				},
				{
					"inputs": [
						{
							"internalType": "address",
							"name": "hospitalAddr",
							"type": "address"
						}
					],
					"name": "bookAppointment",
					"outputs": [],
					"stateMutability": "nonpayable",
					"type": "function"
				},
				{
					"inputs": [
						{
							"internalType": "uint256",
							"name": "",
							"type": "uint256"
						}
					],
					"name": "donars",
					"outputs": [
						{
							"internalType": "uint256",
							"name": "id",
							"type": "uint256"
						},
						{
							"internalType": "address",
							"name": "addr",
							"type": "address"
						},
						{
							"internalType": "string",
							"name": "name",
							"type": "string"
						}
					],
					"stateMutability": "view",
					"type": "function"
				},
				{
					"inputs": [
						{
							"internalType": "uint256",
							"name": "patientid",
							"type": "uint256"
						},
						{
							"internalType": "uint256",
							"name": "hospitalid",
							"type": "uint256"
						},
						{
							"internalType": "bool",
							"name": "blood",
							"type": "bool"
						},
						{
							"internalType": "bool",
							"name": "organ",
							"type": "bool"
						},
						{
							"internalType": "uint256",
							"name": "bloodamt",
							"type": "uint256"
						},
						{
							"internalType": "string",
							"name": "bloodtype",
							"type": "string"
						},
						{
							"internalType": "string",
							"name": "organname",
							"type": "string"
						}
					],
					"name": "donate",
					"outputs": [],
					"stateMutability": "nonpayable",
					"type": "function"
				},
				{
					"inputs": [
						{
							"internalType": "uint256",
							"name": "hospitalid",
							"type": "uint256"
						}
					],
					"name": "getHospitalDetails",
					"outputs": [
						{
							"internalType": "uint256",
							"name": "",
							"type": "uint256"
						},
						{
							"internalType": "address",
							"name": "",
							"type": "address"
						},
						{
							"internalType": "string",
							"name": "",
							"type": "string"
						},
						{
							"internalType": "address[]",
							"name": "",
							"type": "address[]"
						}
					],
					"stateMutability": "view",
					"type": "function"
				},
				{
					"inputs": [
						{
							"internalType": "string",
							"name": "_name",
							"type": "string"
						}
					],
					"name": "patientReg",
					"outputs": [],
					"stateMutability": "nonpayable",
					"type": "function"
				},
				{
					"inputs": [
						{
							"internalType": "uint256",
							"name": "",
							"type": "uint256"
						}
					],
					"name": "patients",
					"outputs": [
						{
							"internalType": "uint256",
							"name": "id",
							"type": "uint256"
						},
						{
							"internalType": "address",
							"name": "addr",
							"type": "address"
						},
						{
							"internalType": "string",
							"name": "name",
							"type": "string"
						}
					],
					"stateMutability": "view",
					"type": "function"
				}
			],
			"devdoc": {
				"kind": "dev",
				"methods": {},
				"version": 1
			},
			"evm": {
				"assembly": "    /* \"SecondLife.sol\":57:4479  contract SecondLife{... */\n  mstore(0x40, 0x80)\n    /* \"SecondLife.sol\":1359:1360  0 */\n  0x00\n    /* \"SecondLife.sol\":1348:1360  uint Id1 = 0 */\n  0x06\n  sstore\n    /* \"SecondLife.sol\":1378:1379  0 */\n  0x00\n    /* \"SecondLife.sol\":1367:1379  uint Id2 = 0 */\n  0x07\n  sstore\n    /* \"SecondLife.sol\":101:150  constructor() {... */\n  callvalue\n  dup1\n  iszero\n  tag_1\n  jumpi\n  0x00\n  dup1\n  revert\ntag_1:\n  pop\n    /* \"SecondLife.sol\":133:143  msg.sender */\n  caller\n    /* \"SecondLife.sol\":125:130  owner */\n  0x00\n  dup1\n    /* \"SecondLife.sol\":125:143  owner = msg.sender */\n  0x0100\n  exp\n  dup2\n  sload\n  dup2\n  0xffffffffffffffffffffffffffffffffffffffff\n  mul\n  not\n  and\n  swap1\n  dup4\n  0xffffffffffffffffffffffffffffffffffffffff\n  and\n  mul\n  or\n  swap1\n  sstore\n  pop\n    /* \"SecondLife.sol\":57:4479  contract SecondLife{... */\n  dataSize(sub_0)\n  dup1\n  dataOffset(sub_0)\n  0x00\n  codecopy\n  0x00\n  return\nstop\n\nsub_0: assembly {\n        /* \"SecondLife.sol\":57:4479  contract SecondLife{... */\n      mstore(0x40, 0x80)\n      callvalue\n      dup1\n      iszero\n      tag_1\n      jumpi\n      0x00\n      dup1\n      revert\n    tag_1:\n      pop\n      jumpi(tag_2, lt(calldatasize, 0x04))\n      shr(0xe0, calldataload(0x00))\n      dup1\n      0x93119a83\n      gt\n      tag_14\n      jumpi\n      dup1\n      0x93119a83\n      eq\n      tag_8\n      jumpi\n      dup1\n      0xb6d175eb\n      eq\n      tag_9\n      jumpi\n      dup1\n      0xc0f801de\n      eq\n      tag_10\n      jumpi\n      dup1\n      0xd85680da\n      eq\n      tag_11\n      jumpi\n      dup1\n      0xde24930b\n      eq\n      tag_12\n      jumpi\n      dup1\n      0xea4bf49a\n      eq\n      tag_13\n      jumpi\n      jump(tag_2)\n    tag_14:\n      dup1\n      0x365af9d3\n      eq\n      tag_3\n      jumpi\n      dup1\n      0x4b0a7573\n      eq\n      tag_4\n      jumpi\n      dup1\n      0x68f4e963\n      eq\n      tag_5\n      jumpi\n      dup1\n      0x84728ef6\n      eq\n      tag_6\n      jumpi\n      dup1\n      0x86e758f2\n      eq\n      tag_7\n      jumpi\n    tag_2:\n      0x00\n      dup1\n      revert\n        /* \"SecondLife.sol\":1431:1797  function patientReg(string memory _name) public {... */\n    tag_3:\n      tag_15\n      0x04\n      dup1\n      calldatasize\n      sub\n      dup2\n      add\n      swap1\n      tag_16\n      swap2\n      swap1\n      tag_17\n      jump\t// in\n    tag_16:\n      tag_18\n      jump\t// in\n    tag_15:\n      stop\n        /* \"SecondLife.sol\":2761:3014  function getHospitalDetails(uint hospitalid) public view returns(uint,address,string memory,address[] memory){... */\n    tag_4:\n      tag_19\n      0x04\n      dup1\n      calldatasize\n      sub\n      dup2\n      add\n      swap1\n      tag_20\n      swap2\n      swap1\n      tag_21\n      jump\t// in\n    tag_20:\n      tag_22\n      jump\t// in\n    tag_19:\n      mload(0x40)\n      tag_23\n      swap5\n      swap4\n      swap3\n      swap2\n      swap1\n      tag_24\n      jump\t// in\n    tag_23:\n      mload(0x40)\n      dup1\n      swap2\n      sub\n      swap1\n      return\n        /* \"SecondLife.sol\":2477:2755  function bookAppointment(address hospitalAddr) public {... */\n    tag_5:\n      tag_25\n      0x04\n      dup1\n      calldatasize\n      sub\n      dup2\n      add\n      swap1\n      tag_26\n      swap2\n      swap1\n      tag_27\n      jump\t// in\n    tag_26:\n      tag_28\n      jump\t// in\n    tag_25:\n      stop\n        /* \"SecondLife.sol\":1885:1921  organdonation[] public _organdonated */\n    tag_6:\n      tag_29\n      0x04\n      dup1\n      calldatasize\n      sub\n      dup2\n      add\n      swap1\n      tag_30\n      swap2\n      swap1\n      tag_21\n      jump\t// in\n    tag_30:\n      tag_31\n      jump\t// in\n    tag_29:\n      mload(0x40)\n      tag_32\n      swap5\n      swap4\n      swap3\n      swap2\n      swap1\n      tag_33\n      jump\t// in\n    tag_32:\n      mload(0x40)\n      dup1\n      swap2\n      sub\n      swap1\n      return\n        /* \"SecondLife.sol\":3174:4381  function donate(uint patientid, uint hospitalid , bool blood, bool organ, uint bloodamt,string memory bloodtype, string memory organname) public {... */\n    tag_7:\n      tag_34\n      0x04\n      dup1\n      calldatasize\n      sub\n      dup2\n      add\n      swap1\n      tag_35\n      swap2\n      swap1\n      tag_36\n      jump\t// in\n    tag_35:\n      tag_37\n      jump\t// in\n    tag_34:\n      stop\n        /* \"SecondLife.sol\":1136:1161  patient[] public patients */\n    tag_8:\n      tag_38\n      0x04\n      dup1\n      calldatasize\n      sub\n      dup2\n      add\n      swap1\n      tag_39\n      swap2\n      swap1\n      tag_21\n      jump\t// in\n    tag_39:\n      tag_40\n      jump\t// in\n    tag_38:\n      mload(0x40)\n      tag_41\n      swap4\n      swap3\n      swap2\n      swap1\n      tag_42\n      jump\t// in\n    tag_41:\n      mload(0x40)\n      dup1\n      swap2\n      sub\n      swap1\n      return\n        /* \"SecondLife.sol\":1844:1879  bloodsupplied[] public _bloodsupply */\n    tag_9:\n      tag_43\n      0x04\n      dup1\n      calldatasize\n      sub\n      dup2\n      add\n      swap1\n      tag_44\n      swap2\n      swap1\n      tag_21\n      jump\t// in\n    tag_44:\n      tag_45\n      jump\t// in\n    tag_43:\n      mload(0x40)\n      tag_46\n      swap5\n      swap4\n      swap3\n      swap2\n      swap1\n      tag_33\n      jump\t// in\n    tag_46:\n      mload(0x40)\n      dup1\n      swap2\n      sub\n      swap1\n      return\n        /* \"SecondLife.sol\":1167:1190  patient[] public donars */\n    tag_10:\n      tag_47\n      0x04\n      dup1\n      calldatasize\n      sub\n      dup2\n      add\n      swap1\n      tag_48\n      swap2\n      swap1\n      tag_21\n      jump\t// in\n    tag_48:\n      tag_49\n      jump\t// in\n    tag_47:\n      mload(0x40)\n      tag_50\n      swap4\n      swap3\n      swap2\n      swap1\n      tag_42\n      jump\t// in\n    tag_50:\n      mload(0x40)\n      dup1\n      swap2\n      sub\n      swap1\n      return\n        /* \"SecondLife.sol\":1803:1838  organsupplied[] public _organsupply */\n    tag_11:\n      tag_51\n      0x04\n      dup1\n      calldatasize\n      sub\n      dup2\n      add\n      swap1\n      tag_52\n      swap2\n      swap1\n      tag_21\n      jump\t// in\n    tag_52:\n      tag_53\n      jump\t// in\n    tag_51:\n      mload(0x40)\n      tag_54\n      swap5\n      swap4\n      swap3\n      swap2\n      swap1\n      tag_33\n      jump\t// in\n    tag_54:\n      mload(0x40)\n      dup1\n      swap2\n      sub\n      swap1\n      return\n        /* \"SecondLife.sol\":1927:1963  blooddonation[] public _blooddonated */\n    tag_12:\n      tag_55\n      0x04\n      dup1\n      calldatasize\n      sub\n      dup2\n      add\n      swap1\n      tag_56\n      swap2\n      swap1\n      tag_21\n      jump\t// in\n    tag_56:\n      tag_57\n      jump\t// in\n    tag_55:\n      mload(0x40)\n      tag_58\n      swap5\n      swap4\n      swap3\n      swap2\n      swap1\n      tag_59\n      jump\t// in\n    tag_58:\n      mload(0x40)\n      dup1\n      swap2\n      sub\n      swap1\n      return\n        /* \"SecondLife.sol\":2003:2471  function HospitalReg(address hospitalsaddr,string memory _name) public {... */\n    tag_13:\n      tag_60\n      0x04\n      dup1\n      calldatasize\n      sub\n      dup2\n      add\n      swap1\n      tag_61\n      swap2\n      swap1\n      tag_62\n      jump\t// in\n    tag_61:\n      tag_63\n      jump\t// in\n    tag_60:\n      stop\n        /* \"SecondLife.sol\":1431:1797  function patientReg(string memory _name) public {... */\n    tag_18:\n        /* \"SecondLife.sol\":1675:1683  patients */\n      0x01\n        /* \"SecondLife.sol\":1689:1734  patient(Id1,msg.sender,_name,_donations,_ask) */\n      mload(0x40)\n      dup1\n      0xa0\n      add\n      0x40\n      mstore\n      dup1\n        /* \"SecondLife.sol\":1697:1700  Id1 */\n      sload(0x06)\n        /* \"SecondLife.sol\":1689:1734  patient(Id1,msg.sender,_name,_donations,_ask) */\n      dup2\n      mstore\n      0x20\n      add\n        /* \"SecondLife.sol\":1701:1711  msg.sender */\n      caller\n        /* \"SecondLife.sol\":1689:1734  patient(Id1,msg.sender,_name,_donations,_ask) */\n      0xffffffffffffffffffffffffffffffffffffffff\n      and\n      dup2\n      mstore\n      0x20\n      add\n        /* \"SecondLife.sol\":1712:1717  _name */\n      dup4\n        /* \"SecondLife.sol\":1689:1734  patient(Id1,msg.sender,_name,_donations,_ask) */\n      dup2\n      mstore\n      0x20\n      add\n        /* \"SecondLife.sol\":1718:1728  _donations */\n      0x08\n        /* \"SecondLife.sol\":1689:1734  patient(Id1,msg.sender,_name,_donations,_ask) */\n      dup1\n      sload\n      dup1\n      0x20\n      mul\n      0x20\n      add\n      mload(0x40)\n      swap1\n      dup2\n      add\n      0x40\n      mstore\n      dup1\n      swap3\n      swap2\n      swap1\n      dup2\n      dup2\n      mstore\n      0x20\n      add\n      0x00\n      swap1\n    tag_65:\n      dup3\n      dup3\n      lt\n      iszero\n      tag_66\n      jumpi\n      dup4\n      dup3\n      swap1\n      0x00\n      mstore\n      keccak256(0x00, 0x20)\n      add\n      dup1\n      sload\n      tag_68\n      swap1\n      tag_69\n      jump\t// in\n    tag_68:\n      dup1\n      0x1f\n      add\n      0x20\n      dup1\n      swap2\n      div\n      mul\n      0x20\n      add\n      mload(0x40)\n      swap1\n      dup2\n      add\n      0x40\n      mstore\n      dup1\n      swap3\n      swap2\n      swap1\n      dup2\n      dup2\n      mstore\n      0x20\n      add\n      dup3\n      dup1\n      sload\n      tag_70\n      swap1\n      tag_69\n      jump\t// in\n    tag_70:\n      dup1\n      iszero\n      tag_71\n      jumpi\n      dup1\n      0x1f\n      lt\n      tag_72\n      jumpi\n      0x0100\n      dup1\n      dup4\n      sload\n      div\n      mul\n      dup4\n      mstore\n      swap2\n      0x20\n      add\n      swap2\n      jump(tag_71)\n    tag_72:\n      dup3\n      add\n      swap2\n      swap1\n      0x00\n      mstore\n      keccak256(0x00, 0x20)\n      swap1\n    tag_73:\n      dup2\n      sload\n      dup2\n      mstore\n      swap1\n      0x01\n      add\n      swap1\n      0x20\n      add\n      dup1\n      dup4\n      gt\n      tag_73\n      jumpi\n      dup3\n      swap1\n      sub\n      0x1f\n      and\n      dup3\n      add\n      swap2\n    tag_71:\n      pop\n      pop\n      pop\n      pop\n      pop\n      dup2\n      mstore\n      0x20\n      add\n      swap1\n      0x01\n      add\n      swap1\n      jump(tag_65)\n    tag_66:\n      pop\n      pop\n      pop\n      pop\n      dup2\n      mstore\n      0x20\n      add\n        /* \"SecondLife.sol\":1729:1733  _ask */\n      0x09\n        /* \"SecondLife.sol\":1689:1734  patient(Id1,msg.sender,_name,_donations,_ask) */\n      dup1\n      sload\n      dup1\n      0x20\n      mul\n      0x20\n      add\n      mload(0x40)\n      swap1\n      dup2\n      add\n      0x40\n      mstore\n      dup1\n      swap3\n      swap2\n      swap1\n      dup2\n      dup2\n      mstore\n      0x20\n      add\n      0x00\n      swap1\n    tag_74:\n      dup3\n      dup3\n      lt\n      iszero\n      tag_75\n      jumpi\n      dup4\n      dup3\n      swap1\n      0x00\n      mstore\n      keccak256(0x00, 0x20)\n      add\n      dup1\n      sload\n      tag_77\n      swap1\n      tag_69\n      jump\t// in\n    tag_77:\n      dup1\n      0x1f\n      add\n      0x20\n      dup1\n      swap2\n      div\n      mul\n      0x20\n      add\n      mload(0x40)\n      swap1\n      dup2\n      add\n      0x40\n      mstore\n      dup1\n      swap3\n      swap2\n      swap1\n      dup2\n      dup2\n      mstore\n      0x20\n      add\n      dup3\n      dup1\n      sload\n      tag_78\n      swap1\n      tag_69\n      jump\t// in\n    tag_78:\n      dup1\n      iszero\n      tag_79\n      jumpi\n      dup1\n      0x1f\n      lt\n      tag_80\n      jumpi\n      0x0100\n      dup1\n      dup4\n      sload\n      div\n      mul\n      dup4\n      mstore\n      swap2\n      0x20\n      add\n      swap2\n      jump(tag_79)\n    tag_80:\n      dup3\n      add\n      swap2\n      swap1\n      0x00\n      mstore\n      keccak256(0x00, 0x20)\n      swap1\n    tag_81:\n      dup2\n      sload\n      dup2\n      mstore\n      swap1\n      0x01\n      add\n      swap1\n      0x20\n      add\n      dup1\n      dup4\n      gt\n      tag_81\n      jumpi\n      dup3\n      swap1\n      sub\n      0x1f\n      and\n      dup3\n      add\n      swap2\n    tag_79:\n      pop\n      pop\n      pop\n      pop\n      pop\n      dup2\n      mstore\n      0x20\n      add\n      swap1\n      0x01\n      add\n      swap1\n      jump(tag_74)\n    tag_75:\n      pop\n      pop\n      pop\n      pop\n      dup2\n      mstore\n      pop\n        /* \"SecondLife.sol\":1675:1735  patients.push(patient(Id1,msg.sender,_name,_donations,_ask)) */\n      swap1\n      dup1\n      0x01\n      dup2\n      sload\n      add\n      dup1\n      dup3\n      sstore\n      dup1\n      swap2\n      pop\n      pop\n      0x01\n      swap1\n      sub\n      swap1\n      0x00\n      mstore\n      keccak256(0x00, 0x20)\n      swap1\n      0x05\n      mul\n      add\n      0x00\n      swap1\n      swap2\n      swap1\n      swap2\n      swap1\n      swap2\n      pop\n      0x00\n      dup3\n      add\n      mload\n      dup2\n      0x00\n      add\n      sstore\n      0x20\n      dup3\n      add\n      mload\n      dup2\n      0x01\n      add\n      exp(0x0100, 0x00)\n      dup2\n      sload\n      dup2\n      0xffffffffffffffffffffffffffffffffffffffff\n      mul\n      not\n      and\n      swap1\n      dup4\n      0xffffffffffffffffffffffffffffffffffffffff\n      and\n      mul\n      or\n      swap1\n      sstore\n      pop\n      0x40\n      dup3\n      add\n      mload\n      dup2\n      0x02\n      add\n      swap1\n      dup2\n      tag_83\n      swap2\n      swap1\n      tag_84\n      jump\t// in\n    tag_83:\n      pop\n      0x60\n      dup3\n      add\n      mload\n      dup2\n      0x03\n      add\n      swap1\n      dup1\n      mload\n      swap1\n      0x20\n      add\n      swap1\n      tag_85\n      swap3\n      swap2\n      swap1\n      tag_86\n      jump\t// in\n    tag_85:\n      pop\n      0x80\n      dup3\n      add\n      mload\n      dup2\n      0x04\n      add\n      swap1\n      dup1\n      mload\n      swap1\n      0x20\n      add\n      swap1\n      tag_87\n      swap3\n      swap2\n      swap1\n      tag_86\n      jump\t// in\n    tag_87:\n      pop\n      pop\n      pop\n        /* \"SecondLife.sol\":1762:1770  patients */\n      0x01\n        /* \"SecondLife.sol\":1771:1774  Id1 */\n      sload(0x06)\n        /* \"SecondLife.sol\":1762:1775  patients[Id1] */\n      dup2\n      sload\n      dup2\n      lt\n      tag_88\n      jumpi\n      tag_89\n      tag_90\n      jump\t// in\n    tag_89:\n    tag_88:\n      swap1\n      0x00\n      mstore\n      keccak256(0x00, 0x20)\n      swap1\n      0x05\n      mul\n      add\n        /* \"SecondLife.sol\":1745:1754  ispatient */\n      0x04\n        /* \"SecondLife.sol\":1745:1759  ispatient[Id1] */\n      0x00\n        /* \"SecondLife.sol\":1755:1758  Id1 */\n      sload(0x06)\n        /* \"SecondLife.sol\":1745:1759  ispatient[Id1] */\n      dup2\n      mstore\n      0x20\n      add\n      swap1\n      dup2\n      mstore\n      0x20\n      add\n      0x00\n      keccak256\n        /* \"SecondLife.sol\":1745:1775  ispatient[Id1] = patients[Id1] */\n      0x00\n      dup3\n      add\n      sload\n      dup2\n      0x00\n      add\n      sstore\n      0x01\n      dup3\n      add\n      0x00\n      swap1\n      sload\n      swap1\n      0x0100\n      exp\n      swap1\n      div\n      0xffffffffffffffffffffffffffffffffffffffff\n      and\n      dup2\n      0x01\n      add\n      exp(0x0100, 0x00)\n      dup2\n      sload\n      dup2\n      0xffffffffffffffffffffffffffffffffffffffff\n      mul\n      not\n      and\n      swap1\n      dup4\n      0xffffffffffffffffffffffffffffffffffffffff\n      and\n      mul\n      or\n      swap1\n      sstore\n      pop\n      0x02\n      dup3\n      add\n      dup2\n      0x02\n      add\n      swap1\n      dup2\n      tag_92\n      swap2\n      swap1\n      tag_93\n      jump\t// in\n    tag_92:\n      pop\n      0x03\n      dup3\n      add\n      dup2\n      0x03\n      add\n      swap1\n      dup1\n      sload\n      tag_94\n      swap3\n      swap2\n      swap1\n      tag_95\n      jump\t// in\n    tag_94:\n      pop\n      0x04\n      dup3\n      add\n      dup2\n      0x04\n      add\n      swap1\n      dup1\n      sload\n      tag_96\n      swap3\n      swap2\n      swap1\n      tag_95\n      jump\t// in\n    tag_96:\n      pop\n      swap1\n      pop\n      pop\n        /* \"SecondLife.sol\":1785:1788  Id1 */\n      0x06\n      0x00\n        /* \"SecondLife.sol\":1785:1790  Id1++ */\n      dup2\n      sload\n      dup1\n      swap3\n      swap2\n      swap1\n      tag_97\n      swap1\n      tag_98\n      jump\t// in\n    tag_97:\n      swap2\n      swap1\n      pop\n      sstore\n      pop\n        /* \"SecondLife.sol\":1431:1797  function patientReg(string memory _name) public {... */\n      pop\n      jump\t// out\n        /* \"SecondLife.sol\":2761:3014  function getHospitalDetails(uint hospitalid) public view returns(uint,address,string memory,address[] memory){... */\n    tag_22:\n        /* \"SecondLife.sol\":2826:2830  uint */\n      0x00\n        /* \"SecondLife.sol\":2831:2838  address */\n      dup1\n        /* \"SecondLife.sol\":2839:2852  string memory */\n      0x60\n        /* \"SecondLife.sol\":2853:2869  address[] memory */\n      dup1\n        /* \"SecondLife.sol\":2888:2897  hospitals */\n      0x03\n        /* \"SecondLife.sol\":2898:2908  hospitalid */\n      dup6\n        /* \"SecondLife.sol\":2888:2909  hospitals[hospitalid] */\n      dup2\n      sload\n      dup2\n      lt\n      tag_100\n      jumpi\n      tag_101\n      tag_90\n      jump\t// in\n    tag_101:\n    tag_100:\n      swap1\n      0x00\n      mstore\n      keccak256(0x00, 0x20)\n      swap1\n      0x04\n      mul\n      add\n        /* \"SecondLife.sol\":2888:2912  hospitals[hospitalid].id */\n      0x00\n      add\n      sload\n        /* \"SecondLife.sol\":2913:2922  hospitals */\n      0x03\n        /* \"SecondLife.sol\":2923:2933  hospitalid */\n      dup7\n        /* \"SecondLife.sol\":2913:2934  hospitals[hospitalid] */\n      dup2\n      sload\n      dup2\n      lt\n      tag_103\n      jumpi\n      tag_104\n      tag_90\n      jump\t// in\n    tag_104:\n    tag_103:\n      swap1\n      0x00\n      mstore\n      keccak256(0x00, 0x20)\n      swap1\n      0x04\n      mul\n      add\n        /* \"SecondLife.sol\":2913:2940  hospitals[hospitalid].addrh */\n      0x01\n      add\n      0x00\n      swap1\n      sload\n      swap1\n      0x0100\n      exp\n      swap1\n      div\n      0xffffffffffffffffffffffffffffffffffffffff\n      and\n        /* \"SecondLife.sol\":2941:2950  hospitals */\n      0x03\n        /* \"SecondLife.sol\":2951:2961  hospitalid */\n      dup8\n        /* \"SecondLife.sol\":2941:2962  hospitals[hospitalid] */\n      dup2\n      sload\n      dup2\n      lt\n      tag_106\n      jumpi\n      tag_107\n      tag_90\n      jump\t// in\n    tag_107:\n    tag_106:\n      swap1\n      0x00\n      mstore\n      keccak256(0x00, 0x20)\n      swap1\n      0x04\n      mul\n      add\n        /* \"SecondLife.sol\":2941:2967  hospitals[hospitalid].name */\n      0x02\n      add\n        /* \"SecondLife.sol\":2968:2977  hospitals */\n      0x03\n        /* \"SecondLife.sol\":2978:2988  hospitalid */\n      dup9\n        /* \"SecondLife.sol\":2968:2989  hospitals[hospitalid] */\n      dup2\n      sload\n      dup2\n      lt\n      tag_109\n      jumpi\n      tag_110\n      tag_90\n      jump\t// in\n    tag_110:\n    tag_109:\n      swap1\n      0x00\n      mstore\n      keccak256(0x00, 0x20)\n      swap1\n      0x04\n      mul\n      add\n        /* \"SecondLife.sol\":2968:3006  hospitals[hospitalid].appointmentQueue */\n      0x03\n      add\n        /* \"SecondLife.sol\":2880:3007  return (hospitals[hospitalid].id,hospitals[hospitalid].addrh,hospitals[hospitalid].name,hospitals[hospitalid].appointmentQueue) */\n      dup2\n      dup1\n      sload\n      tag_112\n      swap1\n      tag_69\n      jump\t// in\n    tag_112:\n      dup1\n      0x1f\n      add\n      0x20\n      dup1\n      swap2\n      div\n      mul\n      0x20\n      add\n      mload(0x40)\n      swap1\n      dup2\n      add\n      0x40\n      mstore\n      dup1\n      swap3\n      swap2\n      swap1\n      dup2\n      dup2\n      mstore\n      0x20\n      add\n      dup3\n      dup1\n      sload\n      tag_113\n      swap1\n      tag_69\n      jump\t// in\n    tag_113:\n      dup1\n      iszero\n      tag_114\n      jumpi\n      dup1\n      0x1f\n      lt\n      tag_115\n      jumpi\n      0x0100\n      dup1\n      dup4\n      sload\n      div\n      mul\n      dup4\n      mstore\n      swap2\n      0x20\n      add\n      swap2\n      jump(tag_114)\n    tag_115:\n      dup3\n      add\n      swap2\n      swap1\n      0x00\n      mstore\n      keccak256(0x00, 0x20)\n      swap1\n    tag_116:\n      dup2\n      sload\n      dup2\n      mstore\n      swap1\n      0x01\n      add\n      swap1\n      0x20\n      add\n      dup1\n      dup4\n      gt\n      tag_116\n      jumpi\n      dup3\n      swap1\n      sub\n      0x1f\n      and\n      dup3\n      add\n      swap2\n    tag_114:\n      pop\n      pop\n      pop\n      pop\n      pop\n      swap2\n      pop\n      dup1\n      dup1\n      sload\n      dup1\n      0x20\n      mul\n      0x20\n      add\n      mload(0x40)\n      swap1\n      dup2\n      add\n      0x40\n      mstore\n      dup1\n      swap3\n      swap2\n      swap1\n      dup2\n      dup2\n      mstore\n      0x20\n      add\n      dup3\n      dup1\n      sload\n      dup1\n      iszero\n      tag_117\n      jumpi\n      0x20\n      mul\n      dup3\n      add\n      swap2\n      swap1\n      0x00\n      mstore\n      keccak256(0x00, 0x20)\n      swap1\n    tag_118:\n      dup2\n      0x00\n      swap1\n      sload\n      swap1\n      0x0100\n      exp\n      swap1\n      div\n      0xffffffffffffffffffffffffffffffffffffffff\n      and\n      0xffffffffffffffffffffffffffffffffffffffff\n      and\n      dup2\n      mstore\n      0x20\n      add\n      swap1\n      0x01\n      add\n      swap1\n      dup1\n      dup4\n      gt\n      tag_118\n      jumpi\n    tag_117:\n      pop\n      pop\n      pop\n      pop\n      pop\n      swap1\n      pop\n      swap4\n      pop\n      swap4\n      pop\n      swap4\n      pop\n      swap4\n      pop\n        /* \"SecondLife.sol\":2761:3014  function getHospitalDetails(uint hospitalid) public view returns(uint,address,string memory,address[] memory){... */\n      swap2\n      swap4\n      pop\n      swap2\n      swap4\n      jump\t// out\n        /* \"SecondLife.sol\":2477:2755  function bookAppointment(address hospitalAddr) public {... */\n    tag_28:\n        /* \"SecondLife.sol\":2545:2551  uint i */\n      0x00\n        /* \"SecondLife.sol\":2541:2749  for(uint i = 0 ; i < hospitals.length ; i++){... */\n    tag_120:\n        /* \"SecondLife.sol\":2562:2571  hospitals */\n      0x03\n        /* \"SecondLife.sol\":2562:2578  hospitals.length */\n      dup1\n      sload\n      swap1\n      pop\n        /* \"SecondLife.sol\":2558:2559  i */\n      dup2\n        /* \"SecondLife.sol\":2558:2578  i < hospitals.length */\n      lt\n        /* \"SecondLife.sol\":2541:2749  for(uint i = 0 ; i < hospitals.length ; i++){... */\n      iszero\n      tag_121\n      jumpi\n        /* \"SecondLife.sol\":2624:2636  hospitalAddr */\n      dup2\n        /* \"SecondLife.sol\":2602:2636  hospitals[i].addrh == hospitalAddr */\n      0xffffffffffffffffffffffffffffffffffffffff\n      and\n        /* \"SecondLife.sol\":2602:2611  hospitals */\n      0x03\n        /* \"SecondLife.sol\":2612:2613  i */\n      dup3\n        /* \"SecondLife.sol\":2602:2614  hospitals[i] */\n      dup2\n      sload\n      dup2\n      lt\n      tag_123\n      jumpi\n      tag_124\n      tag_90\n      jump\t// in\n    tag_124:\n    tag_123:\n      swap1\n      0x00\n      mstore\n      keccak256(0x00, 0x20)\n      swap1\n      0x04\n      mul\n      add\n        /* \"SecondLife.sol\":2602:2620  hospitals[i].addrh */\n      0x01\n      add\n      0x00\n      swap1\n      sload\n      swap1\n      0x0100\n      exp\n      swap1\n      div\n      0xffffffffffffffffffffffffffffffffffffffff\n      and\n        /* \"SecondLife.sol\":2602:2636  hospitals[i].addrh == hospitalAddr */\n      0xffffffffffffffffffffffffffffffffffffffff\n      and\n      sub\n        /* \"SecondLife.sol\":2599:2739  if(hospitals[i].addrh == hospitalAddr){... */\n      tag_126\n      jumpi\n        /* \"SecondLife.sol\":2655:2664  hospitals */\n      0x03\n        /* \"SecondLife.sol\":2665:2666  i */\n      dup2\n        /* \"SecondLife.sol\":2655:2667  hospitals[i] */\n      dup2\n      sload\n      dup2\n      lt\n      tag_127\n      jumpi\n      tag_128\n      tag_90\n      jump\t// in\n    tag_128:\n    tag_127:\n      swap1\n      0x00\n      mstore\n      keccak256(0x00, 0x20)\n      swap1\n      0x04\n      mul\n      add\n        /* \"SecondLife.sol\":2655:2684  hospitals[i].appointmentQueue */\n      0x03\n      add\n        /* \"SecondLife.sol\":2690:2700  msg.sender */\n      caller\n        /* \"SecondLife.sol\":2655:2701  hospitals[i].appointmentQueue.push(msg.sender) */\n      swap1\n      dup1\n      0x01\n      dup2\n      sload\n      add\n      dup1\n      dup3\n      sstore\n      dup1\n      swap2\n      pop\n      pop\n      0x01\n      swap1\n      sub\n      swap1\n      0x00\n      mstore\n      keccak256(0x00, 0x20)\n      add\n      0x00\n      swap1\n      swap2\n      swap1\n      swap2\n      swap1\n      swap2\n      0x0100\n      exp\n      dup2\n      sload\n      dup2\n      0xffffffffffffffffffffffffffffffffffffffff\n      mul\n      not\n      and\n      swap1\n      dup4\n      0xffffffffffffffffffffffffffffffffffffffff\n      and\n      mul\n      or\n      swap1\n      sstore\n      pop\n        /* \"SecondLife.sol\":2719:2724  break */\n      jump(tag_121)\n        /* \"SecondLife.sol\":2599:2739  if(hospitals[i].addrh == hospitalAddr){... */\n    tag_126:\n        /* \"SecondLife.sol\":2581:2584  i++ */\n      dup1\n      dup1\n      tag_131\n      swap1\n      tag_98\n      jump\t// in\n    tag_131:\n      swap2\n      pop\n      pop\n        /* \"SecondLife.sol\":2541:2749  for(uint i = 0 ; i < hospitals.length ; i++){... */\n      jump(tag_120)\n    tag_121:\n      pop\n        /* \"SecondLife.sol\":2477:2755  function bookAppointment(address hospitalAddr) public {... */\n      pop\n      jump\t// out\n        /* \"SecondLife.sol\":1885:1921  organdonation[] public _organdonated */\n    tag_31:\n      0x0c\n      dup2\n      dup2\n      sload\n      dup2\n      lt\n      tag_132\n      jumpi\n      0x00\n      dup1\n      revert\n    tag_132:\n      swap1\n      0x00\n      mstore\n      keccak256(0x00, 0x20)\n      swap1\n      0x04\n      mul\n      add\n      0x00\n      swap2\n      pop\n      swap1\n      pop\n      dup1\n      0x00\n      add\n      sload\n      swap1\n      dup1\n      0x01\n      add\n      dup1\n      sload\n      tag_134\n      swap1\n      tag_69\n      jump\t// in\n    tag_134:\n      dup1\n      0x1f\n      add\n      0x20\n      dup1\n      swap2\n      div\n      mul\n      0x20\n      add\n      mload(0x40)\n      swap1\n      dup2\n      add\n      0x40\n      mstore\n      dup1\n      swap3\n      swap2\n      swap1\n      dup2\n      dup2\n      mstore\n      0x20\n      add\n      dup3\n      dup1\n      sload\n      tag_135\n      swap1\n      tag_69\n      jump\t// in\n    tag_135:\n      dup1\n      iszero\n      tag_136\n      jumpi\n      dup1\n      0x1f\n      lt\n      tag_137\n      jumpi\n      0x0100\n      dup1\n      dup4\n      sload\n      div\n      mul\n      dup4\n      mstore\n      swap2\n      0x20\n      add\n      swap2\n      jump(tag_136)\n    tag_137:\n      dup3\n      add\n      swap2\n      swap1\n      0x00\n      mstore\n      keccak256(0x00, 0x20)\n      swap1\n    tag_138:\n      dup2\n      sload\n      dup2\n      mstore\n      swap1\n      0x01\n      add\n      swap1\n      0x20\n      add\n      dup1\n      dup4\n      gt\n      tag_138\n      jumpi\n      dup3\n      swap1\n      sub\n      0x1f\n      and\n      dup3\n      add\n      swap2\n    tag_136:\n      pop\n      pop\n      pop\n      pop\n      pop\n      swap1\n      dup1\n      0x02\n      add\n      0x00\n      swap1\n      sload\n      swap1\n      0x0100\n      exp\n      swap1\n      div\n      0xffffffffffffffffffffffffffffffffffffffff\n      and\n      swap1\n      dup1\n      0x03\n      add\n      0x00\n      swap1\n      sload\n      swap1\n      0x0100\n      exp\n      swap1\n      div\n      0xffffffffffffffffffffffffffffffffffffffff\n      and\n      swap1\n      pop\n      dup5\n      jump\t// out\n        /* \"SecondLife.sol\":3174:4381  function donate(uint patientid, uint hospitalid , bool blood, bool organ, uint bloodamt,string memory bloodtype, string memory organname) public {... */\n    tag_37:\n        /* \"SecondLife.sol\":3375:3385  msg.sender */\n      caller\n        /* \"SecondLife.sol\":3346:3385  ispatient[patientid].addr == msg.sender */\n      0xffffffffffffffffffffffffffffffffffffffff\n      and\n        /* \"SecondLife.sol\":3346:3355  ispatient */\n      0x04\n        /* \"SecondLife.sol\":3346:3366  ispatient[patientid] */\n      0x00\n        /* \"SecondLife.sol\":3356:3365  patientid */\n      dup10\n        /* \"SecondLife.sol\":3346:3366  ispatient[patientid] */\n      dup2\n      mstore\n      0x20\n      add\n      swap1\n      dup2\n      mstore\n      0x20\n      add\n      0x00\n      keccak256\n        /* \"SecondLife.sol\":3346:3371  ispatient[patientid].addr */\n      0x01\n      add\n      0x00\n      swap1\n      sload\n      swap1\n      0x0100\n      exp\n      swap1\n      div\n      0xffffffffffffffffffffffffffffffffffffffff\n      and\n        /* \"SecondLife.sol\":3346:3385  ispatient[patientid].addr == msg.sender */\n      0xffffffffffffffffffffffffffffffffffffffff\n      and\n      eq\n        /* \"SecondLife.sol\":3338:3404  require(ispatient[patientid].addr == msg.sender, \"Not Registered\") */\n      tag_140\n      jumpi\n      mload(0x40)\n      0x08c379a000000000000000000000000000000000000000000000000000000000\n      dup2\n      mstore\n      0x04\n      add\n      tag_141\n      swap1\n      tag_142\n      jump\t// in\n    tag_141:\n      mload(0x40)\n      dup1\n      swap2\n      sub\n      swap1\n      revert\n    tag_140:\n        /* \"SecondLife.sol\":3414:3425  bool status */\n      0x00\n        /* \"SecondLife.sol\":3447:3453  uint i */\n      dup1\n        /* \"SecondLife.sol\":3443:3698  for(uint i = 0 ; i < hospitals[hospitalid].appointmentQueue.length; i++){... */\n    tag_143:\n        /* \"SecondLife.sol\":3464:3473  hospitals */\n      0x03\n        /* \"SecondLife.sol\":3474:3484  hospitalid */\n      dup9\n        /* \"SecondLife.sol\":3464:3485  hospitals[hospitalid] */\n      dup2\n      sload\n      dup2\n      lt\n      tag_146\n      jumpi\n      tag_147\n      tag_90\n      jump\t// in\n    tag_147:\n    tag_146:\n      swap1\n      0x00\n      mstore\n      keccak256(0x00, 0x20)\n      swap1\n      0x04\n      mul\n      add\n        /* \"SecondLife.sol\":3464:3502  hospitals[hospitalid].appointmentQueue */\n      0x03\n      add\n        /* \"SecondLife.sol\":3464:3509  hospitals[hospitalid].appointmentQueue.length */\n      dup1\n      sload\n      swap1\n      pop\n        /* \"SecondLife.sol\":3460:3461  i */\n      dup2\n        /* \"SecondLife.sol\":3460:3509  i < hospitals[hospitalid].appointmentQueue.length */\n      lt\n        /* \"SecondLife.sol\":3443:3698  for(uint i = 0 ; i < hospitals[hospitalid].appointmentQueue.length; i++){... */\n      iszero\n      tag_144\n      jumpi\n        /* \"SecondLife.sol\":3577:3585  patients */\n      0x01\n        /* \"SecondLife.sol\":3586:3595  patientid */\n      dup10\n        /* \"SecondLife.sol\":3577:3596  patients[patientid] */\n      dup2\n      sload\n      dup2\n      lt\n      tag_149\n      jumpi\n      tag_150\n      tag_90\n      jump\t// in\n    tag_150:\n    tag_149:\n      swap1\n      0x00\n      mstore\n      keccak256(0x00, 0x20)\n      swap1\n      0x05\n      mul\n      add\n        /* \"SecondLife.sol\":3577:3601  patients[patientid].addr */\n      0x01\n      add\n      0x00\n      swap1\n      sload\n      swap1\n      0x0100\n      exp\n      swap1\n      div\n      0xffffffffffffffffffffffffffffffffffffffff\n      and\n        /* \"SecondLife.sol\":3532:3601  hospitals[hospitalid].appointmentQueue[i] == patients[patientid].addr */\n      0xffffffffffffffffffffffffffffffffffffffff\n      and\n        /* \"SecondLife.sol\":3532:3541  hospitals */\n      0x03\n        /* \"SecondLife.sol\":3542:3552  hospitalid */\n      dup10\n        /* \"SecondLife.sol\":3532:3553  hospitals[hospitalid] */\n      dup2\n      sload\n      dup2\n      lt\n      tag_152\n      jumpi\n      tag_153\n      tag_90\n      jump\t// in\n    tag_153:\n    tag_152:\n      swap1\n      0x00\n      mstore\n      keccak256(0x00, 0x20)\n      swap1\n      0x04\n      mul\n      add\n        /* \"SecondLife.sol\":3532:3570  hospitals[hospitalid].appointmentQueue */\n      0x03\n      add\n        /* \"SecondLife.sol\":3571:3572  i */\n      dup3\n        /* \"SecondLife.sol\":3532:3573  hospitals[hospitalid].appointmentQueue[i] */\n      dup2\n      sload\n      dup2\n      lt\n      tag_155\n      jumpi\n      tag_156\n      tag_90\n      jump\t// in\n    tag_156:\n    tag_155:\n      swap1\n      0x00\n      mstore\n      keccak256(0x00, 0x20)\n      add\n      0x00\n      swap1\n      sload\n      swap1\n      0x0100\n      exp\n      swap1\n      div\n      0xffffffffffffffffffffffffffffffffffffffff\n      and\n        /* \"SecondLife.sol\":3532:3601  hospitals[hospitalid].appointmentQueue[i] == patients[patientid].addr */\n      0xffffffffffffffffffffffffffffffffffffffff\n      and\n      sub\n        /* \"SecondLife.sol\":3529:3687  if(hospitals[hospitalid].appointmentQueue[i] == patients[patientid].addr){... */\n      tag_158\n      jumpi\n        /* \"SecondLife.sol\":3629:3633  true */\n      0x01\n        /* \"SecondLife.sol\":3620:3633  status = true */\n      swap2\n      pop\n        /* \"SecondLife.sol\":3529:3687  if(hospitals[hospitalid].appointmentQueue[i] == patients[patientid].addr){... */\n      jump(tag_159)\n    tag_158:\n        /* \"SecondLife.sol\":3679:3687  continue */\n      jump(tag_145)\n        /* \"SecondLife.sol\":3529:3687  if(hospitals[hospitalid].appointmentQueue[i] == patients[patientid].addr){... */\n    tag_159:\n        /* \"SecondLife.sol\":3443:3698  for(uint i = 0 ; i < hospitals[hospitalid].appointmentQueue.length; i++){... */\n    tag_145:\n        /* \"SecondLife.sol\":3511:3514  i++ */\n      dup1\n      dup1\n      tag_160\n      swap1\n      tag_98\n      jump\t// in\n    tag_160:\n      swap2\n      pop\n      pop\n        /* \"SecondLife.sol\":3443:3698  for(uint i = 0 ; i < hospitals[hospitalid].appointmentQueue.length; i++){... */\n      jump(tag_143)\n    tag_144:\n      pop\n        /* \"SecondLife.sol\":3725:3729  true */\n      0x01\n        /* \"SecondLife.sol\":3715:3729  status == true */\n      iszero\n      iszero\n        /* \"SecondLife.sol\":3715:3721  status */\n      dup2\n        /* \"SecondLife.sol\":3715:3729  status == true */\n      iszero\n      iszero\n      eq\n        /* \"SecondLife.sol\":3707:3754  require(status == true, \"Take an Appointmennt\") */\n      tag_161\n      jumpi\n      mload(0x40)\n      0x08c379a000000000000000000000000000000000000000000000000000000000\n      dup2\n      mstore\n      0x04\n      add\n      tag_162\n      swap1\n      tag_163\n      jump\t// in\n    tag_162:\n      mload(0x40)\n      dup1\n      swap2\n      sub\n      swap1\n      revert\n    tag_161:\n        /* \"SecondLife.sol\":3777:3781  true */\n      0x01\n        /* \"SecondLife.sol\":3768:3781  blood == true */\n      iszero\n      iszero\n        /* \"SecondLife.sol\":3768:3773  blood */\n      dup7\n        /* \"SecondLife.sol\":3768:3781  blood == true */\n      iszero\n      iszero\n      sub\n        /* \"SecondLife.sol\":3765:4333  if(blood == true){... */\n      tag_164\n      jumpi\n        /* \"SecondLife.sol\":3809:3822  _blooddonated */\n      0x0d\n        /* \"SecondLife.sol\":3828:3900  blooddonation(bloodtype,bloodamt,hospitals[hospitalid].addrh,msg.sender) */\n      mload(0x40)\n      dup1\n      0x80\n      add\n      0x40\n      mstore\n      dup1\n        /* \"SecondLife.sol\":3842:3851  bloodtype */\n      dup6\n        /* \"SecondLife.sol\":3828:3900  blooddonation(bloodtype,bloodamt,hospitals[hospitalid].addrh,msg.sender) */\n      dup2\n      mstore\n      0x20\n      add\n        /* \"SecondLife.sol\":3852:3860  bloodamt */\n      dup7\n        /* \"SecondLife.sol\":3828:3900  blooddonation(bloodtype,bloodamt,hospitals[hospitalid].addrh,msg.sender) */\n      dup2\n      mstore\n      0x20\n      add\n        /* \"SecondLife.sol\":3861:3870  hospitals */\n      0x03\n        /* \"SecondLife.sol\":3871:3881  hospitalid */\n      dup11\n        /* \"SecondLife.sol\":3861:3882  hospitals[hospitalid] */\n      dup2\n      sload\n      dup2\n      lt\n      tag_165\n      jumpi\n      tag_166\n      tag_90\n      jump\t// in\n    tag_166:\n    tag_165:\n      swap1\n      0x00\n      mstore\n      keccak256(0x00, 0x20)\n      swap1\n      0x04\n      mul\n      add\n        /* \"SecondLife.sol\":3861:3888  hospitals[hospitalid].addrh */\n      0x01\n      add\n      0x00\n      swap1\n      sload\n      swap1\n      0x0100\n      exp\n      swap1\n      div\n      0xffffffffffffffffffffffffffffffffffffffff\n      and\n        /* \"SecondLife.sol\":3828:3900  blooddonation(bloodtype,bloodamt,hospitals[hospitalid].addrh,msg.sender) */\n      0xffffffffffffffffffffffffffffffffffffffff\n      and\n      dup2\n      mstore\n      0x20\n      add\n        /* \"SecondLife.sol\":3889:3899  msg.sender */\n      caller\n        /* \"SecondLife.sol\":3828:3900  blooddonation(bloodtype,bloodamt,hospitals[hospitalid].addrh,msg.sender) */\n      0xffffffffffffffffffffffffffffffffffffffff\n      and\n      dup2\n      mstore\n      pop\n        /* \"SecondLife.sol\":3809:3901  _blooddonated.push(blooddonation(bloodtype,bloodamt,hospitals[hospitalid].addrh,msg.sender)) */\n      swap1\n      dup1\n      0x01\n      dup2\n      sload\n      add\n      dup1\n      dup3\n      sstore\n      dup1\n      swap2\n      pop\n      pop\n      0x01\n      swap1\n      sub\n      swap1\n      0x00\n      mstore\n      keccak256(0x00, 0x20)\n      swap1\n      0x04\n      mul\n      add\n      0x00\n      swap1\n      swap2\n      swap1\n      swap2\n      swap1\n      swap2\n      pop\n      0x00\n      dup3\n      add\n      mload\n      dup2\n      0x00\n      add\n      swap1\n      dup2\n      tag_169\n      swap2\n      swap1\n      tag_84\n      jump\t// in\n    tag_169:\n      pop\n      0x20\n      dup3\n      add\n      mload\n      dup2\n      0x01\n      add\n      sstore\n      0x40\n      dup3\n      add\n      mload\n      dup2\n      0x02\n      add\n      exp(0x0100, 0x00)\n      dup2\n      sload\n      dup2\n      0xffffffffffffffffffffffffffffffffffffffff\n      mul\n      not\n      and\n      swap1\n      dup4\n      0xffffffffffffffffffffffffffffffffffffffff\n      and\n      mul\n      or\n      swap1\n      sstore\n      pop\n      0x60\n      dup3\n      add\n      mload\n      dup2\n      0x03\n      add\n      exp(0x0100, 0x00)\n      dup2\n      sload\n      dup2\n      0xffffffffffffffffffffffffffffffffffffffff\n      mul\n      not\n      and\n      swap1\n      dup4\n      0xffffffffffffffffffffffffffffffffffffffff\n      and\n      mul\n      or\n      swap1\n      sstore\n      pop\n      pop\n      pop\n        /* \"SecondLife.sol\":3765:4333  if(blood == true){... */\n      jump(tag_170)\n    tag_164:\n        /* \"SecondLife.sol\":3951:3955  true */\n      0x01\n        /* \"SecondLife.sol\":3942:3955  organ == true */\n      iszero\n      iszero\n        /* \"SecondLife.sol\":3942:3947  organ */\n      dup6\n        /* \"SecondLife.sol\":3942:3955  organ == true */\n      iszero\n      iszero\n      sub\n        /* \"SecondLife.sol\":3939:4333  if(organ == true){... */\n      tag_171\n      jumpi\n        /* \"SecondLife.sol\":3970:3983  _organdonated */\n      0x0c\n        /* \"SecondLife.sol\":3989:4055  organdonation(1,organname,msg.sender, hospitals[hospitalid].addrh) */\n      mload(0x40)\n      dup1\n      0x80\n      add\n      0x40\n      mstore\n      dup1\n        /* \"SecondLife.sol\":4003:4004  1 */\n      0x01\n        /* \"SecondLife.sol\":3989:4055  organdonation(1,organname,msg.sender, hospitals[hospitalid].addrh) */\n      dup2\n      mstore\n      0x20\n      add\n        /* \"SecondLife.sol\":4005:4014  organname */\n      dup5\n        /* \"SecondLife.sol\":3989:4055  organdonation(1,organname,msg.sender, hospitals[hospitalid].addrh) */\n      dup2\n      mstore\n      0x20\n      add\n        /* \"SecondLife.sol\":4015:4025  msg.sender */\n      caller\n        /* \"SecondLife.sol\":3989:4055  organdonation(1,organname,msg.sender, hospitals[hospitalid].addrh) */\n      0xffffffffffffffffffffffffffffffffffffffff\n      and\n      dup2\n      mstore\n      0x20\n      add\n        /* \"SecondLife.sol\":4027:4036  hospitals */\n      0x03\n        /* \"SecondLife.sol\":4037:4047  hospitalid */\n      dup11\n        /* \"SecondLife.sol\":4027:4048  hospitals[hospitalid] */\n      dup2\n      sload\n      dup2\n      lt\n      tag_172\n      jumpi\n      tag_173\n      tag_90\n      jump\t// in\n    tag_173:\n    tag_172:\n      swap1\n      0x00\n      mstore\n      keccak256(0x00, 0x20)\n      swap1\n      0x04\n      mul\n      add\n        /* \"SecondLife.sol\":4027:4054  hospitals[hospitalid].addrh */\n      0x01\n      add\n      0x00\n      swap1\n      sload\n      swap1\n      0x0100\n      exp\n      swap1\n      div\n      0xffffffffffffffffffffffffffffffffffffffff\n      and\n        /* \"SecondLife.sol\":3989:4055  organdonation(1,organname,msg.sender, hospitals[hospitalid].addrh) */\n      0xffffffffffffffffffffffffffffffffffffffff\n      and\n      dup2\n      mstore\n      pop\n        /* \"SecondLife.sol\":3970:4056  _organdonated.push(organdonation(1,organname,msg.sender, hospitals[hospitalid].addrh)) */\n      swap1\n      dup1\n      0x01\n      dup2\n      sload\n      add\n      dup1\n      dup3\n      sstore\n      dup1\n      swap2\n      pop\n      pop\n      0x01\n      swap1\n      sub\n      swap1\n      0x00\n      mstore\n      keccak256(0x00, 0x20)\n      swap1\n      0x04\n      mul\n      add\n      0x00\n      swap1\n      swap2\n      swap1\n      swap2\n      swap1\n      swap2\n      pop\n      0x00\n      dup3\n      add\n      mload\n      dup2\n      0x00\n      add\n      sstore\n      0x20\n      dup3\n      add\n      mload\n      dup2\n      0x01\n      add\n      swap1\n      dup2\n      tag_176\n      swap2\n      swap1\n      tag_84\n      jump\t// in\n    tag_176:\n      pop\n      0x40\n      dup3\n      add\n      mload\n      dup2\n      0x02\n      add\n      exp(0x0100, 0x00)\n      dup2\n      sload\n      dup2\n      0xffffffffffffffffffffffffffffffffffffffff\n      mul\n      not\n      and\n      swap1\n      dup4\n      0xffffffffffffffffffffffffffffffffffffffff\n      and\n      mul\n      or\n      swap1\n      sstore\n      pop\n      0x60\n      dup3\n      add\n      mload\n      dup2\n      0x03\n      add\n      exp(0x0100, 0x00)\n      dup2\n      sload\n      dup2\n      0xffffffffffffffffffffffffffffffffffffffff\n      mul\n      not\n      and\n      swap1\n      dup4\n      0xffffffffffffffffffffffffffffffffffffffff\n      and\n      mul\n      or\n      swap1\n      sstore\n      pop\n      pop\n      pop\n        /* \"SecondLife.sol\":3939:4333  if(organ == true){... */\n      jump(tag_177)\n    tag_171:\n        /* \"SecondLife.sol\":4094:4098  true */\n      0x01\n        /* \"SecondLife.sol\":4085:4098  organ == true */\n      iszero\n      iszero\n        /* \"SecondLife.sol\":4085:4090  organ */\n      dup6\n        /* \"SecondLife.sol\":4085:4098  organ == true */\n      iszero\n      iszero\n      eq\n        /* \"SecondLife.sol\":4085:4115  organ == true && blood == true */\n      dup1\n      iszero\n      tag_178\n      jumpi\n      pop\n        /* \"SecondLife.sol\":4111:4115  true */\n      0x01\n        /* \"SecondLife.sol\":4102:4115  blood == true */\n      iszero\n      iszero\n        /* \"SecondLife.sol\":4102:4107  blood */\n      dup7\n        /* \"SecondLife.sol\":4102:4115  blood == true */\n      iszero\n      iszero\n      eq\n        /* \"SecondLife.sol\":4085:4115  organ == true && blood == true */\n    tag_178:\n        /* \"SecondLife.sol\":4081:4333  if (organ == true && blood == true){... */\n      iszero\n      tag_179\n      jumpi\n        /* \"SecondLife.sol\":4130:4143  _blooddonated */\n      0x0d\n        /* \"SecondLife.sol\":4149:4221  blooddonation(bloodtype,bloodamt,hospitals[hospitalid].addrh,msg.sender) */\n      mload(0x40)\n      dup1\n      0x80\n      add\n      0x40\n      mstore\n      dup1\n        /* \"SecondLife.sol\":4163:4172  bloodtype */\n      dup6\n        /* \"SecondLife.sol\":4149:4221  blooddonation(bloodtype,bloodamt,hospitals[hospitalid].addrh,msg.sender) */\n      dup2\n      mstore\n      0x20\n      add\n        /* \"SecondLife.sol\":4173:4181  bloodamt */\n      dup7\n        /* \"SecondLife.sol\":4149:4221  blooddonation(bloodtype,bloodamt,hospitals[hospitalid].addrh,msg.sender) */\n      dup2\n      mstore\n      0x20\n      add\n        /* \"SecondLife.sol\":4182:4191  hospitals */\n      0x03\n        /* \"SecondLife.sol\":4192:4202  hospitalid */\n      dup11\n        /* \"SecondLife.sol\":4182:4203  hospitals[hospitalid] */\n      dup2\n      sload\n      dup2\n      lt\n      tag_180\n      jumpi\n      tag_181\n      tag_90\n      jump\t// in\n    tag_181:\n    tag_180:\n      swap1\n      0x00\n      mstore\n      keccak256(0x00, 0x20)\n      swap1\n      0x04\n      mul\n      add\n        /* \"SecondLife.sol\":4182:4209  hospitals[hospitalid].addrh */\n      0x01\n      add\n      0x00\n      swap1\n      sload\n      swap1\n      0x0100\n      exp\n      swap1\n      div\n      0xffffffffffffffffffffffffffffffffffffffff\n      and\n        /* \"SecondLife.sol\":4149:4221  blooddonation(bloodtype,bloodamt,hospitals[hospitalid].addrh,msg.sender) */\n      0xffffffffffffffffffffffffffffffffffffffff\n      and\n      dup2\n      mstore\n      0x20\n      add\n        /* \"SecondLife.sol\":4210:4220  msg.sender */\n      caller\n        /* \"SecondLife.sol\":4149:4221  blooddonation(bloodtype,bloodamt,hospitals[hospitalid].addrh,msg.sender) */\n      0xffffffffffffffffffffffffffffffffffffffff\n      and\n      dup2\n      mstore\n      pop\n        /* \"SecondLife.sol\":4130:4222  _blooddonated.push(blooddonation(bloodtype,bloodamt,hospitals[hospitalid].addrh,msg.sender)) */\n      swap1\n      dup1\n      0x01\n      dup2\n      sload\n      add\n      dup1\n      dup3\n      sstore\n      dup1\n      swap2\n      pop\n      pop\n      0x01\n      swap1\n      sub\n      swap1\n      0x00\n      mstore\n      keccak256(0x00, 0x20)\n      swap1\n      0x04\n      mul\n      add\n      0x00\n      swap1\n      swap2\n      swap1\n      swap2\n      swap1\n      swap2\n      pop\n      0x00\n      dup3\n      add\n      mload\n      dup2\n      0x00\n      add\n      swap1\n      dup2\n      tag_184\n      swap2\n      swap1\n      tag_84\n      jump\t// in\n    tag_184:\n      pop\n      0x20\n      dup3\n      add\n      mload\n      dup2\n      0x01\n      add\n      sstore\n      0x40\n      dup3\n      add\n      mload\n      dup2\n      0x02\n      add\n      exp(0x0100, 0x00)\n      dup2\n      sload\n      dup2\n      0xffffffffffffffffffffffffffffffffffffffff\n      mul\n      not\n      and\n      swap1\n      dup4\n      0xffffffffffffffffffffffffffffffffffffffff\n      and\n      mul\n      or\n      swap1\n      sstore\n      pop\n      0x60\n      dup3\n      add\n      mload\n      dup2\n      0x03\n      add\n      exp(0x0100, 0x00)\n      dup2\n      sload\n      dup2\n      0xffffffffffffffffffffffffffffffffffffffff\n      mul\n      not\n      and\n      swap1\n      dup4\n      0xffffffffffffffffffffffffffffffffffffffff\n      and\n      mul\n      or\n      swap1\n      sstore\n      pop\n      pop\n      pop\n        /* \"SecondLife.sol\":4236:4249  _organdonated */\n      0x0c\n        /* \"SecondLife.sol\":4255:4321  organdonation(1,organname,msg.sender, hospitals[hospitalid].addrh) */\n      mload(0x40)\n      dup1\n      0x80\n      add\n      0x40\n      mstore\n      dup1\n        /* \"SecondLife.sol\":4269:4270  1 */\n      0x01\n        /* \"SecondLife.sol\":4255:4321  organdonation(1,organname,msg.sender, hospitals[hospitalid].addrh) */\n      dup2\n      mstore\n      0x20\n      add\n        /* \"SecondLife.sol\":4271:4280  organname */\n      dup5\n        /* \"SecondLife.sol\":4255:4321  organdonation(1,organname,msg.sender, hospitals[hospitalid].addrh) */\n      dup2\n      mstore\n      0x20\n      add\n        /* \"SecondLife.sol\":4281:4291  msg.sender */\n      caller\n        /* \"SecondLife.sol\":4255:4321  organdonation(1,organname,msg.sender, hospitals[hospitalid].addrh) */\n      0xffffffffffffffffffffffffffffffffffffffff\n      and\n      dup2\n      mstore\n      0x20\n      add\n        /* \"SecondLife.sol\":4293:4302  hospitals */\n      0x03\n        /* \"SecondLife.sol\":4303:4313  hospitalid */\n      dup11\n        /* \"SecondLife.sol\":4293:4314  hospitals[hospitalid] */\n      dup2\n      sload\n      dup2\n      lt\n      tag_185\n      jumpi\n      tag_186\n      tag_90\n      jump\t// in\n    tag_186:\n    tag_185:\n      swap1\n      0x00\n      mstore\n      keccak256(0x00, 0x20)\n      swap1\n      0x04\n      mul\n      add\n        /* \"SecondLife.sol\":4293:4320  hospitals[hospitalid].addrh */\n      0x01\n      add\n      0x00\n      swap1\n      sload\n      swap1\n      0x0100\n      exp\n      swap1\n      div\n      0xffffffffffffffffffffffffffffffffffffffff\n      and\n        /* \"SecondLife.sol\":4255:4321  organdonation(1,organname,msg.sender, hospitals[hospitalid].addrh) */\n      0xffffffffffffffffffffffffffffffffffffffff\n      and\n      dup2\n      mstore\n      pop\n        /* \"SecondLife.sol\":4236:4322  _organdonated.push(organdonation(1,organname,msg.sender, hospitals[hospitalid].addrh)) */\n      swap1\n      dup1\n      0x01\n      dup2\n      sload\n      add\n      dup1\n      dup3\n      sstore\n      dup1\n      swap2\n      pop\n      pop\n      0x01\n      swap1\n      sub\n      swap1\n      0x00\n      mstore\n      keccak256(0x00, 0x20)\n      swap1\n      0x04\n      mul\n      add\n      0x00\n      swap1\n      swap2\n      swap1\n      swap2\n      swap1\n      swap2\n      pop\n      0x00\n      dup3\n      add\n      mload\n      dup2\n      0x00\n      add\n      sstore\n      0x20\n      dup3\n      add\n      mload\n      dup2\n      0x01\n      add\n      swap1\n      dup2\n      tag_189\n      swap2\n      swap1\n      tag_84\n      jump\t// in\n    tag_189:\n      pop\n      0x40\n      dup3\n      add\n      mload\n      dup2\n      0x02\n      add\n      exp(0x0100, 0x00)\n      dup2\n      sload\n      dup2\n      0xffffffffffffffffffffffffffffffffffffffff\n      mul\n      not\n      and\n      swap1\n      dup4\n      0xffffffffffffffffffffffffffffffffffffffff\n      and\n      mul\n      or\n      swap1\n      sstore\n      pop\n      0x60\n      dup3\n      add\n      mload\n      dup2\n      0x03\n      add\n      exp(0x0100, 0x00)\n      dup2\n      sload\n      dup2\n      0xffffffffffffffffffffffffffffffffffffffff\n      mul\n      not\n      and\n      swap1\n      dup4\n      0xffffffffffffffffffffffffffffffffffffffff\n      and\n      mul\n      or\n      swap1\n      sstore\n      pop\n      pop\n      pop\n        /* \"SecondLife.sol\":4081:4333  if (organ == true && blood == true){... */\n    tag_179:\n        /* \"SecondLife.sol\":3939:4333  if(organ == true){... */\n    tag_177:\n        /* \"SecondLife.sol\":3765:4333  if(blood == true){... */\n    tag_170:\n        /* \"SecondLife.sol\":4342:4348  donars */\n      0x02\n        /* \"SecondLife.sol\":4354:4362  patients */\n      0x01\n        /* \"SecondLife.sol\":4363:4372  patientid */\n      dup10\n        /* \"SecondLife.sol\":4354:4373  patients[patientid] */\n      dup2\n      sload\n      dup2\n      lt\n      tag_190\n      jumpi\n      tag_191\n      tag_90\n      jump\t// in\n    tag_191:\n    tag_190:\n      swap1\n      0x00\n      mstore\n      keccak256(0x00, 0x20)\n      swap1\n      0x05\n      mul\n      add\n        /* \"SecondLife.sol\":4342:4374  donars.push(patients[patientid]) */\n      swap1\n      dup1\n      0x01\n      dup2\n      sload\n      add\n      dup1\n      dup3\n      sstore\n      dup1\n      swap2\n      pop\n      pop\n      0x01\n      swap1\n      sub\n      swap1\n      0x00\n      mstore\n      keccak256(0x00, 0x20)\n      swap1\n      0x05\n      mul\n      add\n      0x00\n      swap1\n      swap2\n      swap1\n      swap2\n      swap1\n      swap2\n      pop\n      0x00\n      dup3\n      add\n      sload\n      dup2\n      0x00\n      add\n      sstore\n      0x01\n      dup3\n      add\n      0x00\n      swap1\n      sload\n      swap1\n      0x0100\n      exp\n      swap1\n      div\n      0xffffffffffffffffffffffffffffffffffffffff\n      and\n      dup2\n      0x01\n      add\n      exp(0x0100, 0x00)\n      dup2\n      sload\n      dup2\n      0xffffffffffffffffffffffffffffffffffffffff\n      mul\n      not\n      and\n      swap1\n      dup4\n      0xffffffffffffffffffffffffffffffffffffffff\n      and\n      mul\n      or\n      swap1\n      sstore\n      pop\n      0x02\n      dup3\n      add\n      dup2\n      0x02\n      add\n      swap1\n      dup2\n      tag_194\n      swap2\n      swap1\n      tag_93\n      jump\t// in\n    tag_194:\n      pop\n      0x03\n      dup3\n      add\n      dup2\n      0x03\n      add\n      swap1\n      dup1\n      sload\n      tag_195\n      swap3\n      swap2\n      swap1\n      tag_95\n      jump\t// in\n    tag_195:\n      pop\n      0x04\n      dup3\n      add\n      dup2\n      0x04\n      add\n      swap1\n      dup1\n      sload\n      tag_196\n      swap3\n      swap2\n      swap1\n      tag_95\n      jump\t// in\n    tag_196:\n      pop\n      pop\n      pop\n        /* \"SecondLife.sol\":3319:4381  {... */\n      pop\n        /* \"SecondLife.sol\":3174:4381  function donate(uint patientid, uint hospitalid , bool blood, bool organ, uint bloodamt,string memory bloodtype, string memory organname) public {... */\n      pop\n      pop\n      pop\n      pop\n      pop\n      pop\n      pop\n      jump\t// out\n        /* \"SecondLife.sol\":1136:1161  patient[] public patients */\n    tag_40:\n      0x01\n      dup2\n      dup2\n      sload\n      dup2\n      lt\n      tag_197\n      jumpi\n      0x00\n      dup1\n      revert\n    tag_197:\n      swap1\n      0x00\n      mstore\n      keccak256(0x00, 0x20)\n      swap1\n      0x05\n      mul\n      add\n      0x00\n      swap2\n      pop\n      swap1\n      pop\n      dup1\n      0x00\n      add\n      sload\n      swap1\n      dup1\n      0x01\n      add\n      0x00\n      swap1\n      sload\n      swap1\n      0x0100\n      exp\n      swap1\n      div\n      0xffffffffffffffffffffffffffffffffffffffff\n      and\n      swap1\n      dup1\n      0x02\n      add\n      dup1\n      sload\n      tag_199\n      swap1\n      tag_69\n      jump\t// in\n    tag_199:\n      dup1\n      0x1f\n      add\n      0x20\n      dup1\n      swap2\n      div\n      mul\n      0x20\n      add\n      mload(0x40)\n      swap1\n      dup2\n      add\n      0x40\n      mstore\n      dup1\n      swap3\n      swap2\n      swap1\n      dup2\n      dup2\n      mstore\n      0x20\n      add\n      dup3\n      dup1\n      sload\n      tag_200\n      swap1\n      tag_69\n      jump\t// in\n    tag_200:\n      dup1\n      iszero\n      tag_201\n      jumpi\n      dup1\n      0x1f\n      lt\n      tag_202\n      jumpi\n      0x0100\n      dup1\n      dup4\n      sload\n      div\n      mul\n      dup4\n      mstore\n      swap2\n      0x20\n      add\n      swap2\n      jump(tag_201)\n    tag_202:\n      dup3\n      add\n      swap2\n      swap1\n      0x00\n      mstore\n      keccak256(0x00, 0x20)\n      swap1\n    tag_203:\n      dup2\n      sload\n      dup2\n      mstore\n      swap1\n      0x01\n      add\n      swap1\n      0x20\n      add\n      dup1\n      dup4\n      gt\n      tag_203\n      jumpi\n      dup3\n      swap1\n      sub\n      0x1f\n      and\n      dup3\n      add\n      swap2\n    tag_201:\n      pop\n      pop\n      pop\n      pop\n      pop\n      swap1\n      pop\n      dup4\n      jump\t// out\n        /* \"SecondLife.sol\":1844:1879  bloodsupplied[] public _bloodsupply */\n    tag_45:\n      0x0b\n      dup2\n      dup2\n      sload\n      dup2\n      lt\n      tag_204\n      jumpi\n      0x00\n      dup1\n      revert\n    tag_204:\n      swap1\n      0x00\n      mstore\n      keccak256(0x00, 0x20)\n      swap1\n      0x04\n      mul\n      add\n      0x00\n      swap2\n      pop\n      swap1\n      pop\n      dup1\n      0x00\n      add\n      sload\n      swap1\n      dup1\n      0x01\n      add\n      dup1\n      sload\n      tag_206\n      swap1\n      tag_69\n      jump\t// in\n    tag_206:\n      dup1\n      0x1f\n      add\n      0x20\n      dup1\n      swap2\n      div\n      mul\n      0x20\n      add\n      mload(0x40)\n      swap1\n      dup2\n      add\n      0x40\n      mstore\n      dup1\n      swap3\n      swap2\n      swap1\n      dup2\n      dup2\n      mstore\n      0x20\n      add\n      dup3\n      dup1\n      sload\n      tag_207\n      swap1\n      tag_69\n      jump\t// in\n    tag_207:\n      dup1\n      iszero\n      tag_208\n      jumpi\n      dup1\n      0x1f\n      lt\n      tag_209\n      jumpi\n      0x0100\n      dup1\n      dup4\n      sload\n      div\n      mul\n      dup4\n      mstore\n      swap2\n      0x20\n      add\n      swap2\n      jump(tag_208)\n    tag_209:\n      dup3\n      add\n      swap2\n      swap1\n      0x00\n      mstore\n      keccak256(0x00, 0x20)\n      swap1\n    tag_210:\n      dup2\n      sload\n      dup2\n      mstore\n      swap1\n      0x01\n      add\n      swap1\n      0x20\n      add\n      dup1\n      dup4\n      gt\n      tag_210\n      jumpi\n      dup3\n      swap1\n      sub\n      0x1f\n      and\n      dup3\n      add\n      swap2\n    tag_208:\n      pop\n      pop\n      pop\n      pop\n      pop\n      swap1\n      dup1\n      0x02\n      add\n      0x00\n      swap1\n      sload\n      swap1\n      0x0100\n      exp\n      swap1\n      div\n      0xffffffffffffffffffffffffffffffffffffffff\n      and\n      swap1\n      dup1\n      0x03\n      add\n      0x00\n      swap1\n      sload\n      swap1\n      0x0100\n      exp\n      swap1\n      div\n      0xffffffffffffffffffffffffffffffffffffffff\n      and\n      swap1\n      pop\n      dup5\n      jump\t// out\n        /* \"SecondLife.sol\":1167:1190  patient[] public donars */\n    tag_49:\n      0x02\n      dup2\n      dup2\n      sload\n      dup2\n      lt\n      tag_211\n      jumpi\n      0x00\n      dup1\n      revert\n    tag_211:\n      swap1\n      0x00\n      mstore\n      keccak256(0x00, 0x20)\n      swap1\n      0x05\n      mul\n      add\n      0x00\n      swap2\n      pop\n      swap1\n      pop\n      dup1\n      0x00\n      add\n      sload\n      swap1\n      dup1\n      0x01\n      add\n      0x00\n      swap1\n      sload\n      swap1\n      0x0100\n      exp\n      swap1\n      div\n      0xffffffffffffffffffffffffffffffffffffffff\n      and\n      swap1\n      dup1\n      0x02\n      add\n      dup1\n      sload\n      tag_213\n      swap1\n      tag_69\n      jump\t// in\n    tag_213:\n      dup1\n      0x1f\n      add\n      0x20\n      dup1\n      swap2\n      div\n      mul\n      0x20\n      add\n      mload(0x40)\n      swap1\n      dup2\n      add\n      0x40\n      mstore\n      dup1\n      swap3\n      swap2\n      swap1\n      dup2\n      dup2\n      mstore\n      0x20\n      add\n      dup3\n      dup1\n      sload\n      tag_214\n      swap1\n      tag_69\n      jump\t// in\n    tag_214:\n      dup1\n      iszero\n      tag_215\n      jumpi\n      dup1\n      0x1f\n      lt\n      tag_216\n      jumpi\n      0x0100\n      dup1\n      dup4\n      sload\n      div\n      mul\n      dup4\n      mstore\n      swap2\n      0x20\n      add\n      swap2\n      jump(tag_215)\n    tag_216:\n      dup3\n      add\n      swap2\n      swap1\n      0x00\n      mstore\n      keccak256(0x00, 0x20)\n      swap1\n    tag_217:\n      dup2\n      sload\n      dup2\n      mstore\n      swap1\n      0x01\n      add\n      swap1\n      0x20\n      add\n      dup1\n      dup4\n      gt\n      tag_217\n      jumpi\n      dup3\n      swap1\n      sub\n      0x1f\n      and\n      dup3\n      add\n      swap2\n    tag_215:\n      pop\n      pop\n      pop\n      pop\n      pop\n      swap1\n      pop\n      dup4\n      jump\t// out\n        /* \"SecondLife.sol\":1803:1838  organsupplied[] public _organsupply */\n    tag_53:\n      0x0a\n      dup2\n      dup2\n      sload\n      dup2\n      lt\n      tag_218\n      jumpi\n      0x00\n      dup1\n      revert\n    tag_218:\n      swap1\n      0x00\n      mstore\n      keccak256(0x00, 0x20)\n      swap1\n      0x04\n      mul\n      add\n      0x00\n      swap2\n      pop\n      swap1\n      pop\n      dup1\n      0x00\n      add\n      sload\n      swap1\n      dup1\n      0x01\n      add\n      dup1\n      sload\n      tag_220\n      swap1\n      tag_69\n      jump\t// in\n    tag_220:\n      dup1\n      0x1f\n      add\n      0x20\n      dup1\n      swap2\n      div\n      mul\n      0x20\n      add\n      mload(0x40)\n      swap1\n      dup2\n      add\n      0x40\n      mstore\n      dup1\n      swap3\n      swap2\n      swap1\n      dup2\n      dup2\n      mstore\n      0x20\n      add\n      dup3\n      dup1\n      sload\n      tag_221\n      swap1\n      tag_69\n      jump\t// in\n    tag_221:\n      dup1\n      iszero\n      tag_222\n      jumpi\n      dup1\n      0x1f\n      lt\n      tag_223\n      jumpi\n      0x0100\n      dup1\n      dup4\n      sload\n      div\n      mul\n      dup4\n      mstore\n      swap2\n      0x20\n      add\n      swap2\n      jump(tag_222)\n    tag_223:\n      dup3\n      add\n      swap2\n      swap1\n      0x00\n      mstore\n      keccak256(0x00, 0x20)\n      swap1\n    tag_224:\n      dup2\n      sload\n      dup2\n      mstore\n      swap1\n      0x01\n      add\n      swap1\n      0x20\n      add\n      dup1\n      dup4\n      gt\n      tag_224\n      jumpi\n      dup3\n      swap1\n      sub\n      0x1f\n      and\n      dup3\n      add\n      swap2\n    tag_222:\n      pop\n      pop\n      pop\n      pop\n      pop\n      swap1\n      dup1\n      0x02\n      add\n      0x00\n      swap1\n      sload\n      swap1\n      0x0100\n      exp\n      swap1\n      div\n      0xffffffffffffffffffffffffffffffffffffffff\n      and\n      swap1\n      dup1\n      0x03\n      add\n      0x00\n      swap1\n      sload\n      swap1\n      0x0100\n      exp\n      swap1\n      div\n      0xffffffffffffffffffffffffffffffffffffffff\n      and\n      swap1\n      pop\n      dup5\n      jump\t// out\n        /* \"SecondLife.sol\":1927:1963  blooddonation[] public _blooddonated */\n    tag_57:\n      0x0d\n      dup2\n      dup2\n      sload\n      dup2\n      lt\n      tag_225\n      jumpi\n      0x00\n      dup1\n      revert\n    tag_225:\n      swap1\n      0x00\n      mstore\n      keccak256(0x00, 0x20)\n      swap1\n      0x04\n      mul\n      add\n      0x00\n      swap2\n      pop\n      swap1\n      pop\n      dup1\n      0x00\n      add\n      dup1\n      sload\n      tag_227\n      swap1\n      tag_69\n      jump\t// in\n    tag_227:\n      dup1\n      0x1f\n      add\n      0x20\n      dup1\n      swap2\n      div\n      mul\n      0x20\n      add\n      mload(0x40)\n      swap1\n      dup2\n      add\n      0x40\n      mstore\n      dup1\n      swap3\n      swap2\n      swap1\n      dup2\n      dup2\n      mstore\n      0x20\n      add\n      dup3\n      dup1\n      sload\n      tag_228\n      swap1\n      tag_69\n      jump\t// in\n    tag_228:\n      dup1\n      iszero\n      tag_229\n      jumpi\n      dup1\n      0x1f\n      lt\n      tag_230\n      jumpi\n      0x0100\n      dup1\n      dup4\n      sload\n      div\n      mul\n      dup4\n      mstore\n      swap2\n      0x20\n      add\n      swap2\n      jump(tag_229)\n    tag_230:\n      dup3\n      add\n      swap2\n      swap1\n      0x00\n      mstore\n      keccak256(0x00, 0x20)\n      swap1\n    tag_231:\n      dup2\n      sload\n      dup2\n      mstore\n      swap1\n      0x01\n      add\n      swap1\n      0x20\n      add\n      dup1\n      dup4\n      gt\n      tag_231\n      jumpi\n      dup3\n      swap1\n      sub\n      0x1f\n      and\n      dup3\n      add\n      swap2\n    tag_229:\n      pop\n      pop\n      pop\n      pop\n      pop\n      swap1\n      dup1\n      0x01\n      add\n      sload\n      swap1\n      dup1\n      0x02\n      add\n      0x00\n      swap1\n      sload\n      swap1\n      0x0100\n      exp\n      swap1\n      div\n      0xffffffffffffffffffffffffffffffffffffffff\n      and\n      swap1\n      dup1\n      0x03\n      add\n      0x00\n      swap1\n      sload\n      swap1\n      0x0100\n      exp\n      swap1\n      div\n      0xffffffffffffffffffffffffffffffffffffffff\n      and\n      swap1\n      pop\n      dup5\n      jump\t// out\n        /* \"SecondLife.sol\":2003:2471  function HospitalReg(address hospitalsaddr,string memory _name) public {... */\n    tag_63:\n        /* \"SecondLife.sol\":2101:2111  msg.sender */\n      caller\n        /* \"SecondLife.sol\":2092:2111  owner == msg.sender */\n      0xffffffffffffffffffffffffffffffffffffffff\n      and\n        /* \"SecondLife.sol\":2092:2097  owner */\n      0x00\n      dup1\n      sload\n      swap1\n      0x0100\n      exp\n      swap1\n      div\n      0xffffffffffffffffffffffffffffffffffffffff\n      and\n        /* \"SecondLife.sol\":2092:2111  owner == msg.sender */\n      0xffffffffffffffffffffffffffffffffffffffff\n      and\n      eq\n        /* \"SecondLife.sol\":2084:2137  require(owner == msg.sender, \"You are not the owner\") */\n      tag_233\n      jumpi\n      mload(0x40)\n      0x08c379a000000000000000000000000000000000000000000000000000000000\n      dup2\n      mstore\n      0x04\n      add\n      tag_234\n      swap1\n      tag_235\n      jump\t// in\n    tag_234:\n      mload(0x40)\n      dup1\n      swap2\n      sub\n      swap1\n      revert\n    tag_233:\n        /* \"SecondLife.sol\":2338:2347  hospitals */\n      0x03\n        /* \"SecondLife.sol\":2353:2404  hospital(Id1,hospitalsaddr,_name,_appointmentQueue) */\n      mload(0x40)\n      dup1\n      0x80\n      add\n      0x40\n      mstore\n      dup1\n        /* \"SecondLife.sol\":2362:2365  Id1 */\n      sload(0x06)\n        /* \"SecondLife.sol\":2353:2404  hospital(Id1,hospitalsaddr,_name,_appointmentQueue) */\n      dup2\n      mstore\n      0x20\n      add\n        /* \"SecondLife.sol\":2366:2379  hospitalsaddr */\n      dup5\n        /* \"SecondLife.sol\":2353:2404  hospital(Id1,hospitalsaddr,_name,_appointmentQueue) */\n      0xffffffffffffffffffffffffffffffffffffffff\n      and\n      dup2\n      mstore\n      0x20\n      add\n        /* \"SecondLife.sol\":2380:2385  _name */\n      dup4\n        /* \"SecondLife.sol\":2353:2404  hospital(Id1,hospitalsaddr,_name,_appointmentQueue) */\n      dup2\n      mstore\n      0x20\n      add\n        /* \"SecondLife.sol\":2386:2403  _appointmentQueue */\n      0x0e\n        /* \"SecondLife.sol\":2353:2404  hospital(Id1,hospitalsaddr,_name,_appointmentQueue) */\n      dup1\n      sload\n      dup1\n      0x20\n      mul\n      0x20\n      add\n      mload(0x40)\n      swap1\n      dup2\n      add\n      0x40\n      mstore\n      dup1\n      swap3\n      swap2\n      swap1\n      dup2\n      dup2\n      mstore\n      0x20\n      add\n      dup3\n      dup1\n      sload\n      dup1\n      iszero\n      tag_236\n      jumpi\n      0x20\n      mul\n      dup3\n      add\n      swap2\n      swap1\n      0x00\n      mstore\n      keccak256(0x00, 0x20)\n      swap1\n    tag_237:\n      dup2\n      0x00\n      swap1\n      sload\n      swap1\n      0x0100\n      exp\n      swap1\n      div\n      0xffffffffffffffffffffffffffffffffffffffff\n      and\n      0xffffffffffffffffffffffffffffffffffffffff\n      and\n      dup2\n      mstore\n      0x20\n      add\n      swap1\n      0x01\n      add\n      swap1\n      dup1\n      dup4\n      gt\n      tag_237\n      jumpi\n    tag_236:\n      pop\n      pop\n      pop\n      pop\n      pop\n      dup2\n      mstore\n      pop\n        /* \"SecondLife.sol\":2338:2405  hospitals.push(hospital(Id1,hospitalsaddr,_name,_appointmentQueue)) */\n      swap1\n      dup1\n      0x01\n      dup2\n      sload\n      add\n      dup1\n      dup3\n      sstore\n      dup1\n      swap2\n      pop\n      pop\n      0x01\n      swap1\n      sub\n      swap1\n      0x00\n      mstore\n      keccak256(0x00, 0x20)\n      swap1\n      0x04\n      mul\n      add\n      0x00\n      swap1\n      swap2\n      swap1\n      swap2\n      swap1\n      swap2\n      pop\n      0x00\n      dup3\n      add\n      mload\n      dup2\n      0x00\n      add\n      sstore\n      0x20\n      dup3\n      add\n      mload\n      dup2\n      0x01\n      add\n      exp(0x0100, 0x00)\n      dup2\n      sload\n      dup2\n      0xffffffffffffffffffffffffffffffffffffffff\n      mul\n      not\n      and\n      swap1\n      dup4\n      0xffffffffffffffffffffffffffffffffffffffff\n      and\n      mul\n      or\n      swap1\n      sstore\n      pop\n      0x40\n      dup3\n      add\n      mload\n      dup2\n      0x02\n      add\n      swap1\n      dup2\n      tag_239\n      swap2\n      swap1\n      tag_84\n      jump\t// in\n    tag_239:\n      pop\n      0x60\n      dup3\n      add\n      mload\n      dup2\n      0x03\n      add\n      swap1\n      dup1\n      mload\n      swap1\n      0x20\n      add\n      swap1\n      tag_240\n      swap3\n      swap2\n      swap1\n      tag_241\n      jump\t// in\n    tag_240:\n      pop\n      pop\n      pop\n        /* \"SecondLife.sol\":2433:2442  hospitals */\n      0x03\n        /* \"SecondLife.sol\":2443:2446  Id2 */\n      sload(0x07)\n        /* \"SecondLife.sol\":2433:2447  hospitals[Id2] */\n      dup2\n      sload\n      dup2\n      lt\n      tag_242\n      jumpi\n      tag_243\n      tag_90\n      jump\t// in\n    tag_243:\n    tag_242:\n      swap1\n      0x00\n      mstore\n      keccak256(0x00, 0x20)\n      swap1\n      0x04\n      mul\n      add\n        /* \"SecondLife.sol\":2415:2425  ishospital */\n      0x05\n        /* \"SecondLife.sol\":2415:2430  ishospital[Id2] */\n      0x00\n        /* \"SecondLife.sol\":2426:2429  Id2 */\n      sload(0x07)\n        /* \"SecondLife.sol\":2415:2430  ishospital[Id2] */\n      dup2\n      mstore\n      0x20\n      add\n      swap1\n      dup2\n      mstore\n      0x20\n      add\n      0x00\n      keccak256\n        /* \"SecondLife.sol\":2415:2447  ishospital[Id2] = hospitals[Id2] */\n      0x00\n      dup3\n      add\n      sload\n      dup2\n      0x00\n      add\n      sstore\n      0x01\n      dup3\n      add\n      0x00\n      swap1\n      sload\n      swap1\n      0x0100\n      exp\n      swap1\n      div\n      0xffffffffffffffffffffffffffffffffffffffff\n      and\n      dup2\n      0x01\n      add\n      exp(0x0100, 0x00)\n      dup2\n      sload\n      dup2\n      0xffffffffffffffffffffffffffffffffffffffff\n      mul\n      not\n      and\n      swap1\n      dup4\n      0xffffffffffffffffffffffffffffffffffffffff\n      and\n      mul\n      or\n      swap1\n      sstore\n      pop\n      0x02\n      dup3\n      add\n      dup2\n      0x02\n      add\n      swap1\n      dup2\n      tag_245\n      swap2\n      swap1\n      tag_93\n      jump\t// in\n    tag_245:\n      pop\n      0x03\n      dup3\n      add\n      dup2\n      0x03\n      add\n      swap1\n      dup1\n      sload\n      tag_246\n      swap3\n      swap2\n      swap1\n      tag_247\n      jump\t// in\n    tag_246:\n      pop\n      swap1\n      pop\n      pop\n        /* \"SecondLife.sol\":2458:2461  Id2 */\n      0x07\n      0x00\n        /* \"SecondLife.sol\":2458:2463  Id2++ */\n      dup2\n      sload\n      dup1\n      swap3\n      swap2\n      swap1\n      tag_248\n      swap1\n      tag_98\n      jump\t// in\n    tag_248:\n      swap2\n      swap1\n      pop\n      sstore\n      pop\n        /* \"SecondLife.sol\":2003:2471  function HospitalReg(address hospitalsaddr,string memory _name) public {... */\n      pop\n      pop\n      jump\t// out\n    tag_86:\n      dup3\n      dup1\n      sload\n      dup3\n      dup3\n      sstore\n      swap1\n      0x00\n      mstore\n      keccak256(0x00, 0x20)\n      swap1\n      dup2\n      add\n      swap3\n      dup3\n      iszero\n      tag_249\n      jumpi\n      swap2\n      0x20\n      mul\n      dup3\n      add\n    tag_250:\n      dup3\n      dup2\n      gt\n      iszero\n      tag_251\n      jumpi\n      dup3\n      mload\n      dup3\n      swap1\n      dup2\n      tag_252\n      swap2\n      swap1\n      tag_84\n      jump\t// in\n    tag_252:\n      pop\n      swap2\n      0x20\n      add\n      swap2\n      swap1\n      0x01\n      add\n      swap1\n      jump(tag_250)\n    tag_251:\n    tag_249:\n      pop\n      swap1\n      pop\n      tag_253\n      swap2\n      swap1\n      tag_254\n      jump\t// in\n    tag_253:\n      pop\n      swap1\n      jump\t// out\n    tag_95:\n      dup3\n      dup1\n      sload\n      dup3\n      dup3\n      sstore\n      swap1\n      0x00\n      mstore\n      keccak256(0x00, 0x20)\n      swap1\n      dup2\n      add\n      swap3\n      dup3\n      iszero\n      tag_255\n      jumpi\n      0x00\n      mstore\n      keccak256(0x00, 0x20)\n      swap2\n      dup3\n      add\n    tag_256:\n      dup3\n      dup2\n      gt\n      iszero\n      tag_257\n      jumpi\n      dup3\n      dup3\n      swap1\n      dup2\n      tag_258\n      swap2\n      swap1\n      tag_93\n      jump\t// in\n    tag_258:\n      pop\n      swap2\n      0x01\n      add\n      swap2\n      swap1\n      0x01\n      add\n      swap1\n      jump(tag_256)\n    tag_257:\n    tag_255:\n      pop\n      swap1\n      pop\n      tag_259\n      swap2\n      swap1\n      tag_254\n      jump\t// in\n    tag_259:\n      pop\n      swap1\n      jump\t// out\n    tag_241:\n      dup3\n      dup1\n      sload\n      dup3\n      dup3\n      sstore\n      swap1\n      0x00\n      mstore\n      keccak256(0x00, 0x20)\n      swap1\n      dup2\n      add\n      swap3\n      dup3\n      iszero\n      tag_260\n      jumpi\n      swap2\n      0x20\n      mul\n      dup3\n      add\n    tag_261:\n      dup3\n      dup2\n      gt\n      iszero\n      tag_262\n      jumpi\n      dup3\n      mload\n      dup3\n      exp(0x0100, 0x00)\n      dup2\n      sload\n      dup2\n      0xffffffffffffffffffffffffffffffffffffffff\n      mul\n      not\n      and\n      swap1\n      dup4\n      0xffffffffffffffffffffffffffffffffffffffff\n      and\n      mul\n      or\n      swap1\n      sstore\n      pop\n      swap2\n      0x20\n      add\n      swap2\n      swap1\n      0x01\n      add\n      swap1\n      jump(tag_261)\n    tag_262:\n    tag_260:\n      pop\n      swap1\n      pop\n      tag_263\n      swap2\n      swap1\n      tag_264\n      jump\t// in\n    tag_263:\n      pop\n      swap1\n      jump\t// out\n    tag_247:\n      dup3\n      dup1\n      sload\n      dup3\n      dup3\n      sstore\n      swap1\n      0x00\n      mstore\n      keccak256(0x00, 0x20)\n      swap1\n      dup2\n      add\n      swap3\n      dup3\n      iszero\n      tag_265\n      jumpi\n      0x00\n      mstore\n      keccak256(0x00, 0x20)\n      swap2\n      dup3\n      add\n    tag_266:\n      dup3\n      dup2\n      gt\n      iszero\n      tag_267\n      jumpi\n      dup3\n      sload\n      dup3\n      sstore\n      swap2\n      0x01\n      add\n      swap2\n      swap1\n      0x01\n      add\n      swap1\n      jump(tag_266)\n    tag_267:\n    tag_265:\n      pop\n      swap1\n      pop\n      tag_268\n      swap2\n      swap1\n      tag_264\n      jump\t// in\n    tag_268:\n      pop\n      swap1\n      jump\t// out\n    tag_254:\n    tag_269:\n      dup1\n      dup3\n      gt\n      iszero\n      tag_270\n      jumpi\n      0x00\n      dup2\n      dup2\n      tag_271\n      swap2\n      swap1\n      tag_272\n      jump\t// in\n    tag_271:\n      pop\n      0x01\n      add\n      jump(tag_269)\n    tag_270:\n      pop\n      swap1\n      jump\t// out\n    tag_264:\n    tag_273:\n      dup1\n      dup3\n      gt\n      iszero\n      tag_274\n      jumpi\n      0x00\n      dup2\n      0x00\n      swap1\n      sstore\n      pop\n      0x01\n      add\n      jump(tag_273)\n    tag_274:\n      pop\n      swap1\n      jump\t// out\n    tag_272:\n      pop\n      dup1\n      sload\n      tag_275\n      swap1\n      tag_69\n      jump\t// in\n    tag_275:\n      0x00\n      dup3\n      sstore\n      dup1\n      0x1f\n      lt\n      tag_277\n      jumpi\n      pop\n      jump(tag_276)\n    tag_277:\n      0x1f\n      add\n      0x20\n      swap1\n      div\n      swap1\n      0x00\n      mstore\n      keccak256(0x00, 0x20)\n      swap1\n      dup2\n      add\n      swap1\n      tag_278\n      swap2\n      swap1\n      tag_264\n      jump\t// in\n    tag_278:\n    tag_276:\n      pop\n      jump\t// out\n        /* \"#utility.yul\":7:82   */\n    tag_279:\n        /* \"#utility.yul\":40:46   */\n      0x00\n        /* \"#utility.yul\":73:75   */\n      0x40\n        /* \"#utility.yul\":67:76   */\n      mload\n        /* \"#utility.yul\":57:76   */\n      swap1\n      pop\n        /* \"#utility.yul\":7:82   */\n      swap1\n      jump\t// out\n        /* \"#utility.yul\":88:205   */\n    tag_280:\n        /* \"#utility.yul\":197:198   */\n      0x00\n        /* \"#utility.yul\":194:195   */\n      dup1\n        /* \"#utility.yul\":187:199   */\n      revert\n        /* \"#utility.yul\":211:328   */\n    tag_281:\n        /* \"#utility.yul\":320:321   */\n      0x00\n        /* \"#utility.yul\":317:318   */\n      dup1\n        /* \"#utility.yul\":310:322   */\n      revert\n        /* \"#utility.yul\":334:451   */\n    tag_282:\n        /* \"#utility.yul\":443:444   */\n      0x00\n        /* \"#utility.yul\":440:441   */\n      dup1\n        /* \"#utility.yul\":433:445   */\n      revert\n        /* \"#utility.yul\":457:574   */\n    tag_283:\n        /* \"#utility.yul\":566:567   */\n      0x00\n        /* \"#utility.yul\":563:564   */\n      dup1\n        /* \"#utility.yul\":556:568   */\n      revert\n        /* \"#utility.yul\":580:682   */\n    tag_284:\n        /* \"#utility.yul\":621:627   */\n      0x00\n        /* \"#utility.yul\":672:674   */\n      0x1f\n        /* \"#utility.yul\":668:675   */\n      not\n        /* \"#utility.yul\":663:665   */\n      0x1f\n        /* \"#utility.yul\":656:661   */\n      dup4\n        /* \"#utility.yul\":652:666   */\n      add\n        /* \"#utility.yul\":648:676   */\n      and\n        /* \"#utility.yul\":638:676   */\n      swap1\n      pop\n        /* \"#utility.yul\":580:682   */\n      swap2\n      swap1\n      pop\n      jump\t// out\n        /* \"#utility.yul\":688:868   */\n    tag_285:\n        /* \"#utility.yul\":736:813   */\n      0x4e487b7100000000000000000000000000000000000000000000000000000000\n        /* \"#utility.yul\":733:734   */\n      0x00\n        /* \"#utility.yul\":726:814   */\n      mstore\n        /* \"#utility.yul\":833:837   */\n      0x41\n        /* \"#utility.yul\":830:831   */\n      0x04\n        /* \"#utility.yul\":823:838   */\n      mstore\n        /* \"#utility.yul\":857:861   */\n      0x24\n        /* \"#utility.yul\":854:855   */\n      0x00\n        /* \"#utility.yul\":847:862   */\n      revert\n        /* \"#utility.yul\":874:1155   */\n    tag_286:\n        /* \"#utility.yul\":957:984   */\n      tag_348\n        /* \"#utility.yul\":979:983   */\n      dup3\n        /* \"#utility.yul\":957:984   */\n      tag_284\n      jump\t// in\n    tag_348:\n        /* \"#utility.yul\":949:955   */\n      dup2\n        /* \"#utility.yul\":945:985   */\n      add\n        /* \"#utility.yul\":1087:1093   */\n      dup2\n        /* \"#utility.yul\":1075:1085   */\n      dup2\n        /* \"#utility.yul\":1072:1094   */\n      lt\n        /* \"#utility.yul\":1051:1069   */\n      0xffffffffffffffff\n        /* \"#utility.yul\":1039:1049   */\n      dup3\n        /* \"#utility.yul\":1036:1070   */\n      gt\n        /* \"#utility.yul\":1033:1095   */\n      or\n        /* \"#utility.yul\":1030:1118   */\n      iszero\n      tag_349\n      jumpi\n        /* \"#utility.yul\":1098:1116   */\n      tag_350\n      tag_285\n      jump\t// in\n    tag_350:\n        /* \"#utility.yul\":1030:1118   */\n    tag_349:\n        /* \"#utility.yul\":1138:1148   */\n      dup1\n        /* \"#utility.yul\":1134:1136   */\n      0x40\n        /* \"#utility.yul\":1127:1149   */\n      mstore\n        /* \"#utility.yul\":917:1155   */\n      pop\n        /* \"#utility.yul\":874:1155   */\n      pop\n      pop\n      jump\t// out\n        /* \"#utility.yul\":1161:1290   */\n    tag_287:\n        /* \"#utility.yul\":1195:1201   */\n      0x00\n        /* \"#utility.yul\":1222:1242   */\n      tag_352\n      tag_279\n      jump\t// in\n    tag_352:\n        /* \"#utility.yul\":1212:1242   */\n      swap1\n      pop\n        /* \"#utility.yul\":1251:1284   */\n      tag_353\n        /* \"#utility.yul\":1279:1283   */\n      dup3\n        /* \"#utility.yul\":1271:1277   */\n      dup3\n        /* \"#utility.yul\":1251:1284   */\n      tag_286\n      jump\t// in\n    tag_353:\n        /* \"#utility.yul\":1161:1290   */\n      swap2\n      swap1\n      pop\n      jump\t// out\n        /* \"#utility.yul\":1296:1604   */\n    tag_288:\n        /* \"#utility.yul\":1358:1362   */\n      0x00\n        /* \"#utility.yul\":1448:1466   */\n      0xffffffffffffffff\n        /* \"#utility.yul\":1440:1446   */\n      dup3\n        /* \"#utility.yul\":1437:1467   */\n      gt\n        /* \"#utility.yul\":1434:1490   */\n      iszero\n      tag_355\n      jumpi\n        /* \"#utility.yul\":1470:1488   */\n      tag_356\n      tag_285\n      jump\t// in\n    tag_356:\n        /* \"#utility.yul\":1434:1490   */\n    tag_355:\n        /* \"#utility.yul\":1508:1537   */\n      tag_357\n        /* \"#utility.yul\":1530:1536   */\n      dup3\n        /* \"#utility.yul\":1508:1537   */\n      tag_284\n      jump\t// in\n    tag_357:\n        /* \"#utility.yul\":1500:1537   */\n      swap1\n      pop\n        /* \"#utility.yul\":1592:1596   */\n      0x20\n        /* \"#utility.yul\":1586:1590   */\n      dup2\n        /* \"#utility.yul\":1582:1597   */\n      add\n        /* \"#utility.yul\":1574:1597   */\n      swap1\n      pop\n        /* \"#utility.yul\":1296:1604   */\n      swap2\n      swap1\n      pop\n      jump\t// out\n        /* \"#utility.yul\":1610:1756   */\n    tag_289:\n        /* \"#utility.yul\":1707:1713   */\n      dup3\n        /* \"#utility.yul\":1702:1705   */\n      dup2\n        /* \"#utility.yul\":1697:1700   */\n      dup4\n        /* \"#utility.yul\":1684:1714   */\n      calldatacopy\n        /* \"#utility.yul\":1748:1749   */\n      0x00\n        /* \"#utility.yul\":1739:1745   */\n      dup4\n        /* \"#utility.yul\":1734:1737   */\n      dup4\n        /* \"#utility.yul\":1730:1746   */\n      add\n        /* \"#utility.yul\":1723:1750   */\n      mstore\n        /* \"#utility.yul\":1610:1756   */\n      pop\n      pop\n      pop\n      jump\t// out\n        /* \"#utility.yul\":1762:2187   */\n    tag_290:\n        /* \"#utility.yul\":1840:1845   */\n      0x00\n        /* \"#utility.yul\":1865:1931   */\n      tag_360\n        /* \"#utility.yul\":1881:1930   */\n      tag_361\n        /* \"#utility.yul\":1923:1929   */\n      dup5\n        /* \"#utility.yul\":1881:1930   */\n      tag_288\n      jump\t// in\n    tag_361:\n        /* \"#utility.yul\":1865:1931   */\n      tag_287\n      jump\t// in\n    tag_360:\n        /* \"#utility.yul\":1856:1931   */\n      swap1\n      pop\n        /* \"#utility.yul\":1954:1960   */\n      dup3\n        /* \"#utility.yul\":1947:1952   */\n      dup2\n        /* \"#utility.yul\":1940:1961   */\n      mstore\n        /* \"#utility.yul\":1992:1996   */\n      0x20\n        /* \"#utility.yul\":1985:1990   */\n      dup2\n        /* \"#utility.yul\":1981:1997   */\n      add\n        /* \"#utility.yul\":2030:2033   */\n      dup5\n        /* \"#utility.yul\":2021:2027   */\n      dup5\n        /* \"#utility.yul\":2016:2019   */\n      dup5\n        /* \"#utility.yul\":2012:2028   */\n      add\n        /* \"#utility.yul\":2009:2034   */\n      gt\n        /* \"#utility.yul\":2006:2118   */\n      iszero\n      tag_362\n      jumpi\n        /* \"#utility.yul\":2037:2116   */\n      tag_363\n      tag_283\n      jump\t// in\n    tag_363:\n        /* \"#utility.yul\":2006:2118   */\n    tag_362:\n        /* \"#utility.yul\":2127:2181   */\n      tag_364\n        /* \"#utility.yul\":2174:2180   */\n      dup5\n        /* \"#utility.yul\":2169:2172   */\n      dup3\n        /* \"#utility.yul\":2164:2167   */\n      dup6\n        /* \"#utility.yul\":2127:2181   */\n      tag_289\n      jump\t// in\n    tag_364:\n        /* \"#utility.yul\":1846:2187   */\n      pop\n        /* \"#utility.yul\":1762:2187   */\n      swap4\n      swap3\n      pop\n      pop\n      pop\n      jump\t// out\n        /* \"#utility.yul\":2207:2547   */\n    tag_291:\n        /* \"#utility.yul\":2263:2268   */\n      0x00\n        /* \"#utility.yul\":2312:2315   */\n      dup3\n        /* \"#utility.yul\":2305:2309   */\n      0x1f\n        /* \"#utility.yul\":2297:2303   */\n      dup4\n        /* \"#utility.yul\":2293:2310   */\n      add\n        /* \"#utility.yul\":2289:2316   */\n      slt\n        /* \"#utility.yul\":2279:2401   */\n      tag_366\n      jumpi\n        /* \"#utility.yul\":2320:2399   */\n      tag_367\n      tag_282\n      jump\t// in\n    tag_367:\n        /* \"#utility.yul\":2279:2401   */\n    tag_366:\n        /* \"#utility.yul\":2437:2443   */\n      dup2\n        /* \"#utility.yul\":2424:2444   */\n      calldataload\n        /* \"#utility.yul\":2462:2541   */\n      tag_368\n        /* \"#utility.yul\":2537:2540   */\n      dup5\n        /* \"#utility.yul\":2529:2535   */\n      dup3\n        /* \"#utility.yul\":2522:2526   */\n      0x20\n        /* \"#utility.yul\":2514:2520   */\n      dup7\n        /* \"#utility.yul\":2510:2527   */\n      add\n        /* \"#utility.yul\":2462:2541   */\n      tag_290\n      jump\t// in\n    tag_368:\n        /* \"#utility.yul\":2453:2541   */\n      swap2\n      pop\n        /* \"#utility.yul\":2269:2547   */\n      pop\n        /* \"#utility.yul\":2207:2547   */\n      swap3\n      swap2\n      pop\n      pop\n      jump\t// out\n        /* \"#utility.yul\":2553:3062   */\n    tag_17:\n        /* \"#utility.yul\":2622:2628   */\n      0x00\n        /* \"#utility.yul\":2671:2673   */\n      0x20\n        /* \"#utility.yul\":2659:2668   */\n      dup3\n        /* \"#utility.yul\":2650:2657   */\n      dup5\n        /* \"#utility.yul\":2646:2669   */\n      sub\n        /* \"#utility.yul\":2642:2674   */\n      slt\n        /* \"#utility.yul\":2639:2758   */\n      iszero\n      tag_370\n      jumpi\n        /* \"#utility.yul\":2677:2756   */\n      tag_371\n      tag_280\n      jump\t// in\n    tag_371:\n        /* \"#utility.yul\":2639:2758   */\n    tag_370:\n        /* \"#utility.yul\":2825:2826   */\n      0x00\n        /* \"#utility.yul\":2814:2823   */\n      dup3\n        /* \"#utility.yul\":2810:2827   */\n      add\n        /* \"#utility.yul\":2797:2828   */\n      calldataload\n        /* \"#utility.yul\":2855:2873   */\n      0xffffffffffffffff\n        /* \"#utility.yul\":2847:2853   */\n      dup2\n        /* \"#utility.yul\":2844:2874   */\n      gt\n        /* \"#utility.yul\":2841:2958   */\n      iszero\n      tag_372\n      jumpi\n        /* \"#utility.yul\":2877:2956   */\n      tag_373\n      tag_281\n      jump\t// in\n    tag_373:\n        /* \"#utility.yul\":2841:2958   */\n    tag_372:\n        /* \"#utility.yul\":2982:3045   */\n      tag_374\n        /* \"#utility.yul\":3037:3044   */\n      dup5\n        /* \"#utility.yul\":3028:3034   */\n      dup3\n        /* \"#utility.yul\":3017:3026   */\n      dup6\n        /* \"#utility.yul\":3013:3035   */\n      add\n        /* \"#utility.yul\":2982:3045   */\n      tag_291\n      jump\t// in\n    tag_374:\n        /* \"#utility.yul\":2972:3045   */\n      swap2\n      pop\n        /* \"#utility.yul\":2768:3055   */\n      pop\n        /* \"#utility.yul\":2553:3062   */\n      swap3\n      swap2\n      pop\n      pop\n      jump\t// out\n        /* \"#utility.yul\":3068:3145   */\n    tag_292:\n        /* \"#utility.yul\":3105:3112   */\n      0x00\n        /* \"#utility.yul\":3134:3139   */\n      dup2\n        /* \"#utility.yul\":3123:3139   */\n      swap1\n      pop\n        /* \"#utility.yul\":3068:3145   */\n      swap2\n      swap1\n      pop\n      jump\t// out\n        /* \"#utility.yul\":3151:3273   */\n    tag_293:\n        /* \"#utility.yul\":3224:3248   */\n      tag_377\n        /* \"#utility.yul\":3242:3247   */\n      dup2\n        /* \"#utility.yul\":3224:3248   */\n      tag_292\n      jump\t// in\n    tag_377:\n        /* \"#utility.yul\":3217:3222   */\n      dup2\n        /* \"#utility.yul\":3214:3249   */\n      eq\n        /* \"#utility.yul\":3204:3267   */\n      tag_378\n      jumpi\n        /* \"#utility.yul\":3263:3264   */\n      0x00\n        /* \"#utility.yul\":3260:3261   */\n      dup1\n        /* \"#utility.yul\":3253:3265   */\n      revert\n        /* \"#utility.yul\":3204:3267   */\n    tag_378:\n        /* \"#utility.yul\":3151:3273   */\n      pop\n      jump\t// out\n        /* \"#utility.yul\":3279:3418   */\n    tag_294:\n        /* \"#utility.yul\":3325:3330   */\n      0x00\n        /* \"#utility.yul\":3363:3369   */\n      dup2\n        /* \"#utility.yul\":3350:3370   */\n      calldataload\n        /* \"#utility.yul\":3341:3370   */\n      swap1\n      pop\n        /* \"#utility.yul\":3379:3412   */\n      tag_380\n        /* \"#utility.yul\":3406:3411   */\n      dup2\n        /* \"#utility.yul\":3379:3412   */\n      tag_293\n      jump\t// in\n    tag_380:\n        /* \"#utility.yul\":3279:3418   */\n      swap3\n      swap2\n      pop\n      pop\n      jump\t// out\n        /* \"#utility.yul\":3424:3753   */\n    tag_21:\n        /* \"#utility.yul\":3483:3489   */\n      0x00\n        /* \"#utility.yul\":3532:3534   */\n      0x20\n        /* \"#utility.yul\":3520:3529   */\n      dup3\n        /* \"#utility.yul\":3511:3518   */\n      dup5\n        /* \"#utility.yul\":3507:3530   */\n      sub\n        /* \"#utility.yul\":3503:3535   */\n      slt\n        /* \"#utility.yul\":3500:3619   */\n      iszero\n      tag_382\n      jumpi\n        /* \"#utility.yul\":3538:3617   */\n      tag_383\n      tag_280\n      jump\t// in\n    tag_383:\n        /* \"#utility.yul\":3500:3619   */\n    tag_382:\n        /* \"#utility.yul\":3658:3659   */\n      0x00\n        /* \"#utility.yul\":3683:3736   */\n      tag_384\n        /* \"#utility.yul\":3728:3735   */\n      dup5\n        /* \"#utility.yul\":3719:3725   */\n      dup3\n        /* \"#utility.yul\":3708:3717   */\n      dup6\n        /* \"#utility.yul\":3704:3726   */\n      add\n        /* \"#utility.yul\":3683:3736   */\n      tag_294\n      jump\t// in\n    tag_384:\n        /* \"#utility.yul\":3673:3736   */\n      swap2\n      pop\n        /* \"#utility.yul\":3629:3746   */\n      pop\n        /* \"#utility.yul\":3424:3753   */\n      swap3\n      swap2\n      pop\n      pop\n      jump\t// out\n        /* \"#utility.yul\":3759:3877   */\n    tag_295:\n        /* \"#utility.yul\":3846:3870   */\n      tag_386\n        /* \"#utility.yul\":3864:3869   */\n      dup2\n        /* \"#utility.yul\":3846:3870   */\n      tag_292\n      jump\t// in\n    tag_386:\n        /* \"#utility.yul\":3841:3844   */\n      dup3\n        /* \"#utility.yul\":3834:3871   */\n      mstore\n        /* \"#utility.yul\":3759:3877   */\n      pop\n      pop\n      jump\t// out\n        /* \"#utility.yul\":3883:4009   */\n    tag_296:\n        /* \"#utility.yul\":3920:3927   */\n      0x00\n        /* \"#utility.yul\":3960:4002   */\n      0xffffffffffffffffffffffffffffffffffffffff\n        /* \"#utility.yul\":3953:3958   */\n      dup3\n        /* \"#utility.yul\":3949:4003   */\n      and\n        /* \"#utility.yul\":3938:4003   */\n      swap1\n      pop\n        /* \"#utility.yul\":3883:4009   */\n      swap2\n      swap1\n      pop\n      jump\t// out\n        /* \"#utility.yul\":4015:4111   */\n    tag_297:\n        /* \"#utility.yul\":4052:4059   */\n      0x00\n        /* \"#utility.yul\":4081:4105   */\n      tag_389\n        /* \"#utility.yul\":4099:4104   */\n      dup3\n        /* \"#utility.yul\":4081:4105   */\n      tag_296\n      jump\t// in\n    tag_389:\n        /* \"#utility.yul\":4070:4105   */\n      swap1\n      pop\n        /* \"#utility.yul\":4015:4111   */\n      swap2\n      swap1\n      pop\n      jump\t// out\n        /* \"#utility.yul\":4117:4235   */\n    tag_298:\n        /* \"#utility.yul\":4204:4228   */\n      tag_391\n        /* \"#utility.yul\":4222:4227   */\n      dup2\n        /* \"#utility.yul\":4204:4228   */\n      tag_297\n      jump\t// in\n    tag_391:\n        /* \"#utility.yul\":4199:4202   */\n      dup3\n        /* \"#utility.yul\":4192:4229   */\n      mstore\n        /* \"#utility.yul\":4117:4235   */\n      pop\n      pop\n      jump\t// out\n        /* \"#utility.yul\":4241:4340   */\n    tag_299:\n        /* \"#utility.yul\":4293:4299   */\n      0x00\n        /* \"#utility.yul\":4327:4332   */\n      dup2\n        /* \"#utility.yul\":4321:4333   */\n      mload\n        /* \"#utility.yul\":4311:4333   */\n      swap1\n      pop\n        /* \"#utility.yul\":4241:4340   */\n      swap2\n      swap1\n      pop\n      jump\t// out\n        /* \"#utility.yul\":4346:4515   */\n    tag_300:\n        /* \"#utility.yul\":4430:4441   */\n      0x00\n        /* \"#utility.yul\":4464:4470   */\n      dup3\n        /* \"#utility.yul\":4459:4462   */\n      dup3\n        /* \"#utility.yul\":4452:4471   */\n      mstore\n        /* \"#utility.yul\":4504:4508   */\n      0x20\n        /* \"#utility.yul\":4499:4502   */\n      dup3\n        /* \"#utility.yul\":4495:4509   */\n      add\n        /* \"#utility.yul\":4480:4509   */\n      swap1\n      pop\n        /* \"#utility.yul\":4346:4515   */\n      swap3\n      swap2\n      pop\n      pop\n      jump\t// out\n        /* \"#utility.yul\":4521:4767   */\n    tag_301:\n        /* \"#utility.yul\":4602:4603   */\n      0x00\n        /* \"#utility.yul\":4612:4725   */\n    tag_395:\n        /* \"#utility.yul\":4626:4632   */\n      dup4\n        /* \"#utility.yul\":4623:4624   */\n      dup2\n        /* \"#utility.yul\":4620:4633   */\n      lt\n        /* \"#utility.yul\":4612:4725   */\n      iszero\n      tag_397\n      jumpi\n        /* \"#utility.yul\":4711:4712   */\n      dup1\n        /* \"#utility.yul\":4706:4709   */\n      dup3\n        /* \"#utility.yul\":4702:4713   */\n      add\n        /* \"#utility.yul\":4696:4714   */\n      mload\n        /* \"#utility.yul\":4692:4693   */\n      dup2\n        /* \"#utility.yul\":4687:4690   */\n      dup5\n        /* \"#utility.yul\":4683:4694   */\n      add\n        /* \"#utility.yul\":4676:4715   */\n      mstore\n        /* \"#utility.yul\":4648:4650   */\n      0x20\n        /* \"#utility.yul\":4645:4646   */\n      dup2\n        /* \"#utility.yul\":4641:4651   */\n      add\n        /* \"#utility.yul\":4636:4651   */\n      swap1\n      pop\n        /* \"#utility.yul\":4612:4725   */\n      jump(tag_395)\n    tag_397:\n        /* \"#utility.yul\":4759:4760   */\n      0x00\n        /* \"#utility.yul\":4750:4756   */\n      dup5\n        /* \"#utility.yul\":4745:4748   */\n      dup5\n        /* \"#utility.yul\":4741:4757   */\n      add\n        /* \"#utility.yul\":4734:4761   */\n      mstore\n        /* \"#utility.yul\":4583:4767   */\n      pop\n        /* \"#utility.yul\":4521:4767   */\n      pop\n      pop\n      pop\n      jump\t// out\n        /* \"#utility.yul\":4773:5150   */\n    tag_302:\n        /* \"#utility.yul\":4861:4864   */\n      0x00\n        /* \"#utility.yul\":4889:4928   */\n      tag_399\n        /* \"#utility.yul\":4922:4927   */\n      dup3\n        /* \"#utility.yul\":4889:4928   */\n      tag_299\n      jump\t// in\n    tag_399:\n        /* \"#utility.yul\":4944:5015   */\n      tag_400\n        /* \"#utility.yul\":5008:5014   */\n      dup2\n        /* \"#utility.yul\":5003:5006   */\n      dup6\n        /* \"#utility.yul\":4944:5015   */\n      tag_300\n      jump\t// in\n    tag_400:\n        /* \"#utility.yul\":4937:5015   */\n      swap4\n      pop\n        /* \"#utility.yul\":5024:5089   */\n      tag_401\n        /* \"#utility.yul\":5082:5088   */\n      dup2\n        /* \"#utility.yul\":5077:5080   */\n      dup6\n        /* \"#utility.yul\":5070:5074   */\n      0x20\n        /* \"#utility.yul\":5063:5068   */\n      dup7\n        /* \"#utility.yul\":5059:5075   */\n      add\n        /* \"#utility.yul\":5024:5089   */\n      tag_301\n      jump\t// in\n    tag_401:\n        /* \"#utility.yul\":5114:5143   */\n      tag_402\n        /* \"#utility.yul\":5136:5142   */\n      dup2\n        /* \"#utility.yul\":5114:5143   */\n      tag_284\n      jump\t// in\n    tag_402:\n        /* \"#utility.yul\":5109:5112   */\n      dup5\n        /* \"#utility.yul\":5105:5144   */\n      add\n        /* \"#utility.yul\":5098:5144   */\n      swap2\n      pop\n        /* \"#utility.yul\":4865:5150   */\n      pop\n        /* \"#utility.yul\":4773:5150   */\n      swap3\n      swap2\n      pop\n      pop\n      jump\t// out\n        /* \"#utility.yul\":5156:5270   */\n    tag_303:\n        /* \"#utility.yul\":5223:5229   */\n      0x00\n        /* \"#utility.yul\":5257:5262   */\n      dup2\n        /* \"#utility.yul\":5251:5263   */\n      mload\n        /* \"#utility.yul\":5241:5263   */\n      swap1\n      pop\n        /* \"#utility.yul\":5156:5270   */\n      swap2\n      swap1\n      pop\n      jump\t// out\n        /* \"#utility.yul\":5276:5460   */\n    tag_304:\n        /* \"#utility.yul\":5375:5386   */\n      0x00\n        /* \"#utility.yul\":5409:5415   */\n      dup3\n        /* \"#utility.yul\":5404:5407   */\n      dup3\n        /* \"#utility.yul\":5397:5416   */\n      mstore\n        /* \"#utility.yul\":5449:5453   */\n      0x20\n        /* \"#utility.yul\":5444:5447   */\n      dup3\n        /* \"#utility.yul\":5440:5454   */\n      add\n        /* \"#utility.yul\":5425:5454   */\n      swap1\n      pop\n        /* \"#utility.yul\":5276:5460   */\n      swap3\n      swap2\n      pop\n      pop\n      jump\t// out\n        /* \"#utility.yul\":5466:5598   */\n    tag_305:\n        /* \"#utility.yul\":5533:5537   */\n      0x00\n        /* \"#utility.yul\":5556:5559   */\n      dup2\n        /* \"#utility.yul\":5548:5559   */\n      swap1\n      pop\n        /* \"#utility.yul\":5586:5590   */\n      0x20\n        /* \"#utility.yul\":5581:5584   */\n      dup3\n        /* \"#utility.yul\":5577:5591   */\n      add\n        /* \"#utility.yul\":5569:5591   */\n      swap1\n      pop\n        /* \"#utility.yul\":5466:5598   */\n      swap2\n      swap1\n      pop\n      jump\t// out\n        /* \"#utility.yul\":5604:5712   */\n    tag_306:\n        /* \"#utility.yul\":5681:5705   */\n      tag_407\n        /* \"#utility.yul\":5699:5704   */\n      dup2\n        /* \"#utility.yul\":5681:5705   */\n      tag_297\n      jump\t// in\n    tag_407:\n        /* \"#utility.yul\":5676:5679   */\n      dup3\n        /* \"#utility.yul\":5669:5706   */\n      mstore\n        /* \"#utility.yul\":5604:5712   */\n      pop\n      pop\n      jump\t// out\n        /* \"#utility.yul\":5718:5897   */\n    tag_307:\n        /* \"#utility.yul\":5787:5797   */\n      0x00\n        /* \"#utility.yul\":5808:5854   */\n      tag_409\n        /* \"#utility.yul\":5850:5853   */\n      dup4\n        /* \"#utility.yul\":5842:5848   */\n      dup4\n        /* \"#utility.yul\":5808:5854   */\n      tag_306\n      jump\t// in\n    tag_409:\n        /* \"#utility.yul\":5886:5890   */\n      0x20\n        /* \"#utility.yul\":5881:5884   */\n      dup4\n        /* \"#utility.yul\":5877:5891   */\n      add\n        /* \"#utility.yul\":5863:5891   */\n      swap1\n      pop\n        /* \"#utility.yul\":5718:5897   */\n      swap3\n      swap2\n      pop\n      pop\n      jump\t// out\n        /* \"#utility.yul\":5903:6016   */\n    tag_308:\n        /* \"#utility.yul\":5973:5977   */\n      0x00\n        /* \"#utility.yul\":6005:6009   */\n      0x20\n        /* \"#utility.yul\":6000:6003   */\n      dup3\n        /* \"#utility.yul\":5996:6010   */\n      add\n        /* \"#utility.yul\":5988:6010   */\n      swap1\n      pop\n        /* \"#utility.yul\":5903:6016   */\n      swap2\n      swap1\n      pop\n      jump\t// out\n        /* \"#utility.yul\":6052:6784   */\n    tag_309:\n        /* \"#utility.yul\":6171:6174   */\n      0x00\n        /* \"#utility.yul\":6200:6254   */\n      tag_412\n        /* \"#utility.yul\":6248:6253   */\n      dup3\n        /* \"#utility.yul\":6200:6254   */\n      tag_303\n      jump\t// in\n    tag_412:\n        /* \"#utility.yul\":6270:6356   */\n      tag_413\n        /* \"#utility.yul\":6349:6355   */\n      dup2\n        /* \"#utility.yul\":6344:6347   */\n      dup6\n        /* \"#utility.yul\":6270:6356   */\n      tag_304\n      jump\t// in\n    tag_413:\n        /* \"#utility.yul\":6263:6356   */\n      swap4\n      pop\n        /* \"#utility.yul\":6380:6436   */\n      tag_414\n        /* \"#utility.yul\":6430:6435   */\n      dup4\n        /* \"#utility.yul\":6380:6436   */\n      tag_305\n      jump\t// in\n    tag_414:\n        /* \"#utility.yul\":6459:6466   */\n      dup1\n        /* \"#utility.yul\":6490:6491   */\n      0x00\n        /* \"#utility.yul\":6475:6759   */\n    tag_415:\n        /* \"#utility.yul\":6500:6506   */\n      dup4\n        /* \"#utility.yul\":6497:6498   */\n      dup2\n        /* \"#utility.yul\":6494:6507   */\n      lt\n        /* \"#utility.yul\":6475:6759   */\n      iszero\n      tag_417\n      jumpi\n        /* \"#utility.yul\":6576:6582   */\n      dup2\n        /* \"#utility.yul\":6570:6583   */\n      mload\n        /* \"#utility.yul\":6603:6666   */\n      tag_418\n        /* \"#utility.yul\":6662:6665   */\n      dup9\n        /* \"#utility.yul\":6647:6660   */\n      dup3\n        /* \"#utility.yul\":6603:6666   */\n      tag_307\n      jump\t// in\n    tag_418:\n        /* \"#utility.yul\":6596:6666   */\n      swap8\n      pop\n        /* \"#utility.yul\":6689:6749   */\n      tag_419\n        /* \"#utility.yul\":6742:6748   */\n      dup4\n        /* \"#utility.yul\":6689:6749   */\n      tag_308\n      jump\t// in\n    tag_419:\n        /* \"#utility.yul\":6679:6749   */\n      swap3\n      pop\n        /* \"#utility.yul\":6535:6759   */\n      pop\n        /* \"#utility.yul\":6522:6523   */\n      0x01\n        /* \"#utility.yul\":6519:6520   */\n      dup2\n        /* \"#utility.yul\":6515:6524   */\n      add\n        /* \"#utility.yul\":6510:6524   */\n      swap1\n      pop\n        /* \"#utility.yul\":6475:6759   */\n      jump(tag_415)\n    tag_417:\n        /* \"#utility.yul\":6479:6493   */\n      pop\n        /* \"#utility.yul\":6775:6778   */\n      dup6\n        /* \"#utility.yul\":6768:6778   */\n      swap4\n      pop\n        /* \"#utility.yul\":6176:6784   */\n      pop\n      pop\n      pop\n        /* \"#utility.yul\":6052:6784   */\n      swap3\n      swap2\n      pop\n      pop\n      jump\t// out\n        /* \"#utility.yul\":6790:7585   */\n    tag_24:\n        /* \"#utility.yul\":7037:7041   */\n      0x00\n        /* \"#utility.yul\":7075:7078   */\n      0x80\n        /* \"#utility.yul\":7064:7073   */\n      dup3\n        /* \"#utility.yul\":7060:7079   */\n      add\n        /* \"#utility.yul\":7052:7079   */\n      swap1\n      pop\n        /* \"#utility.yul\":7089:7160   */\n      tag_421\n        /* \"#utility.yul\":7157:7158   */\n      0x00\n        /* \"#utility.yul\":7146:7155   */\n      dup4\n        /* \"#utility.yul\":7142:7159   */\n      add\n        /* \"#utility.yul\":7133:7139   */\n      dup8\n        /* \"#utility.yul\":7089:7160   */\n      tag_295\n      jump\t// in\n    tag_421:\n        /* \"#utility.yul\":7170:7242   */\n      tag_422\n        /* \"#utility.yul\":7238:7240   */\n      0x20\n        /* \"#utility.yul\":7227:7236   */\n      dup4\n        /* \"#utility.yul\":7223:7241   */\n      add\n        /* \"#utility.yul\":7214:7220   */\n      dup7\n        /* \"#utility.yul\":7170:7242   */\n      tag_298\n      jump\t// in\n    tag_422:\n        /* \"#utility.yul\":7289:7298   */\n      dup2\n        /* \"#utility.yul\":7283:7287   */\n      dup2\n        /* \"#utility.yul\":7279:7299   */\n      sub\n        /* \"#utility.yul\":7274:7276   */\n      0x40\n        /* \"#utility.yul\":7263:7272   */\n      dup4\n        /* \"#utility.yul\":7259:7277   */\n      add\n        /* \"#utility.yul\":7252:7300   */\n      mstore\n        /* \"#utility.yul\":7317:7395   */\n      tag_423\n        /* \"#utility.yul\":7390:7394   */\n      dup2\n        /* \"#utility.yul\":7381:7387   */\n      dup6\n        /* \"#utility.yul\":7317:7395   */\n      tag_302\n      jump\t// in\n    tag_423:\n        /* \"#utility.yul\":7309:7395   */\n      swap1\n      pop\n        /* \"#utility.yul\":7442:7451   */\n      dup2\n        /* \"#utility.yul\":7436:7440   */\n      dup2\n        /* \"#utility.yul\":7432:7452   */\n      sub\n        /* \"#utility.yul\":7427:7429   */\n      0x60\n        /* \"#utility.yul\":7416:7425   */\n      dup4\n        /* \"#utility.yul\":7412:7430   */\n      add\n        /* \"#utility.yul\":7405:7453   */\n      mstore\n        /* \"#utility.yul\":7470:7578   */\n      tag_424\n        /* \"#utility.yul\":7573:7577   */\n      dup2\n        /* \"#utility.yul\":7564:7570   */\n      dup5\n        /* \"#utility.yul\":7470:7578   */\n      tag_309\n      jump\t// in\n    tag_424:\n        /* \"#utility.yul\":7462:7578   */\n      swap1\n      pop\n        /* \"#utility.yul\":6790:7585   */\n      swap6\n      swap5\n      pop\n      pop\n      pop\n      pop\n      pop\n      jump\t// out\n        /* \"#utility.yul\":7591:7713   */\n    tag_310:\n        /* \"#utility.yul\":7664:7688   */\n      tag_426\n        /* \"#utility.yul\":7682:7687   */\n      dup2\n        /* \"#utility.yul\":7664:7688   */\n      tag_297\n      jump\t// in\n    tag_426:\n        /* \"#utility.yul\":7657:7662   */\n      dup2\n        /* \"#utility.yul\":7654:7689   */\n      eq\n        /* \"#utility.yul\":7644:7707   */\n      tag_427\n      jumpi\n        /* \"#utility.yul\":7703:7704   */\n      0x00\n        /* \"#utility.yul\":7700:7701   */\n      dup1\n        /* \"#utility.yul\":7693:7705   */\n      revert\n        /* \"#utility.yul\":7644:7707   */\n    tag_427:\n        /* \"#utility.yul\":7591:7713   */\n      pop\n      jump\t// out\n        /* \"#utility.yul\":7719:7858   */\n    tag_311:\n        /* \"#utility.yul\":7765:7770   */\n      0x00\n        /* \"#utility.yul\":7803:7809   */\n      dup2\n        /* \"#utility.yul\":7790:7810   */\n      calldataload\n        /* \"#utility.yul\":7781:7810   */\n      swap1\n      pop\n        /* \"#utility.yul\":7819:7852   */\n      tag_429\n        /* \"#utility.yul\":7846:7851   */\n      dup2\n        /* \"#utility.yul\":7819:7852   */\n      tag_310\n      jump\t// in\n    tag_429:\n        /* \"#utility.yul\":7719:7858   */\n      swap3\n      swap2\n      pop\n      pop\n      jump\t// out\n        /* \"#utility.yul\":7864:8193   */\n    tag_27:\n        /* \"#utility.yul\":7923:7929   */\n      0x00\n        /* \"#utility.yul\":7972:7974   */\n      0x20\n        /* \"#utility.yul\":7960:7969   */\n      dup3\n        /* \"#utility.yul\":7951:7958   */\n      dup5\n        /* \"#utility.yul\":7947:7970   */\n      sub\n        /* \"#utility.yul\":7943:7975   */\n      slt\n        /* \"#utility.yul\":7940:8059   */\n      iszero\n      tag_431\n      jumpi\n        /* \"#utility.yul\":7978:8057   */\n      tag_432\n      tag_280\n      jump\t// in\n    tag_432:\n        /* \"#utility.yul\":7940:8059   */\n    tag_431:\n        /* \"#utility.yul\":8098:8099   */\n      0x00\n        /* \"#utility.yul\":8123:8176   */\n      tag_433\n        /* \"#utility.yul\":8168:8175   */\n      dup5\n        /* \"#utility.yul\":8159:8165   */\n      dup3\n        /* \"#utility.yul\":8148:8157   */\n      dup6\n        /* \"#utility.yul\":8144:8166   */\n      add\n        /* \"#utility.yul\":8123:8176   */\n      tag_311\n      jump\t// in\n    tag_433:\n        /* \"#utility.yul\":8113:8176   */\n      swap2\n      pop\n        /* \"#utility.yul\":8069:8186   */\n      pop\n        /* \"#utility.yul\":7864:8193   */\n      swap3\n      swap2\n      pop\n      pop\n      jump\t// out\n        /* \"#utility.yul\":8199:8843   */\n    tag_33:\n        /* \"#utility.yul\":8396:8400   */\n      0x00\n        /* \"#utility.yul\":8434:8437   */\n      0x80\n        /* \"#utility.yul\":8423:8432   */\n      dup3\n        /* \"#utility.yul\":8419:8438   */\n      add\n        /* \"#utility.yul\":8411:8438   */\n      swap1\n      pop\n        /* \"#utility.yul\":8448:8519   */\n      tag_435\n        /* \"#utility.yul\":8516:8517   */\n      0x00\n        /* \"#utility.yul\":8505:8514   */\n      dup4\n        /* \"#utility.yul\":8501:8518   */\n      add\n        /* \"#utility.yul\":8492:8498   */\n      dup8\n        /* \"#utility.yul\":8448:8519   */\n      tag_295\n      jump\t// in\n    tag_435:\n        /* \"#utility.yul\":8566:8575   */\n      dup2\n        /* \"#utility.yul\":8560:8564   */\n      dup2\n        /* \"#utility.yul\":8556:8576   */\n      sub\n        /* \"#utility.yul\":8551:8553   */\n      0x20\n        /* \"#utility.yul\":8540:8549   */\n      dup4\n        /* \"#utility.yul\":8536:8554   */\n      add\n        /* \"#utility.yul\":8529:8577   */\n      mstore\n        /* \"#utility.yul\":8594:8672   */\n      tag_436\n        /* \"#utility.yul\":8667:8671   */\n      dup2\n        /* \"#utility.yul\":8658:8664   */\n      dup7\n        /* \"#utility.yul\":8594:8672   */\n      tag_302\n      jump\t// in\n    tag_436:\n        /* \"#utility.yul\":8586:8672   */\n      swap1\n      pop\n        /* \"#utility.yul\":8682:8754   */\n      tag_437\n        /* \"#utility.yul\":8750:8752   */\n      0x40\n        /* \"#utility.yul\":8739:8748   */\n      dup4\n        /* \"#utility.yul\":8735:8753   */\n      add\n        /* \"#utility.yul\":8726:8732   */\n      dup6\n        /* \"#utility.yul\":8682:8754   */\n      tag_298\n      jump\t// in\n    tag_437:\n        /* \"#utility.yul\":8764:8836   */\n      tag_438\n        /* \"#utility.yul\":8832:8834   */\n      0x60\n        /* \"#utility.yul\":8821:8830   */\n      dup4\n        /* \"#utility.yul\":8817:8835   */\n      add\n        /* \"#utility.yul\":8808:8814   */\n      dup5\n        /* \"#utility.yul\":8764:8836   */\n      tag_298\n      jump\t// in\n    tag_438:\n        /* \"#utility.yul\":8199:8843   */\n      swap6\n      swap5\n      pop\n      pop\n      pop\n      pop\n      pop\n      jump\t// out\n        /* \"#utility.yul\":8849:8939   */\n    tag_312:\n        /* \"#utility.yul\":8883:8890   */\n      0x00\n        /* \"#utility.yul\":8926:8931   */\n      dup2\n        /* \"#utility.yul\":8919:8932   */\n      iszero\n        /* \"#utility.yul\":8912:8933   */\n      iszero\n        /* \"#utility.yul\":8901:8933   */\n      swap1\n      pop\n        /* \"#utility.yul\":8849:8939   */\n      swap2\n      swap1\n      pop\n      jump\t// out\n        /* \"#utility.yul\":8945:9061   */\n    tag_313:\n        /* \"#utility.yul\":9015:9036   */\n      tag_441\n        /* \"#utility.yul\":9030:9035   */\n      dup2\n        /* \"#utility.yul\":9015:9036   */\n      tag_312\n      jump\t// in\n    tag_441:\n        /* \"#utility.yul\":9008:9013   */\n      dup2\n        /* \"#utility.yul\":9005:9037   */\n      eq\n        /* \"#utility.yul\":8995:9055   */\n      tag_442\n      jumpi\n        /* \"#utility.yul\":9051:9052   */\n      0x00\n        /* \"#utility.yul\":9048:9049   */\n      dup1\n        /* \"#utility.yul\":9041:9053   */\n      revert\n        /* \"#utility.yul\":8995:9055   */\n    tag_442:\n        /* \"#utility.yul\":8945:9061   */\n      pop\n      jump\t// out\n        /* \"#utility.yul\":9067:9200   */\n    tag_314:\n        /* \"#utility.yul\":9110:9115   */\n      0x00\n        /* \"#utility.yul\":9148:9154   */\n      dup2\n        /* \"#utility.yul\":9135:9155   */\n      calldataload\n        /* \"#utility.yul\":9126:9155   */\n      swap1\n      pop\n        /* \"#utility.yul\":9164:9194   */\n      tag_444\n        /* \"#utility.yul\":9188:9193   */\n      dup2\n        /* \"#utility.yul\":9164:9194   */\n      tag_313\n      jump\t// in\n    tag_444:\n        /* \"#utility.yul\":9067:9200   */\n      swap3\n      swap2\n      pop\n      pop\n      jump\t// out\n        /* \"#utility.yul\":9206:10757   */\n    tag_36:\n        /* \"#utility.yul\":9333:9339   */\n      0x00\n        /* \"#utility.yul\":9341:9347   */\n      dup1\n        /* \"#utility.yul\":9349:9355   */\n      0x00\n        /* \"#utility.yul\":9357:9363   */\n      dup1\n        /* \"#utility.yul\":9365:9371   */\n      0x00\n        /* \"#utility.yul\":9373:9379   */\n      dup1\n        /* \"#utility.yul\":9381:9387   */\n      0x00\n        /* \"#utility.yul\":9430:9433   */\n      0xe0\n        /* \"#utility.yul\":9418:9427   */\n      dup9\n        /* \"#utility.yul\":9409:9416   */\n      dup11\n        /* \"#utility.yul\":9405:9428   */\n      sub\n        /* \"#utility.yul\":9401:9434   */\n      slt\n        /* \"#utility.yul\":9398:9518   */\n      iszero\n      tag_446\n      jumpi\n        /* \"#utility.yul\":9437:9516   */\n      tag_447\n      tag_280\n      jump\t// in\n    tag_447:\n        /* \"#utility.yul\":9398:9518   */\n    tag_446:\n        /* \"#utility.yul\":9557:9558   */\n      0x00\n        /* \"#utility.yul\":9582:9635   */\n      tag_448\n        /* \"#utility.yul\":9627:9634   */\n      dup11\n        /* \"#utility.yul\":9618:9624   */\n      dup3\n        /* \"#utility.yul\":9607:9616   */\n      dup12\n        /* \"#utility.yul\":9603:9625   */\n      add\n        /* \"#utility.yul\":9582:9635   */\n      tag_294\n      jump\t// in\n    tag_448:\n        /* \"#utility.yul\":9572:9635   */\n      swap8\n      pop\n        /* \"#utility.yul\":9528:9645   */\n      pop\n        /* \"#utility.yul\":9684:9686   */\n      0x20\n        /* \"#utility.yul\":9710:9763   */\n      tag_449\n        /* \"#utility.yul\":9755:9762   */\n      dup11\n        /* \"#utility.yul\":9746:9752   */\n      dup3\n        /* \"#utility.yul\":9735:9744   */\n      dup12\n        /* \"#utility.yul\":9731:9753   */\n      add\n        /* \"#utility.yul\":9710:9763   */\n      tag_294\n      jump\t// in\n    tag_449:\n        /* \"#utility.yul\":9700:9763   */\n      swap7\n      pop\n        /* \"#utility.yul\":9655:9773   */\n      pop\n        /* \"#utility.yul\":9812:9814   */\n      0x40\n        /* \"#utility.yul\":9838:9888   */\n      tag_450\n        /* \"#utility.yul\":9880:9887   */\n      dup11\n        /* \"#utility.yul\":9871:9877   */\n      dup3\n        /* \"#utility.yul\":9860:9869   */\n      dup12\n        /* \"#utility.yul\":9856:9878   */\n      add\n        /* \"#utility.yul\":9838:9888   */\n      tag_314\n      jump\t// in\n    tag_450:\n        /* \"#utility.yul\":9828:9888   */\n      swap6\n      pop\n        /* \"#utility.yul\":9783:9898   */\n      pop\n        /* \"#utility.yul\":9937:9939   */\n      0x60\n        /* \"#utility.yul\":9963:10013   */\n      tag_451\n        /* \"#utility.yul\":10005:10012   */\n      dup11\n        /* \"#utility.yul\":9996:10002   */\n      dup3\n        /* \"#utility.yul\":9985:9994   */\n      dup12\n        /* \"#utility.yul\":9981:10003   */\n      add\n        /* \"#utility.yul\":9963:10013   */\n      tag_314\n      jump\t// in\n    tag_451:\n        /* \"#utility.yul\":9953:10013   */\n      swap5\n      pop\n        /* \"#utility.yul\":9908:10023   */\n      pop\n        /* \"#utility.yul\":10062:10065   */\n      0x80\n        /* \"#utility.yul\":10089:10142   */\n      tag_452\n        /* \"#utility.yul\":10134:10141   */\n      dup11\n        /* \"#utility.yul\":10125:10131   */\n      dup3\n        /* \"#utility.yul\":10114:10123   */\n      dup12\n        /* \"#utility.yul\":10110:10132   */\n      add\n        /* \"#utility.yul\":10089:10142   */\n      tag_294\n      jump\t// in\n    tag_452:\n        /* \"#utility.yul\":10079:10142   */\n      swap4\n      pop\n        /* \"#utility.yul\":10033:10152   */\n      pop\n        /* \"#utility.yul\":10219:10222   */\n      0xa0\n        /* \"#utility.yul\":10208:10217   */\n      dup9\n        /* \"#utility.yul\":10204:10223   */\n      add\n        /* \"#utility.yul\":10191:10224   */\n      calldataload\n        /* \"#utility.yul\":10251:10269   */\n      0xffffffffffffffff\n        /* \"#utility.yul\":10243:10249   */\n      dup2\n        /* \"#utility.yul\":10240:10270   */\n      gt\n        /* \"#utility.yul\":10237:10354   */\n      iszero\n      tag_453\n      jumpi\n        /* \"#utility.yul\":10273:10352   */\n      tag_454\n      tag_281\n      jump\t// in\n    tag_454:\n        /* \"#utility.yul\":10237:10354   */\n    tag_453:\n        /* \"#utility.yul\":10378:10441   */\n      tag_455\n        /* \"#utility.yul\":10433:10440   */\n      dup11\n        /* \"#utility.yul\":10424:10430   */\n      dup3\n        /* \"#utility.yul\":10413:10422   */\n      dup12\n        /* \"#utility.yul\":10409:10431   */\n      add\n        /* \"#utility.yul\":10378:10441   */\n      tag_291\n      jump\t// in\n    tag_455:\n        /* \"#utility.yul\":10368:10441   */\n      swap3\n      pop\n        /* \"#utility.yul\":10162:10451   */\n      pop\n        /* \"#utility.yul\":10518:10521   */\n      0xc0\n        /* \"#utility.yul\":10507:10516   */\n      dup9\n        /* \"#utility.yul\":10503:10522   */\n      add\n        /* \"#utility.yul\":10490:10523   */\n      calldataload\n        /* \"#utility.yul\":10550:10568   */\n      0xffffffffffffffff\n        /* \"#utility.yul\":10542:10548   */\n      dup2\n        /* \"#utility.yul\":10539:10569   */\n      gt\n        /* \"#utility.yul\":10536:10653   */\n      iszero\n      tag_456\n      jumpi\n        /* \"#utility.yul\":10572:10651   */\n      tag_457\n      tag_281\n      jump\t// in\n    tag_457:\n        /* \"#utility.yul\":10536:10653   */\n    tag_456:\n        /* \"#utility.yul\":10677:10740   */\n      tag_458\n        /* \"#utility.yul\":10732:10739   */\n      dup11\n        /* \"#utility.yul\":10723:10729   */\n      dup3\n        /* \"#utility.yul\":10712:10721   */\n      dup12\n        /* \"#utility.yul\":10708:10730   */\n      add\n        /* \"#utility.yul\":10677:10740   */\n      tag_291\n      jump\t// in\n    tag_458:\n        /* \"#utility.yul\":10667:10740   */\n      swap2\n      pop\n        /* \"#utility.yul\":10461:10750   */\n      pop\n        /* \"#utility.yul\":9206:10757   */\n      swap3\n      swap6\n      swap9\n      swap2\n      swap5\n      swap8\n      pop\n      swap3\n      swap6\n      pop\n      jump\t// out\n        /* \"#utility.yul\":10763:11296   */\n    tag_42:\n        /* \"#utility.yul\":10932:10936   */\n      0x00\n        /* \"#utility.yul\":10970:10972   */\n      0x60\n        /* \"#utility.yul\":10959:10968   */\n      dup3\n        /* \"#utility.yul\":10955:10973   */\n      add\n        /* \"#utility.yul\":10947:10973   */\n      swap1\n      pop\n        /* \"#utility.yul\":10983:11054   */\n      tag_460\n        /* \"#utility.yul\":11051:11052   */\n      0x00\n        /* \"#utility.yul\":11040:11049   */\n      dup4\n        /* \"#utility.yul\":11036:11053   */\n      add\n        /* \"#utility.yul\":11027:11033   */\n      dup7\n        /* \"#utility.yul\":10983:11054   */\n      tag_295\n      jump\t// in\n    tag_460:\n        /* \"#utility.yul\":11064:11136   */\n      tag_461\n        /* \"#utility.yul\":11132:11134   */\n      0x20\n        /* \"#utility.yul\":11121:11130   */\n      dup4\n        /* \"#utility.yul\":11117:11135   */\n      add\n        /* \"#utility.yul\":11108:11114   */\n      dup6\n        /* \"#utility.yul\":11064:11136   */\n      tag_298\n      jump\t// in\n    tag_461:\n        /* \"#utility.yul\":11183:11192   */\n      dup2\n        /* \"#utility.yul\":11177:11181   */\n      dup2\n        /* \"#utility.yul\":11173:11193   */\n      sub\n        /* \"#utility.yul\":11168:11170   */\n      0x40\n        /* \"#utility.yul\":11157:11166   */\n      dup4\n        /* \"#utility.yul\":11153:11171   */\n      add\n        /* \"#utility.yul\":11146:11194   */\n      mstore\n        /* \"#utility.yul\":11211:11289   */\n      tag_462\n        /* \"#utility.yul\":11284:11288   */\n      dup2\n        /* \"#utility.yul\":11275:11281   */\n      dup5\n        /* \"#utility.yul\":11211:11289   */\n      tag_302\n      jump\t// in\n    tag_462:\n        /* \"#utility.yul\":11203:11289   */\n      swap1\n      pop\n        /* \"#utility.yul\":10763:11296   */\n      swap5\n      swap4\n      pop\n      pop\n      pop\n      pop\n      jump\t// out\n        /* \"#utility.yul\":11302:11946   */\n    tag_59:\n        /* \"#utility.yul\":11499:11503   */\n      0x00\n        /* \"#utility.yul\":11537:11540   */\n      0x80\n        /* \"#utility.yul\":11526:11535   */\n      dup3\n        /* \"#utility.yul\":11522:11541   */\n      add\n        /* \"#utility.yul\":11514:11541   */\n      swap1\n      pop\n        /* \"#utility.yul\":11587:11596   */\n      dup2\n        /* \"#utility.yul\":11581:11585   */\n      dup2\n        /* \"#utility.yul\":11577:11597   */\n      sub\n        /* \"#utility.yul\":11573:11574   */\n      0x00\n        /* \"#utility.yul\":11562:11571   */\n      dup4\n        /* \"#utility.yul\":11558:11575   */\n      add\n        /* \"#utility.yul\":11551:11598   */\n      mstore\n        /* \"#utility.yul\":11615:11693   */\n      tag_464\n        /* \"#utility.yul\":11688:11692   */\n      dup2\n        /* \"#utility.yul\":11679:11685   */\n      dup8\n        /* \"#utility.yul\":11615:11693   */\n      tag_302\n      jump\t// in\n    tag_464:\n        /* \"#utility.yul\":11607:11693   */\n      swap1\n      pop\n        /* \"#utility.yul\":11703:11775   */\n      tag_465\n        /* \"#utility.yul\":11771:11773   */\n      0x20\n        /* \"#utility.yul\":11760:11769   */\n      dup4\n        /* \"#utility.yul\":11756:11774   */\n      add\n        /* \"#utility.yul\":11747:11753   */\n      dup7\n        /* \"#utility.yul\":11703:11775   */\n      tag_295\n      jump\t// in\n    tag_465:\n        /* \"#utility.yul\":11785:11857   */\n      tag_466\n        /* \"#utility.yul\":11853:11855   */\n      0x40\n        /* \"#utility.yul\":11842:11851   */\n      dup4\n        /* \"#utility.yul\":11838:11856   */\n      add\n        /* \"#utility.yul\":11829:11835   */\n      dup6\n        /* \"#utility.yul\":11785:11857   */\n      tag_298\n      jump\t// in\n    tag_466:\n        /* \"#utility.yul\":11867:11939   */\n      tag_467\n        /* \"#utility.yul\":11935:11937   */\n      0x60\n        /* \"#utility.yul\":11924:11933   */\n      dup4\n        /* \"#utility.yul\":11920:11938   */\n      add\n        /* \"#utility.yul\":11911:11917   */\n      dup5\n        /* \"#utility.yul\":11867:11939   */\n      tag_298\n      jump\t// in\n    tag_467:\n        /* \"#utility.yul\":11302:11946   */\n      swap6\n      swap5\n      pop\n      pop\n      pop\n      pop\n      pop\n      jump\t// out\n        /* \"#utility.yul\":11952:12606   */\n    tag_62:\n        /* \"#utility.yul\":12030:12036   */\n      0x00\n        /* \"#utility.yul\":12038:12044   */\n      dup1\n        /* \"#utility.yul\":12087:12089   */\n      0x40\n        /* \"#utility.yul\":12075:12084   */\n      dup4\n        /* \"#utility.yul\":12066:12073   */\n      dup6\n        /* \"#utility.yul\":12062:12085   */\n      sub\n        /* \"#utility.yul\":12058:12090   */\n      slt\n        /* \"#utility.yul\":12055:12174   */\n      iszero\n      tag_469\n      jumpi\n        /* \"#utility.yul\":12093:12172   */\n      tag_470\n      tag_280\n      jump\t// in\n    tag_470:\n        /* \"#utility.yul\":12055:12174   */\n    tag_469:\n        /* \"#utility.yul\":12213:12214   */\n      0x00\n        /* \"#utility.yul\":12238:12291   */\n      tag_471\n        /* \"#utility.yul\":12283:12290   */\n      dup6\n        /* \"#utility.yul\":12274:12280   */\n      dup3\n        /* \"#utility.yul\":12263:12272   */\n      dup7\n        /* \"#utility.yul\":12259:12281   */\n      add\n        /* \"#utility.yul\":12238:12291   */\n      tag_311\n      jump\t// in\n    tag_471:\n        /* \"#utility.yul\":12228:12291   */\n      swap3\n      pop\n        /* \"#utility.yul\":12184:12301   */\n      pop\n        /* \"#utility.yul\":12368:12370   */\n      0x20\n        /* \"#utility.yul\":12357:12366   */\n      dup4\n        /* \"#utility.yul\":12353:12371   */\n      add\n        /* \"#utility.yul\":12340:12372   */\n      calldataload\n        /* \"#utility.yul\":12399:12417   */\n      0xffffffffffffffff\n        /* \"#utility.yul\":12391:12397   */\n      dup2\n        /* \"#utility.yul\":12388:12418   */\n      gt\n        /* \"#utility.yul\":12385:12502   */\n      iszero\n      tag_472\n      jumpi\n        /* \"#utility.yul\":12421:12500   */\n      tag_473\n      tag_281\n      jump\t// in\n    tag_473:\n        /* \"#utility.yul\":12385:12502   */\n    tag_472:\n        /* \"#utility.yul\":12526:12589   */\n      tag_474\n        /* \"#utility.yul\":12581:12588   */\n      dup6\n        /* \"#utility.yul\":12572:12578   */\n      dup3\n        /* \"#utility.yul\":12561:12570   */\n      dup7\n        /* \"#utility.yul\":12557:12579   */\n      add\n        /* \"#utility.yul\":12526:12589   */\n      tag_291\n      jump\t// in\n    tag_474:\n        /* \"#utility.yul\":12516:12589   */\n      swap2\n      pop\n        /* \"#utility.yul\":12311:12599   */\n      pop\n        /* \"#utility.yul\":11952:12606   */\n      swap3\n      pop\n      swap3\n      swap1\n      pop\n      jump\t// out\n        /* \"#utility.yul\":12612:12792   */\n    tag_315:\n        /* \"#utility.yul\":12660:12737   */\n      0x4e487b7100000000000000000000000000000000000000000000000000000000\n        /* \"#utility.yul\":12657:12658   */\n      0x00\n        /* \"#utility.yul\":12650:12738   */\n      mstore\n        /* \"#utility.yul\":12757:12761   */\n      0x22\n        /* \"#utility.yul\":12754:12755   */\n      0x04\n        /* \"#utility.yul\":12747:12762   */\n      mstore\n        /* \"#utility.yul\":12781:12785   */\n      0x24\n        /* \"#utility.yul\":12778:12779   */\n      0x00\n        /* \"#utility.yul\":12771:12786   */\n      revert\n        /* \"#utility.yul\":12798:13118   */\n    tag_69:\n        /* \"#utility.yul\":12842:12848   */\n      0x00\n        /* \"#utility.yul\":12879:12880   */\n      0x02\n        /* \"#utility.yul\":12873:12877   */\n      dup3\n        /* \"#utility.yul\":12869:12881   */\n      div\n        /* \"#utility.yul\":12859:12881   */\n      swap1\n      pop\n        /* \"#utility.yul\":12926:12927   */\n      0x01\n        /* \"#utility.yul\":12920:12924   */\n      dup3\n        /* \"#utility.yul\":12916:12928   */\n      and\n        /* \"#utility.yul\":12947:12965   */\n      dup1\n        /* \"#utility.yul\":12937:13018   */\n      tag_477\n      jumpi\n        /* \"#utility.yul\":13003:13007   */\n      0x7f\n        /* \"#utility.yul\":12995:13001   */\n      dup3\n        /* \"#utility.yul\":12991:13008   */\n      and\n        /* \"#utility.yul\":12981:13008   */\n      swap2\n      pop\n        /* \"#utility.yul\":12937:13018   */\n    tag_477:\n        /* \"#utility.yul\":13065:13067   */\n      0x20\n        /* \"#utility.yul\":13057:13063   */\n      dup3\n        /* \"#utility.yul\":13054:13068   */\n      lt\n        /* \"#utility.yul\":13034:13052   */\n      dup2\n        /* \"#utility.yul\":13031:13069   */\n      sub\n        /* \"#utility.yul\":13028:13112   */\n      tag_478\n      jumpi\n        /* \"#utility.yul\":13084:13102   */\n      tag_479\n      tag_315\n      jump\t// in\n    tag_479:\n        /* \"#utility.yul\":13028:13112   */\n    tag_478:\n        /* \"#utility.yul\":12849:13118   */\n      pop\n        /* \"#utility.yul\":12798:13118   */\n      swap2\n      swap1\n      pop\n      jump\t// out\n        /* \"#utility.yul\":13124:13265   */\n    tag_316:\n        /* \"#utility.yul\":13173:13177   */\n      0x00\n        /* \"#utility.yul\":13196:13199   */\n      dup2\n        /* \"#utility.yul\":13188:13199   */\n      swap1\n      pop\n        /* \"#utility.yul\":13219:13222   */\n      dup2\n        /* \"#utility.yul\":13216:13217   */\n      0x00\n        /* \"#utility.yul\":13209:13223   */\n      mstore\n        /* \"#utility.yul\":13253:13257   */\n      0x20\n        /* \"#utility.yul\":13250:13251   */\n      0x00\n        /* \"#utility.yul\":13240:13258   */\n      keccak256\n        /* \"#utility.yul\":13232:13258   */\n      swap1\n      pop\n        /* \"#utility.yul\":13124:13265   */\n      swap2\n      swap1\n      pop\n      jump\t// out\n        /* \"#utility.yul\":13271:13364   */\n    tag_317:\n        /* \"#utility.yul\":13308:13314   */\n      0x00\n        /* \"#utility.yul\":13355:13357   */\n      0x20\n        /* \"#utility.yul\":13350:13352   */\n      0x1f\n        /* \"#utility.yul\":13343:13348   */\n      dup4\n        /* \"#utility.yul\":13339:13353   */\n      add\n        /* \"#utility.yul\":13335:13358   */\n      div\n        /* \"#utility.yul\":13325:13358   */\n      swap1\n      pop\n        /* \"#utility.yul\":13271:13364   */\n      swap2\n      swap1\n      pop\n      jump\t// out\n        /* \"#utility.yul\":13370:13477   */\n    tag_318:\n        /* \"#utility.yul\":13414:13422   */\n      0x00\n        /* \"#utility.yul\":13464:13469   */\n      dup3\n        /* \"#utility.yul\":13458:13462   */\n      dup3\n        /* \"#utility.yul\":13454:13470   */\n      shl\n        /* \"#utility.yul\":13433:13470   */\n      swap1\n      pop\n        /* \"#utility.yul\":13370:13477   */\n      swap3\n      swap2\n      pop\n      pop\n      jump\t// out\n        /* \"#utility.yul\":13483:13876   */\n    tag_319:\n        /* \"#utility.yul\":13552:13558   */\n      0x00\n        /* \"#utility.yul\":13602:13603   */\n      0x08\n        /* \"#utility.yul\":13590:13600   */\n      dup4\n        /* \"#utility.yul\":13586:13604   */\n      mul\n        /* \"#utility.yul\":13625:13722   */\n      tag_484\n        /* \"#utility.yul\":13655:13721   */\n      0xffffffffffffffffffffffffffffffffffffffffffffffffffffffffffffffff\n        /* \"#utility.yul\":13644:13653   */\n      dup3\n        /* \"#utility.yul\":13625:13722   */\n      tag_318\n      jump\t// in\n    tag_484:\n        /* \"#utility.yul\":13743:13782   */\n      tag_485\n        /* \"#utility.yul\":13773:13781   */\n      dup7\n        /* \"#utility.yul\":13762:13771   */\n      dup4\n        /* \"#utility.yul\":13743:13782   */\n      tag_318\n      jump\t// in\n    tag_485:\n        /* \"#utility.yul\":13731:13782   */\n      swap6\n      pop\n        /* \"#utility.yul\":13815:13819   */\n      dup1\n        /* \"#utility.yul\":13811:13820   */\n      not\n        /* \"#utility.yul\":13804:13809   */\n      dup5\n        /* \"#utility.yul\":13800:13821   */\n      and\n        /* \"#utility.yul\":13791:13821   */\n      swap4\n      pop\n        /* \"#utility.yul\":13864:13868   */\n      dup1\n        /* \"#utility.yul\":13854:13862   */\n      dup7\n        /* \"#utility.yul\":13850:13869   */\n      and\n        /* \"#utility.yul\":13843:13848   */\n      dup5\n        /* \"#utility.yul\":13840:13870   */\n      or\n        /* \"#utility.yul\":13830:13870   */\n      swap3\n      pop\n        /* \"#utility.yul\":13559:13876   */\n      pop\n      pop\n        /* \"#utility.yul\":13483:13876   */\n      swap4\n      swap3\n      pop\n      pop\n      pop\n      jump\t// out\n        /* \"#utility.yul\":13882:13942   */\n    tag_320:\n        /* \"#utility.yul\":13910:13913   */\n      0x00\n        /* \"#utility.yul\":13931:13936   */\n      dup2\n        /* \"#utility.yul\":13924:13936   */\n      swap1\n      pop\n        /* \"#utility.yul\":13882:13942   */\n      swap2\n      swap1\n      pop\n      jump\t// out\n        /* \"#utility.yul\":13948:14090   */\n    tag_321:\n        /* \"#utility.yul\":13998:14007   */\n      0x00\n        /* \"#utility.yul\":14031:14084   */\n      tag_488\n        /* \"#utility.yul\":14049:14083   */\n      tag_489\n        /* \"#utility.yul\":14058:14082   */\n      tag_490\n        /* \"#utility.yul\":14076:14081   */\n      dup5\n        /* \"#utility.yul\":14058:14082   */\n      tag_292\n      jump\t// in\n    tag_490:\n        /* \"#utility.yul\":14049:14083   */\n      tag_320\n      jump\t// in\n    tag_489:\n        /* \"#utility.yul\":14031:14084   */\n      tag_292\n      jump\t// in\n    tag_488:\n        /* \"#utility.yul\":14018:14084   */\n      swap1\n      pop\n        /* \"#utility.yul\":13948:14090   */\n      swap2\n      swap1\n      pop\n      jump\t// out\n        /* \"#utility.yul\":14096:14171   */\n    tag_322:\n        /* \"#utility.yul\":14139:14142   */\n      0x00\n        /* \"#utility.yul\":14160:14165   */\n      dup2\n        /* \"#utility.yul\":14153:14165   */\n      swap1\n      pop\n        /* \"#utility.yul\":14096:14171   */\n      swap2\n      swap1\n      pop\n      jump\t// out\n        /* \"#utility.yul\":14177:14446   */\n    tag_323:\n        /* \"#utility.yul\":14287:14326   */\n      tag_493\n        /* \"#utility.yul\":14318:14325   */\n      dup4\n        /* \"#utility.yul\":14287:14326   */\n      tag_321\n      jump\t// in\n    tag_493:\n        /* \"#utility.yul\":14348:14439   */\n      tag_494\n        /* \"#utility.yul\":14397:14438   */\n      tag_495\n        /* \"#utility.yul\":14421:14437   */\n      dup3\n        /* \"#utility.yul\":14397:14438   */\n      tag_322\n      jump\t// in\n    tag_495:\n        /* \"#utility.yul\":14389:14395   */\n      dup5\n        /* \"#utility.yul\":14382:14386   */\n      dup5\n        /* \"#utility.yul\":14376:14387   */\n      sload\n        /* \"#utility.yul\":14348:14439   */\n      tag_319\n      jump\t// in\n    tag_494:\n        /* \"#utility.yul\":14342:14346   */\n      dup3\n        /* \"#utility.yul\":14335:14440   */\n      sstore\n        /* \"#utility.yul\":14253:14446   */\n      pop\n        /* \"#utility.yul\":14177:14446   */\n      pop\n      pop\n      pop\n      jump\t// out\n        /* \"#utility.yul\":14452:14525   */\n    tag_324:\n        /* \"#utility.yul\":14497:14500   */\n      0x00\n        /* \"#utility.yul\":14452:14525   */\n      swap1\n      jump\t// out\n        /* \"#utility.yul\":14531:14720   */\n    tag_325:\n        /* \"#utility.yul\":14608:14640   */\n      tag_498\n      tag_324\n      jump\t// in\n    tag_498:\n        /* \"#utility.yul\":14649:14714   */\n      tag_499\n        /* \"#utility.yul\":14707:14713   */\n      dup2\n        /* \"#utility.yul\":14699:14705   */\n      dup5\n        /* \"#utility.yul\":14693:14697   */\n      dup5\n        /* \"#utility.yul\":14649:14714   */\n      tag_323\n      jump\t// in\n    tag_499:\n        /* \"#utility.yul\":14584:14720   */\n      pop\n        /* \"#utility.yul\":14531:14720   */\n      pop\n      pop\n      jump\t// out\n        /* \"#utility.yul\":14726:14912   */\n    tag_326:\n        /* \"#utility.yul\":14786:14906   */\n    tag_501:\n        /* \"#utility.yul\":14803:14806   */\n      dup2\n        /* \"#utility.yul\":14796:14801   */\n      dup2\n        /* \"#utility.yul\":14793:14807   */\n      lt\n        /* \"#utility.yul\":14786:14906   */\n      iszero\n      tag_503\n      jumpi\n        /* \"#utility.yul\":14857:14896   */\n      tag_504\n        /* \"#utility.yul\":14894:14895   */\n      0x00\n        /* \"#utility.yul\":14887:14892   */\n      dup3\n        /* \"#utility.yul\":14857:14896   */\n      tag_325\n      jump\t// in\n    tag_504:\n        /* \"#utility.yul\":14830:14831   */\n      0x01\n        /* \"#utility.yul\":14823:14828   */\n      dup2\n        /* \"#utility.yul\":14819:14832   */\n      add\n        /* \"#utility.yul\":14810:14832   */\n      swap1\n      pop\n        /* \"#utility.yul\":14786:14906   */\n      jump(tag_501)\n    tag_503:\n        /* \"#utility.yul\":14726:14912   */\n      pop\n      pop\n      jump\t// out\n        /* \"#utility.yul\":14918:15461   */\n    tag_327:\n        /* \"#utility.yul\":15019:15021   */\n      0x1f\n        /* \"#utility.yul\":15014:15017   */\n      dup3\n        /* \"#utility.yul\":15011:15022   */\n      gt\n        /* \"#utility.yul\":15008:15454   */\n      iszero\n      tag_506\n      jumpi\n        /* \"#utility.yul\":15053:15091   */\n      tag_507\n        /* \"#utility.yul\":15085:15090   */\n      dup2\n        /* \"#utility.yul\":15053:15091   */\n      tag_316\n      jump\t// in\n    tag_507:\n        /* \"#utility.yul\":15137:15166   */\n      tag_508\n        /* \"#utility.yul\":15155:15165   */\n      dup5\n        /* \"#utility.yul\":15137:15166   */\n      tag_317\n      jump\t// in\n    tag_508:\n        /* \"#utility.yul\":15127:15135   */\n      dup2\n        /* \"#utility.yul\":15123:15167   */\n      add\n        /* \"#utility.yul\":15320:15322   */\n      0x20\n        /* \"#utility.yul\":15308:15318   */\n      dup6\n        /* \"#utility.yul\":15305:15323   */\n      lt\n        /* \"#utility.yul\":15302:15351   */\n      iszero\n      tag_509\n      jumpi\n        /* \"#utility.yul\":15341:15349   */\n      dup2\n        /* \"#utility.yul\":15326:15349   */\n      swap1\n      pop\n        /* \"#utility.yul\":15302:15351   */\n    tag_509:\n        /* \"#utility.yul\":15364:15444   */\n      tag_510\n        /* \"#utility.yul\":15420:15442   */\n      tag_511\n        /* \"#utility.yul\":15438:15441   */\n      dup6\n        /* \"#utility.yul\":15420:15442   */\n      tag_317\n      jump\t// in\n    tag_511:\n        /* \"#utility.yul\":15410:15418   */\n      dup4\n        /* \"#utility.yul\":15406:15443   */\n      add\n        /* \"#utility.yul\":15393:15404   */\n      dup3\n        /* \"#utility.yul\":15364:15444   */\n      tag_326\n      jump\t// in\n    tag_510:\n        /* \"#utility.yul\":15023:15454   */\n      pop\n      pop\n        /* \"#utility.yul\":15008:15454   */\n    tag_506:\n        /* \"#utility.yul\":14918:15461   */\n      pop\n      pop\n      pop\n      jump\t// out\n        /* \"#utility.yul\":15467:15584   */\n    tag_328:\n        /* \"#utility.yul\":15521:15529   */\n      0x00\n        /* \"#utility.yul\":15571:15576   */\n      dup3\n        /* \"#utility.yul\":15565:15569   */\n      dup3\n        /* \"#utility.yul\":15561:15577   */\n      shr\n        /* \"#utility.yul\":15540:15577   */\n      swap1\n      pop\n        /* \"#utility.yul\":15467:15584   */\n      swap3\n      swap2\n      pop\n      pop\n      jump\t// out\n        /* \"#utility.yul\":15590:15759   */\n    tag_329:\n        /* \"#utility.yul\":15634:15640   */\n      0x00\n        /* \"#utility.yul\":15667:15718   */\n      tag_514\n        /* \"#utility.yul\":15715:15716   */\n      0x00\n        /* \"#utility.yul\":15711:15717   */\n      not\n        /* \"#utility.yul\":15703:15708   */\n      dup5\n        /* \"#utility.yul\":15700:15701   */\n      0x08\n        /* \"#utility.yul\":15696:15709   */\n      mul\n        /* \"#utility.yul\":15667:15718   */\n      tag_328\n      jump\t// in\n    tag_514:\n        /* \"#utility.yul\":15663:15719   */\n      not\n        /* \"#utility.yul\":15748:15752   */\n      dup1\n        /* \"#utility.yul\":15742:15746   */\n      dup4\n        /* \"#utility.yul\":15738:15753   */\n      and\n        /* \"#utility.yul\":15728:15753   */\n      swap2\n      pop\n        /* \"#utility.yul\":15641:15759   */\n      pop\n        /* \"#utility.yul\":15590:15759   */\n      swap3\n      swap2\n      pop\n      pop\n      jump\t// out\n        /* \"#utility.yul\":15764:16059   */\n    tag_330:\n        /* \"#utility.yul\":15840:15844   */\n      0x00\n        /* \"#utility.yul\":15986:16015   */\n      tag_516\n        /* \"#utility.yul\":16011:16014   */\n      dup4\n        /* \"#utility.yul\":16005:16009   */\n      dup4\n        /* \"#utility.yul\":15986:16015   */\n      tag_329\n      jump\t// in\n    tag_516:\n        /* \"#utility.yul\":15978:16015   */\n      swap2\n      pop\n        /* \"#utility.yul\":16048:16051   */\n      dup3\n        /* \"#utility.yul\":16045:16046   */\n      0x02\n        /* \"#utility.yul\":16041:16052   */\n      mul\n        /* \"#utility.yul\":16035:16039   */\n      dup3\n        /* \"#utility.yul\":16032:16053   */\n      or\n        /* \"#utility.yul\":16024:16053   */\n      swap1\n      pop\n        /* \"#utility.yul\":15764:16059   */\n      swap3\n      swap2\n      pop\n      pop\n      jump\t// out\n        /* \"#utility.yul\":16064:17459   */\n    tag_84:\n        /* \"#utility.yul\":16181:16218   */\n      tag_518\n        /* \"#utility.yul\":16214:16217   */\n      dup3\n        /* \"#utility.yul\":16181:16218   */\n      tag_299\n      jump\t// in\n    tag_518:\n        /* \"#utility.yul\":16283:16301   */\n      0xffffffffffffffff\n        /* \"#utility.yul\":16275:16281   */\n      dup2\n        /* \"#utility.yul\":16272:16302   */\n      gt\n        /* \"#utility.yul\":16269:16325   */\n      iszero\n      tag_519\n      jumpi\n        /* \"#utility.yul\":16305:16323   */\n      tag_520\n      tag_285\n      jump\t// in\n    tag_520:\n        /* \"#utility.yul\":16269:16325   */\n    tag_519:\n        /* \"#utility.yul\":16349:16387   */\n      tag_521\n        /* \"#utility.yul\":16381:16385   */\n      dup3\n        /* \"#utility.yul\":16375:16386   */\n      sload\n        /* \"#utility.yul\":16349:16387   */\n      tag_69\n      jump\t// in\n    tag_521:\n        /* \"#utility.yul\":16434:16501   */\n      tag_522\n        /* \"#utility.yul\":16494:16500   */\n      dup3\n        /* \"#utility.yul\":16486:16492   */\n      dup3\n        /* \"#utility.yul\":16480:16484   */\n      dup6\n        /* \"#utility.yul\":16434:16501   */\n      tag_327\n      jump\t// in\n    tag_522:\n        /* \"#utility.yul\":16528:16529   */\n      0x00\n        /* \"#utility.yul\":16552:16556   */\n      0x20\n        /* \"#utility.yul\":16539:16556   */\n      swap1\n      pop\n        /* \"#utility.yul\":16584:16586   */\n      0x1f\n        /* \"#utility.yul\":16576:16582   */\n      dup4\n        /* \"#utility.yul\":16573:16587   */\n      gt\n        /* \"#utility.yul\":16601:16602   */\n      0x01\n        /* \"#utility.yul\":16596:17214   */\n      dup2\n      eq\n      tag_524\n      jumpi\n        /* \"#utility.yul\":17258:17259   */\n      0x00\n        /* \"#utility.yul\":17275:17281   */\n      dup5\n        /* \"#utility.yul\":17272:17349   */\n      iszero\n      tag_525\n      jumpi\n        /* \"#utility.yul\":17324:17333   */\n      dup3\n        /* \"#utility.yul\":17319:17322   */\n      dup8\n        /* \"#utility.yul\":17315:17334   */\n      add\n        /* \"#utility.yul\":17309:17335   */\n      mload\n        /* \"#utility.yul\":17300:17335   */\n      swap1\n      pop\n        /* \"#utility.yul\":17272:17349   */\n    tag_525:\n        /* \"#utility.yul\":17375:17442   */\n      tag_526\n        /* \"#utility.yul\":17435:17441   */\n      dup6\n        /* \"#utility.yul\":17428:17433   */\n      dup3\n        /* \"#utility.yul\":17375:17442   */\n      tag_330\n      jump\t// in\n    tag_526:\n        /* \"#utility.yul\":17369:17373   */\n      dup7\n        /* \"#utility.yul\":17362:17443   */\n      sstore\n        /* \"#utility.yul\":17231:17453   */\n      pop\n        /* \"#utility.yul\":16566:17453   */\n      jump(tag_523)\n        /* \"#utility.yul\":16596:17214   */\n    tag_524:\n        /* \"#utility.yul\":16648:16652   */\n      0x1f\n        /* \"#utility.yul\":16644:16653   */\n      not\n        /* \"#utility.yul\":16636:16642   */\n      dup5\n        /* \"#utility.yul\":16632:16654   */\n      and\n        /* \"#utility.yul\":16682:16719   */\n      tag_527\n        /* \"#utility.yul\":16714:16718   */\n      dup7\n        /* \"#utility.yul\":16682:16719   */\n      tag_316\n      jump\t// in\n    tag_527:\n        /* \"#utility.yul\":16741:16742   */\n      0x00\n        /* \"#utility.yul\":16755:16963   */\n    tag_528:\n        /* \"#utility.yul\":16769:16776   */\n      dup3\n        /* \"#utility.yul\":16766:16767   */\n      dup2\n        /* \"#utility.yul\":16763:16777   */\n      lt\n        /* \"#utility.yul\":16755:16963   */\n      iszero\n      tag_530\n      jumpi\n        /* \"#utility.yul\":16848:16857   */\n      dup5\n        /* \"#utility.yul\":16843:16846   */\n      dup10\n        /* \"#utility.yul\":16839:16858   */\n      add\n        /* \"#utility.yul\":16833:16859   */\n      mload\n        /* \"#utility.yul\":16825:16831   */\n      dup3\n        /* \"#utility.yul\":16818:16860   */\n      sstore\n        /* \"#utility.yul\":16899:16900   */\n      0x01\n        /* \"#utility.yul\":16891:16897   */\n      dup3\n        /* \"#utility.yul\":16887:16901   */\n      add\n        /* \"#utility.yul\":16877:16901   */\n      swap2\n      pop\n        /* \"#utility.yul\":16946:16948   */\n      0x20\n        /* \"#utility.yul\":16935:16944   */\n      dup6\n        /* \"#utility.yul\":16931:16949   */\n      add\n        /* \"#utility.yul\":16918:16949   */\n      swap5\n      pop\n        /* \"#utility.yul\":16792:16796   */\n      0x20\n        /* \"#utility.yul\":16789:16790   */\n      dup2\n        /* \"#utility.yul\":16785:16797   */\n      add\n        /* \"#utility.yul\":16780:16797   */\n      swap1\n      pop\n        /* \"#utility.yul\":16755:16963   */\n      jump(tag_528)\n    tag_530:\n        /* \"#utility.yul\":16991:16997   */\n      dup7\n        /* \"#utility.yul\":16982:16989   */\n      dup4\n        /* \"#utility.yul\":16979:16998   */\n      lt\n        /* \"#utility.yul\":16976:17155   */\n      iszero\n      tag_531\n      jumpi\n        /* \"#utility.yul\":17049:17058   */\n      dup5\n        /* \"#utility.yul\":17044:17047   */\n      dup10\n        /* \"#utility.yul\":17040:17059   */\n      add\n        /* \"#utility.yul\":17034:17060   */\n      mload\n        /* \"#utility.yul\":17092:17140   */\n      tag_532\n        /* \"#utility.yul\":17134:17138   */\n      0x1f\n        /* \"#utility.yul\":17126:17132   */\n      dup10\n        /* \"#utility.yul\":17122:17139   */\n      and\n        /* \"#utility.yul\":17111:17120   */\n      dup3\n        /* \"#utility.yul\":17092:17140   */\n      tag_329\n      jump\t// in\n    tag_532:\n        /* \"#utility.yul\":17084:17090   */\n      dup4\n        /* \"#utility.yul\":17077:17141   */\n      sstore\n        /* \"#utility.yul\":16999:17155   */\n      pop\n        /* \"#utility.yul\":16976:17155   */\n    tag_531:\n        /* \"#utility.yul\":17201:17202   */\n      0x01\n        /* \"#utility.yul\":17197:17198   */\n      0x02\n        /* \"#utility.yul\":17189:17195   */\n      dup9\n        /* \"#utility.yul\":17185:17199   */\n      mul\n        /* \"#utility.yul\":17181:17203   */\n      add\n        /* \"#utility.yul\":17175:17179   */\n      dup9\n        /* \"#utility.yul\":17168:17204   */\n      sstore\n        /* \"#utility.yul\":16603:17214   */\n      pop\n      pop\n      pop\n        /* \"#utility.yul\":16566:17453   */\n    tag_523:\n      pop\n        /* \"#utility.yul\":16156:17459   */\n      pop\n      pop\n      pop\n        /* \"#utility.yul\":16064:17459   */\n      pop\n      pop\n      jump\t// out\n        /* \"#utility.yul\":17465:17645   */\n    tag_90:\n        /* \"#utility.yul\":17513:17590   */\n      0x4e487b7100000000000000000000000000000000000000000000000000000000\n        /* \"#utility.yul\":17510:17511   */\n      0x00\n        /* \"#utility.yul\":17503:17591   */\n      mstore\n        /* \"#utility.yul\":17610:17614   */\n      0x32\n        /* \"#utility.yul\":17607:17608   */\n      0x04\n        /* \"#utility.yul\":17600:17615   */\n      mstore\n        /* \"#utility.yul\":17634:17638   */\n      0x24\n        /* \"#utility.yul\":17631:17632   */\n      0x00\n        /* \"#utility.yul\":17624:17639   */\n      revert\n        /* \"#utility.yul\":17651:17800   */\n    tag_331:\n        /* \"#utility.yul\":17700:17706   */\n      0x00\n        /* \"#utility.yul\":17734:17739   */\n      dup2\n        /* \"#utility.yul\":17728:17740   */\n      sload\n        /* \"#utility.yul\":17718:17740   */\n      swap1\n      pop\n        /* \"#utility.yul\":17760:17793   */\n      tag_535\n        /* \"#utility.yul\":17786:17792   */\n      dup2\n        /* \"#utility.yul\":17760:17793   */\n      tag_69\n      jump\t// in\n    tag_535:\n        /* \"#utility.yul\":17750:17793   */\n      swap1\n      pop\n        /* \"#utility.yul\":17651:17800   */\n      swap2\n      swap1\n      pop\n      jump\t// out\n        /* \"#utility.yul\":17806:19257   */\n    tag_93:\n        /* \"#utility.yul\":17917:17920   */\n      dup2\n        /* \"#utility.yul\":17911:17915   */\n      dup2\n        /* \"#utility.yul\":17908:17921   */\n      sub\n        /* \"#utility.yul\":17905:17931   */\n      tag_537\n      jumpi\n        /* \"#utility.yul\":17924:17929   */\n      pop\n      pop\n      jump(tag_536)\n        /* \"#utility.yul\":17905:17931   */\n    tag_537:\n        /* \"#utility.yul\":17955:17989   */\n      tag_538\n        /* \"#utility.yul\":17985:17988   */\n      dup3\n        /* \"#utility.yul\":17955:17989   */\n      tag_331\n      jump\t// in\n    tag_538:\n        /* \"#utility.yul\":18054:18072   */\n      0xffffffffffffffff\n        /* \"#utility.yul\":18046:18052   */\n      dup2\n        /* \"#utility.yul\":18043:18073   */\n      gt\n        /* \"#utility.yul\":18040:18096   */\n      iszero\n      tag_539\n      jumpi\n        /* \"#utility.yul\":18076:18094   */\n      tag_540\n      tag_285\n      jump\t// in\n    tag_540:\n        /* \"#utility.yul\":18040:18096   */\n    tag_539:\n        /* \"#utility.yul\":18120:18158   */\n      tag_541\n        /* \"#utility.yul\":18152:18156   */\n      dup3\n        /* \"#utility.yul\":18146:18157   */\n      sload\n        /* \"#utility.yul\":18120:18158   */\n      tag_69\n      jump\t// in\n    tag_541:\n        /* \"#utility.yul\":18205:18272   */\n      tag_542\n        /* \"#utility.yul\":18265:18271   */\n      dup3\n        /* \"#utility.yul\":18257:18263   */\n      dup3\n        /* \"#utility.yul\":18251:18255   */\n      dup6\n        /* \"#utility.yul\":18205:18272   */\n      tag_327\n      jump\t// in\n    tag_542:\n        /* \"#utility.yul\":18299:18300   */\n      0x00\n        /* \"#utility.yul\":18328:18330   */\n      0x1f\n        /* \"#utility.yul\":18320:18326   */\n      dup4\n        /* \"#utility.yul\":18317:18331   */\n      gt\n        /* \"#utility.yul\":18345:18346   */\n      0x01\n        /* \"#utility.yul\":18340:19012   */\n      dup2\n      eq\n      tag_544\n      jumpi\n        /* \"#utility.yul\":19056:19057   */\n      0x00\n        /* \"#utility.yul\":19073:19079   */\n      dup5\n        /* \"#utility.yul\":19070:19147   */\n      iszero\n      tag_545\n      jumpi\n        /* \"#utility.yul\":19122:19131   */\n      dup3\n        /* \"#utility.yul\":19117:19120   */\n      dup8\n        /* \"#utility.yul\":19113:19132   */\n      add\n        /* \"#utility.yul\":19107:19133   */\n      sload\n        /* \"#utility.yul\":19098:19133   */\n      swap1\n      pop\n        /* \"#utility.yul\":19070:19147   */\n    tag_545:\n        /* \"#utility.yul\":19173:19240   */\n      tag_546\n        /* \"#utility.yul\":19233:19239   */\n      dup6\n        /* \"#utility.yul\":19226:19231   */\n      dup3\n        /* \"#utility.yul\":19173:19240   */\n      tag_330\n      jump\t// in\n    tag_546:\n        /* \"#utility.yul\":19167:19171   */\n      dup7\n        /* \"#utility.yul\":19160:19241   */\n      sstore\n        /* \"#utility.yul\":19029:19251   */\n      pop\n        /* \"#utility.yul\":18310:19251   */\n      jump(tag_543)\n        /* \"#utility.yul\":18340:19012   */\n    tag_544:\n        /* \"#utility.yul\":18392:18396   */\n      0x1f\n        /* \"#utility.yul\":18388:18397   */\n      not\n        /* \"#utility.yul\":18380:18386   */\n      dup5\n        /* \"#utility.yul\":18376:18398   */\n      and\n        /* \"#utility.yul\":18418:18454   */\n      tag_547\n        /* \"#utility.yul\":18450:18453   */\n      dup8\n        /* \"#utility.yul\":18418:18454   */\n      tag_316\n      jump\t// in\n    tag_547:\n        /* \"#utility.yul\":18411:18454   */\n      swap7\n      pop\n        /* \"#utility.yul\":18481:18518   */\n      tag_548\n        /* \"#utility.yul\":18513:18517   */\n      dup7\n        /* \"#utility.yul\":18481:18518   */\n      tag_316\n      jump\t// in\n    tag_548:\n        /* \"#utility.yul\":18540:18541   */\n      0x00\n        /* \"#utility.yul\":18554:18761   */\n    tag_549:\n        /* \"#utility.yul\":18568:18575   */\n      dup3\n        /* \"#utility.yul\":18565:18566   */\n      dup2\n        /* \"#utility.yul\":18562:18576   */\n      lt\n        /* \"#utility.yul\":18554:18761   */\n      iszero\n      tag_551\n      jumpi\n        /* \"#utility.yul\":18647:18656   */\n      dup5\n        /* \"#utility.yul\":18642:18645   */\n      dup10\n        /* \"#utility.yul\":18638:18657   */\n      add\n        /* \"#utility.yul\":18632:18658   */\n      sload\n        /* \"#utility.yul\":18624:18630   */\n      dup3\n        /* \"#utility.yul\":18617:18659   */\n      sstore\n        /* \"#utility.yul\":18698:18699   */\n      0x01\n        /* \"#utility.yul\":18690:18696   */\n      dup3\n        /* \"#utility.yul\":18686:18700   */\n      add\n        /* \"#utility.yul\":18676:18700   */\n      swap2\n      pop\n        /* \"#utility.yul\":18745:18746   */\n      0x01\n        /* \"#utility.yul\":18734:18743   */\n      dup6\n        /* \"#utility.yul\":18730:18747   */\n      add\n        /* \"#utility.yul\":18717:18747   */\n      swap5\n      pop\n        /* \"#utility.yul\":18591:18595   */\n      0x20\n        /* \"#utility.yul\":18588:18589   */\n      dup2\n        /* \"#utility.yul\":18584:18596   */\n      add\n        /* \"#utility.yul\":18579:18596   */\n      swap1\n      pop\n        /* \"#utility.yul\":18554:18761   */\n      jump(tag_549)\n    tag_551:\n        /* \"#utility.yul\":18789:18795   */\n      dup7\n        /* \"#utility.yul\":18780:18787   */\n      dup4\n        /* \"#utility.yul\":18777:18796   */\n      lt\n        /* \"#utility.yul\":18774:18953   */\n      iszero\n      tag_552\n      jumpi\n        /* \"#utility.yul\":18847:18856   */\n      dup5\n        /* \"#utility.yul\":18842:18845   */\n      dup10\n        /* \"#utility.yul\":18838:18857   */\n      add\n        /* \"#utility.yul\":18832:18858   */\n      sload\n        /* \"#utility.yul\":18890:18938   */\n      tag_553\n        /* \"#utility.yul\":18932:18936   */\n      0x1f\n        /* \"#utility.yul\":18924:18930   */\n      dup10\n        /* \"#utility.yul\":18920:18937   */\n      and\n        /* \"#utility.yul\":18909:18918   */\n      dup3\n        /* \"#utility.yul\":18890:18938   */\n      tag_329\n      jump\t// in\n    tag_553:\n        /* \"#utility.yul\":18882:18888   */\n      dup4\n        /* \"#utility.yul\":18875:18939   */\n      sstore\n        /* \"#utility.yul\":18797:18953   */\n      pop\n        /* \"#utility.yul\":18774:18953   */\n    tag_552:\n        /* \"#utility.yul\":18999:19000   */\n      0x01\n        /* \"#utility.yul\":18995:18996   */\n      0x02\n        /* \"#utility.yul\":18987:18993   */\n      dup9\n        /* \"#utility.yul\":18983:18997   */\n      mul\n        /* \"#utility.yul\":18979:19001   */\n      add\n        /* \"#utility.yul\":18973:18977   */\n      dup9\n        /* \"#utility.yul\":18966:19002   */\n      sstore\n        /* \"#utility.yul\":18347:19012   */\n      pop\n      pop\n      pop\n        /* \"#utility.yul\":18310:19251   */\n    tag_543:\n      pop\n        /* \"#utility.yul\":17895:19257   */\n      pop\n      pop\n      pop\n        /* \"#utility.yul\":17806:19257   */\n      pop\n      pop\n    tag_536:\n      jump\t// out\n        /* \"#utility.yul\":19263:19443   */\n    tag_332:\n        /* \"#utility.yul\":19311:19388   */\n      0x4e487b7100000000000000000000000000000000000000000000000000000000\n        /* \"#utility.yul\":19308:19309   */\n      0x00\n        /* \"#utility.yul\":19301:19389   */\n      mstore\n        /* \"#utility.yul\":19408:19412   */\n      0x11\n        /* \"#utility.yul\":19405:19406   */\n      0x04\n        /* \"#utility.yul\":19398:19413   */\n      mstore\n        /* \"#utility.yul\":19432:19436   */\n      0x24\n        /* \"#utility.yul\":19429:19430   */\n      0x00\n        /* \"#utility.yul\":19422:19437   */\n      revert\n        /* \"#utility.yul\":19449:19682   */\n    tag_98:\n        /* \"#utility.yul\":19488:19491   */\n      0x00\n        /* \"#utility.yul\":19511:19535   */\n      tag_556\n        /* \"#utility.yul\":19529:19534   */\n      dup3\n        /* \"#utility.yul\":19511:19535   */\n      tag_292\n      jump\t// in\n    tag_556:\n        /* \"#utility.yul\":19502:19535   */\n      swap2\n      pop\n        /* \"#utility.yul\":19557:19623   */\n      0xffffffffffffffffffffffffffffffffffffffffffffffffffffffffffffffff\n        /* \"#utility.yul\":19550:19555   */\n      dup3\n        /* \"#utility.yul\":19547:19624   */\n      sub\n        /* \"#utility.yul\":19544:19647   */\n      tag_557\n      jumpi\n        /* \"#utility.yul\":19627:19645   */\n      tag_558\n      tag_332\n      jump\t// in\n    tag_558:\n        /* \"#utility.yul\":19544:19647   */\n    tag_557:\n        /* \"#utility.yul\":19674:19675   */\n      0x01\n        /* \"#utility.yul\":19667:19672   */\n      dup3\n        /* \"#utility.yul\":19663:19676   */\n      add\n        /* \"#utility.yul\":19656:19676   */\n      swap1\n      pop\n        /* \"#utility.yul\":19449:19682   */\n      swap2\n      swap1\n      pop\n      jump\t// out\n        /* \"#utility.yul\":19688:19852   */\n    tag_333:\n        /* \"#utility.yul\":19828:19844   */\n      0x4e6f742052656769737465726564000000000000000000000000000000000000\n        /* \"#utility.yul\":19824:19825   */\n      0x00\n        /* \"#utility.yul\":19816:19822   */\n      dup3\n        /* \"#utility.yul\":19812:19826   */\n      add\n        /* \"#utility.yul\":19805:19845   */\n      mstore\n        /* \"#utility.yul\":19688:19852   */\n      pop\n      jump\t// out\n        /* \"#utility.yul\":19858:20224   */\n    tag_334:\n        /* \"#utility.yul\":20000:20003   */\n      0x00\n        /* \"#utility.yul\":20021:20088   */\n      tag_561\n        /* \"#utility.yul\":20085:20087   */\n      0x0e\n        /* \"#utility.yul\":20080:20083   */\n      dup4\n        /* \"#utility.yul\":20021:20088   */\n      tag_300\n      jump\t// in\n    tag_561:\n        /* \"#utility.yul\":20014:20088   */\n      swap2\n      pop\n        /* \"#utility.yul\":20097:20190   */\n      tag_562\n        /* \"#utility.yul\":20186:20189   */\n      dup3\n        /* \"#utility.yul\":20097:20190   */\n      tag_333\n      jump\t// in\n    tag_562:\n        /* \"#utility.yul\":20215:20217   */\n      0x20\n        /* \"#utility.yul\":20210:20213   */\n      dup3\n        /* \"#utility.yul\":20206:20218   */\n      add\n        /* \"#utility.yul\":20199:20218   */\n      swap1\n      pop\n        /* \"#utility.yul\":19858:20224   */\n      swap2\n      swap1\n      pop\n      jump\t// out\n        /* \"#utility.yul\":20230:20649   */\n    tag_142:\n        /* \"#utility.yul\":20396:20400   */\n      0x00\n        /* \"#utility.yul\":20434:20436   */\n      0x20\n        /* \"#utility.yul\":20423:20432   */\n      dup3\n        /* \"#utility.yul\":20419:20437   */\n      add\n        /* \"#utility.yul\":20411:20437   */\n      swap1\n      pop\n        /* \"#utility.yul\":20483:20492   */\n      dup2\n        /* \"#utility.yul\":20477:20481   */\n      dup2\n        /* \"#utility.yul\":20473:20493   */\n      sub\n        /* \"#utility.yul\":20469:20470   */\n      0x00\n        /* \"#utility.yul\":20458:20467   */\n      dup4\n        /* \"#utility.yul\":20454:20471   */\n      add\n        /* \"#utility.yul\":20447:20494   */\n      mstore\n        /* \"#utility.yul\":20511:20642   */\n      tag_564\n        /* \"#utility.yul\":20637:20641   */\n      dup2\n        /* \"#utility.yul\":20511:20642   */\n      tag_334\n      jump\t// in\n    tag_564:\n        /* \"#utility.yul\":20503:20642   */\n      swap1\n      pop\n        /* \"#utility.yul\":20230:20649   */\n      swap2\n      swap1\n      pop\n      jump\t// out\n        /* \"#utility.yul\":20655:20825   */\n    tag_335:\n        /* \"#utility.yul\":20795:20817   */\n      0x54616b6520616e204170706f696e746d656e6e74000000000000000000000000\n        /* \"#utility.yul\":20791:20792   */\n      0x00\n        /* \"#utility.yul\":20783:20789   */\n      dup3\n        /* \"#utility.yul\":20779:20793   */\n      add\n        /* \"#utility.yul\":20772:20818   */\n      mstore\n        /* \"#utility.yul\":20655:20825   */\n      pop\n      jump\t// out\n        /* \"#utility.yul\":20831:21197   */\n    tag_336:\n        /* \"#utility.yul\":20973:20976   */\n      0x00\n        /* \"#utility.yul\":20994:21061   */\n      tag_567\n        /* \"#utility.yul\":21058:21060   */\n      0x14\n        /* \"#utility.yul\":21053:21056   */\n      dup4\n        /* \"#utility.yul\":20994:21061   */\n      tag_300\n      jump\t// in\n    tag_567:\n        /* \"#utility.yul\":20987:21061   */\n      swap2\n      pop\n        /* \"#utility.yul\":21070:21163   */\n      tag_568\n        /* \"#utility.yul\":21159:21162   */\n      dup3\n        /* \"#utility.yul\":21070:21163   */\n      tag_335\n      jump\t// in\n    tag_568:\n        /* \"#utility.yul\":21188:21190   */\n      0x20\n        /* \"#utility.yul\":21183:21186   */\n      dup3\n        /* \"#utility.yul\":21179:21191   */\n      add\n        /* \"#utility.yul\":21172:21191   */\n      swap1\n      pop\n        /* \"#utility.yul\":20831:21197   */\n      swap2\n      swap1\n      pop\n      jump\t// out\n        /* \"#utility.yul\":21203:21622   */\n    tag_163:\n        /* \"#utility.yul\":21369:21373   */\n      0x00\n        /* \"#utility.yul\":21407:21409   */\n      0x20\n        /* \"#utility.yul\":21396:21405   */\n      dup3\n        /* \"#utility.yul\":21392:21410   */\n      add\n        /* \"#utility.yul\":21384:21410   */\n      swap1\n      pop\n        /* \"#utility.yul\":21456:21465   */\n      dup2\n        /* \"#utility.yul\":21450:21454   */\n      dup2\n        /* \"#utility.yul\":21446:21466   */\n      sub\n        /* \"#utility.yul\":21442:21443   */\n      0x00\n        /* \"#utility.yul\":21431:21440   */\n      dup4\n        /* \"#utility.yul\":21427:21444   */\n      add\n        /* \"#utility.yul\":21420:21467   */\n      mstore\n        /* \"#utility.yul\":21484:21615   */\n      tag_570\n        /* \"#utility.yul\":21610:21614   */\n      dup2\n        /* \"#utility.yul\":21484:21615   */\n      tag_336\n      jump\t// in\n    tag_570:\n        /* \"#utility.yul\":21476:21615   */\n      swap1\n      pop\n        /* \"#utility.yul\":21203:21622   */\n      swap2\n      swap1\n      pop\n      jump\t// out\n        /* \"#utility.yul\":21628:21799   */\n    tag_337:\n        /* \"#utility.yul\":21768:21791   */\n      0x596f7520617265206e6f7420746865206f776e65720000000000000000000000\n        /* \"#utility.yul\":21764:21765   */\n      0x00\n        /* \"#utility.yul\":21756:21762   */\n      dup3\n        /* \"#utility.yul\":21752:21766   */\n      add\n        /* \"#utility.yul\":21745:21792   */\n      mstore\n        /* \"#utility.yul\":21628:21799   */\n      pop\n      jump\t// out\n        /* \"#utility.yul\":21805:22171   */\n    tag_338:\n        /* \"#utility.yul\":21947:21950   */\n      0x00\n        /* \"#utility.yul\":21968:22035   */\n      tag_573\n        /* \"#utility.yul\":22032:22034   */\n      0x15\n        /* \"#utility.yul\":22027:22030   */\n      dup4\n        /* \"#utility.yul\":21968:22035   */\n      tag_300\n      jump\t// in\n    tag_573:\n        /* \"#utility.yul\":21961:22035   */\n      swap2\n      pop\n        /* \"#utility.yul\":22044:22137   */\n      tag_574\n        /* \"#utility.yul\":22133:22136   */\n      dup3\n        /* \"#utility.yul\":22044:22137   */\n      tag_337\n      jump\t// in\n    tag_574:\n        /* \"#utility.yul\":22162:22164   */\n      0x20\n        /* \"#utility.yul\":22157:22160   */\n      dup3\n        /* \"#utility.yul\":22153:22165   */\n      add\n        /* \"#utility.yul\":22146:22165   */\n      swap1\n      pop\n        /* \"#utility.yul\":21805:22171   */\n      swap2\n      swap1\n      pop\n      jump\t// out\n        /* \"#utility.yul\":22177:22596   */\n    tag_235:\n        /* \"#utility.yul\":22343:22347   */\n      0x00\n        /* \"#utility.yul\":22381:22383   */\n      0x20\n        /* \"#utility.yul\":22370:22379   */\n      dup3\n        /* \"#utility.yul\":22366:22384   */\n      add\n        /* \"#utility.yul\":22358:22384   */\n      swap1\n      pop\n        /* \"#utility.yul\":22430:22439   */\n      dup2\n        /* \"#utility.yul\":22424:22428   */\n      dup2\n        /* \"#utility.yul\":22420:22440   */\n      sub\n        /* \"#utility.yul\":22416:22417   */\n      0x00\n        /* \"#utility.yul\":22405:22414   */\n      dup4\n        /* \"#utility.yul\":22401:22418   */\n      add\n        /* \"#utility.yul\":22394:22441   */\n      mstore\n        /* \"#utility.yul\":22458:22589   */\n      tag_576\n        /* \"#utility.yul\":22584:22588   */\n      dup2\n        /* \"#utility.yul\":22458:22589   */\n      tag_338\n      jump\t// in\n    tag_576:\n        /* \"#utility.yul\":22450:22589   */\n      swap1\n      pop\n        /* \"#utility.yul\":22177:22596   */\n      swap2\n      swap1\n      pop\n      jump\t// out\n\n    auxdata: 0xa26469706673582212209fd8b1e12771b8fc27b221809a5bf5547c780a411f3e87041df8baf92d083e8664736f6c63430008130033\n}\n",
				"bytecode": {
					"linkReferences": {},
					"object": "60806040526000600655600060075534801561001a57600080fd5b50336000806101000a81548173ffffffffffffffffffffffffffffffffffffffff021916908373ffffffffffffffffffffffffffffffffffffffff1602179055506129cd8061006a6000396000f3fe608060405234801561001057600080fd5b50600436106100a95760003560e01c806393119a831161007157806393119a8314610168578063b6d175eb1461019a578063c0f801de146101cd578063d85680da146101ff578063de24930b14610232578063ea4bf49a14610265576100a9565b8063365af9d3146100ae5780634b0a7573146100ca57806368f4e963146100fd57806384728ef61461011957806386e758f21461014c575b600080fd5b6100c860048036038101906100c39190611ea8565b610281565b005b6100e460048036038101906100df9190611f27565b61063b565b6040516100f494939291906120e1565b60405180910390f35b61011760048036038101906101129190612160565b61081a565b005b610133600480360381019061012e9190611f27565b610944565b604051610143949392919061218d565b60405180910390f35b61016660048036038101906101619190612211565b610a4c565b005b610182600480360381019061017d9190611f27565b61136c565b604051610191939291906122eb565b60405180910390f35b6101b460048036038101906101af9190611f27565b61144e565b6040516101c4949392919061218d565b60405180910390f35b6101e760048036038101906101e29190611f27565b611556565b6040516101f6939291906122eb565b60405180910390f35b61021960048036038101906102149190611f27565b611638565b604051610229949392919061218d565b60405180910390f35b61024c60048036038101906102479190611f27565b611740565b60405161025c9493929190612329565b60405180910390f35b61027f600480360381019061027a9190612375565b611848565b005b60016040518060a0016040528060065481526020013373ffffffffffffffffffffffffffffffffffffffff1681526020018381526020016008805480602002602001604051908101604052809291908181526020016000905b828210156103865783829060005260206000200180546102f990612400565b80601f016020809104026020016040519081016040528092919081815260200182805461032590612400565b80156103725780601f1061034757610100808354040283529160200191610372565b820191906000526020600020905b81548152906001019060200180831161035557829003601f168201915b5050505050815260200190600101906102da565b5050505081526020016009805480602002602001604051908101604052809291908181526020016000905b8282101561045d5783829060005260206000200180546103d090612400565b80601f01602080910402602001604051908101604052809291908181526020018280546103fc90612400565b80156104495780601f1061041e57610100808354040283529160200191610449565b820191906000526020600020905b81548152906001019060200180831161042c57829003601f168201915b5050505050815260200190600101906103b1565b5050505081525090806001815401808255809150506001900390600052602060002090600502016000909190919091506000820151816000015560208201518160010160006101000a81548173ffffffffffffffffffffffffffffffffffffffff021916908373ffffffffffffffffffffffffffffffffffffffff16021790555060408201518160020190816104f391906125dd565b506060820151816003019080519060200190610510929190611b3b565b50608082015181600401908051906020019061052d929190611b3b565b505050600160065481548110610546576105456126af565b5b9060005260206000209060050201600460006006548152602001908152602001600020600082015481600001556001820160009054906101000a900473ffffffffffffffffffffffffffffffffffffffff168160010160006101000a81548173ffffffffffffffffffffffffffffffffffffffff021916908373ffffffffffffffffffffffffffffffffffffffff160217905550600282018160020190816105ee91906126f4565b506003820181600301908054610605929190611b94565b50600482018160040190805461061c929190611b94565b50905050600660008154809291906106339061280b565b919050555050565b60008060608060038581548110610655576106546126af565b5b9060005260206000209060040201600001546003868154811061067b5761067a6126af565b5b906000526020600020906004020160010160009054906101000a900473ffffffffffffffffffffffffffffffffffffffff16600387815481106106c1576106c06126af565b5b9060005260206000209060040201600201600388815481106106e6576106e56126af565b5b906000526020600020906004020160030181805461070390612400565b80601f016020809104026020016040519081016040528092919081815260200182805461072f90612400565b801561077c5780601f106107515761010080835404028352916020019161077c565b820191906000526020600020905b81548152906001019060200180831161075f57829003601f168201915b505050505091508080548060200260200160405190810160405280929190818152602001828054801561080457602002820191906000526020600020905b8160009054906101000a900473ffffffffffffffffffffffffffffffffffffffff1673ffffffffffffffffffffffffffffffffffffffff16815260200190600101908083116107ba575b5050505050905093509350935093509193509193565b60005b600380549050811015610940578173ffffffffffffffffffffffffffffffffffffffff1660038281548110610855576108546126af565b5b906000526020600020906004020160010160009054906101000a900473ffffffffffffffffffffffffffffffffffffffff1673ffffffffffffffffffffffffffffffffffffffff160361092d57600381815481106108b6576108b56126af565b5b9060005260206000209060040201600301339080600181540180825580915050600190039060005260206000200160009091909190916101000a81548173ffffffffffffffffffffffffffffffffffffffff021916908373ffffffffffffffffffffffffffffffffffffffff160217905550610940565b80806109389061280b565b91505061081d565b5050565b600c818154811061095457600080fd5b906000526020600020906004020160009150905080600001549080600101805461097d90612400565b80601f01602080910402602001604051908101604052809291908181526020018280546109a990612400565b80156109f65780601f106109cb576101008083540402835291602001916109f6565b820191906000526020600020905b8154815290600101906020018083116109d957829003601f168201915b5050505050908060020160009054906101000a900473ffffffffffffffffffffffffffffffffffffffff16908060030160009054906101000a900473ffffffffffffffffffffffffffffffffffffffff16905084565b3373ffffffffffffffffffffffffffffffffffffffff166004600089815260200190815260200160002060010160009054906101000a900473ffffffffffffffffffffffffffffffffffffffff1673ffffffffffffffffffffffffffffffffffffffff1614610af0576040517f08c379a0000000000000000000000000000000000000000000000000000000008152600401610ae79061289f565b60405180910390fd5b6000805b60038881548110610b0857610b076126af565b5b906000526020600020906004020160030180549050811015610c1f5760018981548110610b3857610b376126af565b5b906000526020600020906005020160010160009054906101000a900473ffffffffffffffffffffffffffffffffffffffff1673ffffffffffffffffffffffffffffffffffffffff1660038981548110610b9457610b936126af565b5b90600052602060002090600402016003018281548110610bb757610bb66126af565b5b9060005260206000200160009054906101000a900473ffffffffffffffffffffffffffffffffffffffff1673ffffffffffffffffffffffffffffffffffffffff1603610c065760019150610c0b565b610c0c565b5b8080610c179061280b565b915050610af4565b506001151581151514610c67576040517f08c379a0000000000000000000000000000000000000000000000000000000008152600401610c5e9061290b565b60405180910390fd5b6001151586151503610de557600d604051806080016040528085815260200186815260200160038a81548110610ca057610c9f6126af565b5b906000526020600020906004020160010160009054906101000a900473ffffffffffffffffffffffffffffffffffffffff1673ffffffffffffffffffffffffffffffffffffffff1681526020013373ffffffffffffffffffffffffffffffffffffffff1681525090806001815401808255809150506001900390600052602060002090600402016000909190919091506000820151816000019081610d4591906125dd565b506020820151816001015560408201518160020160006101000a81548173ffffffffffffffffffffffffffffffffffffffff021916908373ffffffffffffffffffffffffffffffffffffffff16021790555060608201518160030160006101000a81548173ffffffffffffffffffffffffffffffffffffffff021916908373ffffffffffffffffffffffffffffffffffffffff160217905550505061125f565b6001151585151503610f6457600c6040518060800160405280600181526020018481526020013373ffffffffffffffffffffffffffffffffffffffff16815260200160038a81548110610e3b57610e3a6126af565b5b906000526020600020906004020160010160009054906101000a900473ffffffffffffffffffffffffffffffffffffffff1673ffffffffffffffffffffffffffffffffffffffff168152509080600181540180825580915050600190039060005260206000209060040201600090919091909150600082015181600001556020820151816001019081610ece91906125dd565b5060408201518160020160006101000a81548173ffffffffffffffffffffffffffffffffffffffff021916908373ffffffffffffffffffffffffffffffffffffffff16021790555060608201518160030160006101000a81548173ffffffffffffffffffffffffffffffffffffffff021916908373ffffffffffffffffffffffffffffffffffffffff160217905550505061125e565b60011515851515148015610f7c575060011515861515145b1561125d57600d604051806080016040528085815260200186815260200160038a81548110610fae57610fad6126af565b5b906000526020600020906004020160010160009054906101000a900473ffffffffffffffffffffffffffffffffffffffff1673ffffffffffffffffffffffffffffffffffffffff1681526020013373ffffffffffffffffffffffffffffffffffffffff168152509080600181540180825580915050600190039060005260206000209060040201600090919091909150600082015181600001908161105391906125dd565b506020820151816001015560408201518160020160006101000a81548173ffffffffffffffffffffffffffffffffffffffff021916908373ffffffffffffffffffffffffffffffffffffffff16021790555060608201518160030160006101000a81548173ffffffffffffffffffffffffffffffffffffffff021916908373ffffffffffffffffffffffffffffffffffffffff1602179055505050600c6040518060800160405280600181526020018481526020013373ffffffffffffffffffffffffffffffffffffffff16815260200160038a81548110611138576111376126af565b5b906000526020600020906004020160010160009054906101000a900473ffffffffffffffffffffffffffffffffffffffff1673ffffffffffffffffffffffffffffffffffffffff1681525090806001815401808255809150506001900390600052602060002090600402016000909190919091506000820151816000015560208201518160010190816111cb91906125dd565b5060408201518160020160006101000a81548173ffffffffffffffffffffffffffffffffffffffff021916908373ffffffffffffffffffffffffffffffffffffffff16021790555060608201518160030160006101000a81548173ffffffffffffffffffffffffffffffffffffffff021916908373ffffffffffffffffffffffffffffffffffffffff16021790555050505b5b5b600260018981548110611275576112746126af565b5b90600052602060002090600502019080600181540180825580915050600190039060005260206000209060050201600090919091909150600082015481600001556001820160009054906101000a900473ffffffffffffffffffffffffffffffffffffffff168160010160006101000a81548173ffffffffffffffffffffffffffffffffffffffff021916908373ffffffffffffffffffffffffffffffffffffffff1602179055506002820181600201908161133191906126f4565b506003820181600301908054611348929190611b94565b50600482018160040190805461135f929190611b94565b5050505050505050505050565b6001818154811061137c57600080fd5b90600052602060002090600502016000915090508060000154908060010160009054906101000a900473ffffffffffffffffffffffffffffffffffffffff16908060020180546113cb90612400565b80601f01602080910402602001604051908101604052809291908181526020018280546113f790612400565b80156114445780601f1061141957610100808354040283529160200191611444565b820191906000526020600020905b81548152906001019060200180831161142757829003601f168201915b5050505050905083565b600b818154811061145e57600080fd5b906000526020600020906004020160009150905080600001549080600101805461148790612400565b80601f01602080910402602001604051908101604052809291908181526020018280546114b390612400565b80156115005780601f106114d557610100808354040283529160200191611500565b820191906000526020600020905b8154815290600101906020018083116114e357829003601f168201915b5050505050908060020160009054906101000a900473ffffffffffffffffffffffffffffffffffffffff16908060030160009054906101000a900473ffffffffffffffffffffffffffffffffffffffff16905084565b6002818154811061156657600080fd5b90600052602060002090600502016000915090508060000154908060010160009054906101000a900473ffffffffffffffffffffffffffffffffffffffff16908060020180546115b590612400565b80601f01602080910402602001604051908101604052809291908181526020018280546115e190612400565b801561162e5780601f106116035761010080835404028352916020019161162e565b820191906000526020600020905b81548152906001019060200180831161161157829003601f168201915b5050505050905083565b600a818154811061164857600080fd5b906000526020600020906004020160009150905080600001549080600101805461167190612400565b80601f016020809104026020016040519081016040528092919081815260200182805461169d90612400565b80156116ea5780601f106116bf576101008083540402835291602001916116ea565b820191906000526020600020905b8154815290600101906020018083116116cd57829003601f168201915b5050505050908060020160009054906101000a900473ffffffffffffffffffffffffffffffffffffffff16908060030160009054906101000a900473ffffffffffffffffffffffffffffffffffffffff16905084565b600d818154811061175057600080fd5b906000526020600020906004020160009150905080600001805461177390612400565b80601f016020809104026020016040519081016040528092919081815260200182805461179f90612400565b80156117ec5780601f106117c1576101008083540402835291602001916117ec565b820191906000526020600020905b8154815290600101906020018083116117cf57829003601f168201915b5050505050908060010154908060020160009054906101000a900473ffffffffffffffffffffffffffffffffffffffff16908060030160009054906101000a900473ffffffffffffffffffffffffffffffffffffffff16905084565b3373ffffffffffffffffffffffffffffffffffffffff1660008054906101000a900473ffffffffffffffffffffffffffffffffffffffff1673ffffffffffffffffffffffffffffffffffffffff16146118d6576040517f08c379a00000000000000000000000000000000000000000000000000000000081526004016118cd90612977565b60405180910390fd5b6003604051806080016040528060065481526020018473ffffffffffffffffffffffffffffffffffffffff168152602001838152602001600e80548060200260200160405190810160405280929190818152602001828054801561198f57602002820191906000526020600020905b8160009054906101000a900473ffffffffffffffffffffffffffffffffffffffff1673ffffffffffffffffffffffffffffffffffffffff1681526020019060010190808311611945575b505050505081525090806001815401808255809150506001900390600052602060002090600402016000909190919091506000820151816000015560208201518160010160006101000a81548173ffffffffffffffffffffffffffffffffffffffff021916908373ffffffffffffffffffffffffffffffffffffffff1602179055506040820151816002019081611a2691906125dd565b506060820151816003019080519060200190611a43929190611bf1565b505050600360075481548110611a5c57611a5b6126af565b5b9060005260206000209060040201600560006007548152602001908152602001600020600082015481600001556001820160009054906101000a900473ffffffffffffffffffffffffffffffffffffffff168160010160006101000a81548173ffffffffffffffffffffffffffffffffffffffff021916908373ffffffffffffffffffffffffffffffffffffffff16021790555060028201816002019081611b0491906126f4565b506003820181600301908054611b1b929190611c7b565b5090505060076000815480929190611b329061280b565b91905055505050565b828054828255906000526020600020908101928215611b83579160200282015b82811115611b82578251829081611b7291906125dd565b5091602001919060010190611b5b565b5b509050611b909190611ccd565b5090565b828054828255906000526020600020908101928215611be05760005260206000209182015b82811115611bdf5782829081611bcf91906126f4565b5091600101919060010190611bb9565b5b509050611bed9190611ccd565b5090565b828054828255906000526020600020908101928215611c6a579160200282015b82811115611c695782518260006101000a81548173ffffffffffffffffffffffffffffffffffffffff021916908373ffffffffffffffffffffffffffffffffffffffff16021790555091602001919060010190611c11565b5b509050611c779190611cf1565b5090565b828054828255906000526020600020908101928215611cbc5760005260206000209182015b82811115611cbb578254825591600101919060010190611ca0565b5b509050611cc99190611cf1565b5090565b5b80821115611ced5760008181611ce49190611d0e565b50600101611cce565b5090565b5b80821115611d0a576000816000905550600101611cf2565b5090565b508054611d1a90612400565b6000825580601f10611d2c5750611d4b565b601f016020900490600052602060002090810190611d4a9190611cf1565b5b50565b6000604051905090565b600080fd5b600080fd5b600080fd5b600080fd5b6000601f19601f8301169050919050565b7f4e487b7100000000000000000000000000000000000000000000000000000000600052604160045260246000fd5b611db582611d6c565b810181811067ffffffffffffffff82111715611dd457611dd3611d7d565b5b80604052505050565b6000611de7611d4e565b9050611df38282611dac565b919050565b600067ffffffffffffffff821115611e1357611e12611d7d565b5b611e1c82611d6c565b9050602081019050919050565b82818337600083830152505050565b6000611e4b611e4684611df8565b611ddd565b905082815260208101848484011115611e6757611e66611d67565b5b611e72848285611e29565b509392505050565b600082601f830112611e8f57611e8e611d62565b5b8135611e9f848260208601611e38565b91505092915050565b600060208284031215611ebe57611ebd611d58565b5b600082013567ffffffffffffffff811115611edc57611edb611d5d565b5b611ee884828501611e7a565b91505092915050565b6000819050919050565b611f0481611ef1565b8114611f0f57600080fd5b50565b600081359050611f2181611efb565b92915050565b600060208284031215611f3d57611f3c611d58565b5b6000611f4b84828501611f12565b91505092915050565b611f5d81611ef1565b82525050565b600073ffffffffffffffffffffffffffffffffffffffff82169050919050565b6000611f8e82611f63565b9050919050565b611f9e81611f83565b82525050565b600081519050919050565b600082825260208201905092915050565b60005b83811015611fde578082015181840152602081019050611fc3565b60008484015250505050565b6000611ff582611fa4565b611fff8185611faf565b935061200f818560208601611fc0565b61201881611d6c565b840191505092915050565b600081519050919050565b600082825260208201905092915050565b6000819050602082019050919050565b61205881611f83565b82525050565b600061206a838361204f565b60208301905092915050565b6000602082019050919050565b600061208e82612023565b612098818561202e565b93506120a38361203f565b8060005b838110156120d45781516120bb888261205e565b97506120c683612076565b9250506001810190506120a7565b5085935050505092915050565b60006080820190506120f66000830187611f54565b6121036020830186611f95565b81810360408301526121158185611fea565b905081810360608301526121298184612083565b905095945050505050565b61213d81611f83565b811461214857600080fd5b50565b60008135905061215a81612134565b92915050565b60006020828403121561217657612175611d58565b5b60006121848482850161214b565b91505092915050565b60006080820190506121a26000830187611f54565b81810360208301526121b48186611fea565b90506121c36040830185611f95565b6121d06060830184611f95565b95945050505050565b60008115159050919050565b6121ee816121d9565b81146121f957600080fd5b50565b60008135905061220b816121e5565b92915050565b600080600080600080600060e0888a0312156122305761222f611d58565b5b600061223e8a828b01611f12565b975050602061224f8a828b01611f12565b96505060406122608a828b016121fc565b95505060606122718a828b016121fc565b94505060806122828a828b01611f12565b93505060a088013567ffffffffffffffff8111156122a3576122a2611d5d565b5b6122af8a828b01611e7a565b92505060c088013567ffffffffffffffff8111156122d0576122cf611d5d565b5b6122dc8a828b01611e7a565b91505092959891949750929550565b60006060820190506123006000830186611f54565b61230d6020830185611f95565b818103604083015261231f8184611fea565b9050949350505050565b600060808201905081810360008301526123438187611fea565b90506123526020830186611f54565b61235f6040830185611f95565b61236c6060830184611f95565b95945050505050565b6000806040838503121561238c5761238b611d58565b5b600061239a8582860161214b565b925050602083013567ffffffffffffffff8111156123bb576123ba611d5d565b5b6123c785828601611e7a565b9150509250929050565b7f4e487b7100000000000000000000000000000000000000000000000000000000600052602260045260246000fd5b6000600282049050600182168061241857607f821691505b60208210810361242b5761242a6123d1565b5b50919050565b60008190508160005260206000209050919050565b60006020601f8301049050919050565b600082821b905092915050565b6000600883026124937fffffffffffffffffffffffffffffffffffffffffffffffffffffffffffffffff82612456565b61249d8683612456565b95508019841693508086168417925050509392505050565b6000819050919050565b60006124da6124d56124d084611ef1565b6124b5565b611ef1565b9050919050565b6000819050919050565b6124f4836124bf565b612508612500826124e1565b848454612463565b825550505050565b600090565b61251d612510565b6125288184846124eb565b505050565b5b8181101561254c57612541600082612515565b60018101905061252e565b5050565b601f8211156125915761256281612431565b61256b84612446565b8101602085101561257a578190505b61258e61258685612446565b83018261252d565b50505b505050565b600082821c905092915050565b60006125b460001984600802612596565b1980831691505092915050565b60006125cd83836125a3565b9150826002028217905092915050565b6125e682611fa4565b67ffffffffffffffff8111156125ff576125fe611d7d565b5b6126098254612400565b612614828285612550565b600060209050601f8311600181146126475760008415612635578287015190505b61263f85826125c1565b8655506126a7565b601f19841661265586612431565b60005b8281101561267d57848901518255600182019150602085019450602081019050612658565b8683101561269a5784890151612696601f8916826125a3565b8355505b6001600288020188555050505b505050505050565b7f4e487b7100000000000000000000000000000000000000000000000000000000600052603260045260246000fd5b6000815490506126ed81612400565b9050919050565b8181036127025750506127da565b61270b826126de565b67ffffffffffffffff81111561272457612723611d7d565b5b61272e8254612400565b612739828285612550565b6000601f8311600181146127685760008415612756578287015490505b61276085826125c1565b8655506127d3565b601f19841661277687612431565b965061278186612431565b60005b828110156127a957848901548255600182019150600185019450602081019050612784565b868310156127c657848901546127c2601f8916826125a3565b8355505b6001600288020188555050505b5050505050505b565b7f4e487b7100000000000000000000000000000000000000000000000000000000600052601160045260246000fd5b600061281682611ef1565b91507fffffffffffffffffffffffffffffffffffffffffffffffffffffffffffffffff8203612848576128476127dc565b5b600182019050919050565b7f4e6f742052656769737465726564000000000000000000000000000000000000600082015250565b6000612889600e83611faf565b915061289482612853565b602082019050919050565b600060208201905081810360008301526128b88161287c565b9050919050565b7f54616b6520616e204170706f696e746d656e6e74000000000000000000000000600082015250565b60006128f5601483611faf565b9150612900826128bf565b602082019050919050565b60006020820190508181036000830152612924816128e8565b9050919050565b7f596f7520617265206e6f7420746865206f776e65720000000000000000000000600082015250565b6000612961601583611faf565b915061296c8261292b565b602082019050919050565b6000602082019050818103600083015261299081612954565b905091905056fea26469706673582212209fd8b1e12771b8fc27b221809a5bf5547c780a411f3e87041df8baf92d083e8664736f6c63430008130033",
					"opcodes": "PUSH1 0x80 PUSH1 0x40 MSTORE PUSH1 0x0 PUSH1 0x6 SSTORE PUSH1 0x0 PUSH1 0x7 SSTORE CALLVALUE DUP1 ISZERO PUSH2 0x1A JUMPI PUSH1 0x0 DUP1 REVERT JUMPDEST POP CALLER PUSH1 0x0 DUP1 PUSH2 0x100 EXP DUP2 SLOAD DUP2 PUSH20 0xFFFFFFFFFFFFFFFFFFFFFFFFFFFFFFFFFFFFFFFF MUL NOT AND SWAP1 DUP4 PUSH20 0xFFFFFFFFFFFFFFFFFFFFFFFFFFFFFFFFFFFFFFFF AND MUL OR SWAP1 SSTORE POP PUSH2 0x29CD DUP1 PUSH2 0x6A PUSH1 0x0 CODECOPY PUSH1 0x0 RETURN INVALID PUSH1 0x80 PUSH1 0x40 MSTORE CALLVALUE DUP1 ISZERO PUSH2 0x10 JUMPI PUSH1 0x0 DUP1 REVERT JUMPDEST POP PUSH1 0x4 CALLDATASIZE LT PUSH2 0xA9 JUMPI PUSH1 0x0 CALLDATALOAD PUSH1 0xE0 SHR DUP1 PUSH4 0x93119A83 GT PUSH2 0x71 JUMPI DUP1 PUSH4 0x93119A83 EQ PUSH2 0x168 JUMPI DUP1 PUSH4 0xB6D175EB EQ PUSH2 0x19A JUMPI DUP1 PUSH4 0xC0F801DE EQ PUSH2 0x1CD JUMPI DUP1 PUSH4 0xD85680DA EQ PUSH2 0x1FF JUMPI DUP1 PUSH4 0xDE24930B EQ PUSH2 0x232 JUMPI DUP1 PUSH4 0xEA4BF49A EQ PUSH2 0x265 JUMPI PUSH2 0xA9 JUMP JUMPDEST DUP1 PUSH4 0x365AF9D3 EQ PUSH2 0xAE JUMPI DUP1 PUSH4 0x4B0A7573 EQ PUSH2 0xCA JUMPI DUP1 PUSH4 0x68F4E963 EQ PUSH2 0xFD JUMPI DUP1 PUSH4 0x84728EF6 EQ PUSH2 0x119 JUMPI DUP1 PUSH4 0x86E758F2 EQ PUSH2 0x14C JUMPI JUMPDEST PUSH1 0x0 DUP1 REVERT JUMPDEST PUSH2 0xC8 PUSH1 0x4 DUP1 CALLDATASIZE SUB DUP2 ADD SWAP1 PUSH2 0xC3 SWAP2 SWAP1 PUSH2 0x1EA8 JUMP JUMPDEST PUSH2 0x281 JUMP JUMPDEST STOP JUMPDEST PUSH2 0xE4 PUSH1 0x4 DUP1 CALLDATASIZE SUB DUP2 ADD SWAP1 PUSH2 0xDF SWAP2 SWAP1 PUSH2 0x1F27 JUMP JUMPDEST PUSH2 0x63B JUMP JUMPDEST PUSH1 0x40 MLOAD PUSH2 0xF4 SWAP5 SWAP4 SWAP3 SWAP2 SWAP1 PUSH2 0x20E1 JUMP JUMPDEST PUSH1 0x40 MLOAD DUP1 SWAP2 SUB SWAP1 RETURN JUMPDEST PUSH2 0x117 PUSH1 0x4 DUP1 CALLDATASIZE SUB DUP2 ADD SWAP1 PUSH2 0x112 SWAP2 SWAP1 PUSH2 0x2160 JUMP JUMPDEST PUSH2 0x81A JUMP JUMPDEST STOP JUMPDEST PUSH2 0x133 PUSH1 0x4 DUP1 CALLDATASIZE SUB DUP2 ADD SWAP1 PUSH2 0x12E SWAP2 SWAP1 PUSH2 0x1F27 JUMP JUMPDEST PUSH2 0x944 JUMP JUMPDEST PUSH1 0x40 MLOAD PUSH2 0x143 SWAP5 SWAP4 SWAP3 SWAP2 SWAP1 PUSH2 0x218D JUMP JUMPDEST PUSH1 0x40 MLOAD DUP1 SWAP2 SUB SWAP1 RETURN JUMPDEST PUSH2 0x166 PUSH1 0x4 DUP1 CALLDATASIZE SUB DUP2 ADD SWAP1 PUSH2 0x161 SWAP2 SWAP1 PUSH2 0x2211 JUMP JUMPDEST PUSH2 0xA4C JUMP JUMPDEST STOP JUMPDEST PUSH2 0x182 PUSH1 0x4 DUP1 CALLDATASIZE SUB DUP2 ADD SWAP1 PUSH2 0x17D SWAP2 SWAP1 PUSH2 0x1F27 JUMP JUMPDEST PUSH2 0x136C JUMP JUMPDEST PUSH1 0x40 MLOAD PUSH2 0x191 SWAP4 SWAP3 SWAP2 SWAP1 PUSH2 0x22EB JUMP JUMPDEST PUSH1 0x40 MLOAD DUP1 SWAP2 SUB SWAP1 RETURN JUMPDEST PUSH2 0x1B4 PUSH1 0x4 DUP1 CALLDATASIZE SUB DUP2 ADD SWAP1 PUSH2 0x1AF SWAP2 SWAP1 PUSH2 0x1F27 JUMP JUMPDEST PUSH2 0x144E JUMP JUMPDEST PUSH1 0x40 MLOAD PUSH2 0x1C4 SWAP5 SWAP4 SWAP3 SWAP2 SWAP1 PUSH2 0x218D JUMP JUMPDEST PUSH1 0x40 MLOAD DUP1 SWAP2 SUB SWAP1 RETURN JUMPDEST PUSH2 0x1E7 PUSH1 0x4 DUP1 CALLDATASIZE SUB DUP2 ADD SWAP1 PUSH2 0x1E2 SWAP2 SWAP1 PUSH2 0x1F27 JUMP JUMPDEST PUSH2 0x1556 JUMP JUMPDEST PUSH1 0x40 MLOAD PUSH2 0x1F6 SWAP4 SWAP3 SWAP2 SWAP1 PUSH2 0x22EB JUMP JUMPDEST PUSH1 0x40 MLOAD DUP1 SWAP2 SUB SWAP1 RETURN JUMPDEST PUSH2 0x219 PUSH1 0x4 DUP1 CALLDATASIZE SUB DUP2 ADD SWAP1 PUSH2 0x214 SWAP2 SWAP1 PUSH2 0x1F27 JUMP JUMPDEST PUSH2 0x1638 JUMP JUMPDEST PUSH1 0x40 MLOAD PUSH2 0x229 SWAP5 SWAP4 SWAP3 SWAP2 SWAP1 PUSH2 0x218D JUMP JUMPDEST PUSH1 0x40 MLOAD DUP1 SWAP2 SUB SWAP1 RETURN JUMPDEST PUSH2 0x24C PUSH1 0x4 DUP1 CALLDATASIZE SUB DUP2 ADD SWAP1 PUSH2 0x247 SWAP2 SWAP1 PUSH2 0x1F27 JUMP JUMPDEST PUSH2 0x1740 JUMP JUMPDEST PUSH1 0x40 MLOAD PUSH2 0x25C SWAP5 SWAP4 SWAP3 SWAP2 SWAP1 PUSH2 0x2329 JUMP JUMPDEST PUSH1 0x40 MLOAD DUP1 SWAP2 SUB SWAP1 RETURN JUMPDEST PUSH2 0x27F PUSH1 0x4 DUP1 CALLDATASIZE SUB DUP2 ADD SWAP1 PUSH2 0x27A SWAP2 SWAP1 PUSH2 0x2375 JUMP JUMPDEST PUSH2 0x1848 JUMP JUMPDEST STOP JUMPDEST PUSH1 0x1 PUSH1 0x40 MLOAD DUP1 PUSH1 0xA0 ADD PUSH1 0x40 MSTORE DUP1 PUSH1 0x6 SLOAD DUP2 MSTORE PUSH1 0x20 ADD CALLER PUSH20 0xFFFFFFFFFFFFFFFFFFFFFFFFFFFFFFFFFFFFFFFF AND DUP2 MSTORE PUSH1 0x20 ADD DUP4 DUP2 MSTORE PUSH1 0x20 ADD PUSH1 0x8 DUP1 SLOAD DUP1 PUSH1 0x20 MUL PUSH1 0x20 ADD PUSH1 0x40 MLOAD SWAP1 DUP2 ADD PUSH1 0x40 MSTORE DUP1 SWAP3 SWAP2 SWAP1 DUP2 DUP2 MSTORE PUSH1 0x20 ADD PUSH1 0x0 SWAP1 JUMPDEST DUP3 DUP3 LT ISZERO PUSH2 0x386 JUMPI DUP4 DUP3 SWAP1 PUSH1 0x0 MSTORE PUSH1 0x20 PUSH1 0x0 KECCAK256 ADD DUP1 SLOAD PUSH2 0x2F9 SWAP1 PUSH2 0x2400 JUMP JUMPDEST DUP1 PUSH1 0x1F ADD PUSH1 0x20 DUP1 SWAP2 DIV MUL PUSH1 0x20 ADD PUSH1 0x40 MLOAD SWAP1 DUP2 ADD PUSH1 0x40 MSTORE DUP1 SWAP3 SWAP2 SWAP1 DUP2 DUP2 MSTORE PUSH1 0x20 ADD DUP3 DUP1 SLOAD PUSH2 0x325 SWAP1 PUSH2 0x2400 JUMP JUMPDEST DUP1 ISZERO PUSH2 0x372 JUMPI DUP1 PUSH1 0x1F LT PUSH2 0x347 JUMPI PUSH2 0x100 DUP1 DUP4 SLOAD DIV MUL DUP4 MSTORE SWAP2 PUSH1 0x20 ADD SWAP2 PUSH2 0x372 JUMP JUMPDEST DUP3 ADD SWAP2 SWAP1 PUSH1 0x0 MSTORE PUSH1 0x20 PUSH1 0x0 KECCAK256 SWAP1 JUMPDEST DUP2 SLOAD DUP2 MSTORE SWAP1 PUSH1 0x1 ADD SWAP1 PUSH1 0x20 ADD DUP1 DUP4 GT PUSH2 0x355 JUMPI DUP3 SWAP1 SUB PUSH1 0x1F AND DUP3 ADD SWAP2 JUMPDEST POP POP POP POP POP DUP2 MSTORE PUSH1 0x20 ADD SWAP1 PUSH1 0x1 ADD SWAP1 PUSH2 0x2DA JUMP JUMPDEST POP POP POP POP DUP2 MSTORE PUSH1 0x20 ADD PUSH1 0x9 DUP1 SLOAD DUP1 PUSH1 0x20 MUL PUSH1 0x20 ADD PUSH1 0x40 MLOAD SWAP1 DUP2 ADD PUSH1 0x40 MSTORE DUP1 SWAP3 SWAP2 SWAP1 DUP2 DUP2 MSTORE PUSH1 0x20 ADD PUSH1 0x0 SWAP1 JUMPDEST DUP3 DUP3 LT ISZERO PUSH2 0x45D JUMPI DUP4 DUP3 SWAP1 PUSH1 0x0 MSTORE PUSH1 0x20 PUSH1 0x0 KECCAK256 ADD DUP1 SLOAD PUSH2 0x3D0 SWAP1 PUSH2 0x2400 JUMP JUMPDEST DUP1 PUSH1 0x1F ADD PUSH1 0x20 DUP1 SWAP2 DIV MUL PUSH1 0x20 ADD PUSH1 0x40 MLOAD SWAP1 DUP2 ADD PUSH1 0x40 MSTORE DUP1 SWAP3 SWAP2 SWAP1 DUP2 DUP2 MSTORE PUSH1 0x20 ADD DUP3 DUP1 SLOAD PUSH2 0x3FC SWAP1 PUSH2 0x2400 JUMP JUMPDEST DUP1 ISZERO PUSH2 0x449 JUMPI DUP1 PUSH1 0x1F LT PUSH2 0x41E JUMPI PUSH2 0x100 DUP1 DUP4 SLOAD DIV MUL DUP4 MSTORE SWAP2 PUSH1 0x20 ADD SWAP2 PUSH2 0x449 JUMP JUMPDEST DUP3 ADD SWAP2 SWAP1 PUSH1 0x0 MSTORE PUSH1 0x20 PUSH1 0x0 KECCAK256 SWAP1 JUMPDEST DUP2 SLOAD DUP2 MSTORE SWAP1 PUSH1 0x1 ADD SWAP1 PUSH1 0x20 ADD DUP1 DUP4 GT PUSH2 0x42C JUMPI DUP3 SWAP1 SUB PUSH1 0x1F AND DUP3 ADD SWAP2 JUMPDEST POP POP POP POP POP DUP2 MSTORE PUSH1 0x20 ADD SWAP1 PUSH1 0x1 ADD SWAP1 PUSH2 0x3B1 JUMP JUMPDEST POP POP POP POP DUP2 MSTORE POP SWAP1 DUP1 PUSH1 0x1 DUP2 SLOAD ADD DUP1 DUP3 SSTORE DUP1 SWAP2 POP POP PUSH1 0x1 SWAP1 SUB SWAP1 PUSH1 0x0 MSTORE PUSH1 0x20 PUSH1 0x0 KECCAK256 SWAP1 PUSH1 0x5 MUL ADD PUSH1 0x0 SWAP1 SWAP2 SWAP1 SWAP2 SWAP1 SWAP2 POP PUSH1 0x0 DUP3 ADD MLOAD DUP2 PUSH1 0x0 ADD SSTORE PUSH1 0x20 DUP3 ADD MLOAD DUP2 PUSH1 0x1 ADD PUSH1 0x0 PUSH2 0x100 EXP DUP2 SLOAD DUP2 PUSH20 0xFFFFFFFFFFFFFFFFFFFFFFFFFFFFFFFFFFFFFFFF MUL NOT AND SWAP1 DUP4 PUSH20 0xFFFFFFFFFFFFFFFFFFFFFFFFFFFFFFFFFFFFFFFF AND MUL OR SWAP1 SSTORE POP PUSH1 0x40 DUP3 ADD MLOAD DUP2 PUSH1 0x2 ADD SWAP1 DUP2 PUSH2 0x4F3 SWAP2 SWAP1 PUSH2 0x25DD JUMP JUMPDEST POP PUSH1 0x60 DUP3 ADD MLOAD DUP2 PUSH1 0x3 ADD SWAP1 DUP1 MLOAD SWAP1 PUSH1 0x20 ADD SWAP1 PUSH2 0x510 SWAP3 SWAP2 SWAP1 PUSH2 0x1B3B JUMP JUMPDEST POP PUSH1 0x80 DUP3 ADD MLOAD DUP2 PUSH1 0x4 ADD SWAP1 DUP1 MLOAD SWAP1 PUSH1 0x20 ADD SWAP1 PUSH2 0x52D SWAP3 SWAP2 SWAP1 PUSH2 0x1B3B JUMP JUMPDEST POP POP POP PUSH1 0x1 PUSH1 0x6 SLOAD DUP2 SLOAD DUP2 LT PUSH2 0x546 JUMPI PUSH2 0x545 PUSH2 0x26AF JUMP JUMPDEST JUMPDEST SWAP1 PUSH1 0x0 MSTORE PUSH1 0x20 PUSH1 0x0 KECCAK256 SWAP1 PUSH1 0x5 MUL ADD PUSH1 0x4 PUSH1 0x0 PUSH1 0x6 SLOAD DUP2 MSTORE PUSH1 0x20 ADD SWAP1 DUP2 MSTORE PUSH1 0x20 ADD PUSH1 0x0 KECCAK256 PUSH1 0x0 DUP3 ADD SLOAD DUP2 PUSH1 0x0 ADD SSTORE PUSH1 0x1 DUP3 ADD PUSH1 0x0 SWAP1 SLOAD SWAP1 PUSH2 0x100 EXP SWAP1 DIV PUSH20 0xFFFFFFFFFFFFFFFFFFFFFFFFFFFFFFFFFFFFFFFF AND DUP2 PUSH1 0x1 ADD PUSH1 0x0 PUSH2 0x100 EXP DUP2 SLOAD DUP2 PUSH20 0xFFFFFFFFFFFFFFFFFFFFFFFFFFFFFFFFFFFFFFFF MUL NOT AND SWAP1 DUP4 PUSH20 0xFFFFFFFFFFFFFFFFFFFFFFFFFFFFFFFFFFFFFFFF AND MUL OR SWAP1 SSTORE POP PUSH1 0x2 DUP3 ADD DUP2 PUSH1 0x2 ADD SWAP1 DUP2 PUSH2 0x5EE SWAP2 SWAP1 PUSH2 0x26F4 JUMP JUMPDEST POP PUSH1 0x3 DUP3 ADD DUP2 PUSH1 0x3 ADD SWAP1 DUP1 SLOAD PUSH2 0x605 SWAP3 SWAP2 SWAP1 PUSH2 0x1B94 JUMP JUMPDEST POP PUSH1 0x4 DUP3 ADD DUP2 PUSH1 0x4 ADD SWAP1 DUP1 SLOAD PUSH2 0x61C SWAP3 SWAP2 SWAP1 PUSH2 0x1B94 JUMP JUMPDEST POP SWAP1 POP POP PUSH1 0x6 PUSH1 0x0 DUP2 SLOAD DUP1 SWAP3 SWAP2 SWAP1 PUSH2 0x633 SWAP1 PUSH2 0x280B JUMP JUMPDEST SWAP2 SWAP1 POP SSTORE POP POP JUMP JUMPDEST PUSH1 0x0 DUP1 PUSH1 0x60 DUP1 PUSH1 0x3 DUP6 DUP2 SLOAD DUP2 LT PUSH2 0x655 JUMPI PUSH2 0x654 PUSH2 0x26AF JUMP JUMPDEST JUMPDEST SWAP1 PUSH1 0x0 MSTORE PUSH1 0x20 PUSH1 0x0 KECCAK256 SWAP1 PUSH1 0x4 MUL ADD PUSH1 0x0 ADD SLOAD PUSH1 0x3 DUP7 DUP2 SLOAD DUP2 LT PUSH2 0x67B JUMPI PUSH2 0x67A PUSH2 0x26AF JUMP JUMPDEST JUMPDEST SWAP1 PUSH1 0x0 MSTORE PUSH1 0x20 PUSH1 0x0 KECCAK256 SWAP1 PUSH1 0x4 MUL ADD PUSH1 0x1 ADD PUSH1 0x0 SWAP1 SLOAD SWAP1 PUSH2 0x100 EXP SWAP1 DIV PUSH20 0xFFFFFFFFFFFFFFFFFFFFFFFFFFFFFFFFFFFFFFFF AND PUSH1 0x3 DUP8 DUP2 SLOAD DUP2 LT PUSH2 0x6C1 JUMPI PUSH2 0x6C0 PUSH2 0x26AF JUMP JUMPDEST JUMPDEST SWAP1 PUSH1 0x0 MSTORE PUSH1 0x20 PUSH1 0x0 KECCAK256 SWAP1 PUSH1 0x4 MUL ADD PUSH1 0x2 ADD PUSH1 0x3 DUP9 DUP2 SLOAD DUP2 LT PUSH2 0x6E6 JUMPI PUSH2 0x6E5 PUSH2 0x26AF JUMP JUMPDEST JUMPDEST SWAP1 PUSH1 0x0 MSTORE PUSH1 0x20 PUSH1 0x0 KECCAK256 SWAP1 PUSH1 0x4 MUL ADD PUSH1 0x3 ADD DUP2 DUP1 SLOAD PUSH2 0x703 SWAP1 PUSH2 0x2400 JUMP JUMPDEST DUP1 PUSH1 0x1F ADD PUSH1 0x20 DUP1 SWAP2 DIV MUL PUSH1 0x20 ADD PUSH1 0x40 MLOAD SWAP1 DUP2 ADD PUSH1 0x40 MSTORE DUP1 SWAP3 SWAP2 SWAP1 DUP2 DUP2 MSTORE PUSH1 0x20 ADD DUP3 DUP1 SLOAD PUSH2 0x72F SWAP1 PUSH2 0x2400 JUMP JUMPDEST DUP1 ISZERO PUSH2 0x77C JUMPI DUP1 PUSH1 0x1F LT PUSH2 0x751 JUMPI PUSH2 0x100 DUP1 DUP4 SLOAD DIV MUL DUP4 MSTORE SWAP2 PUSH1 0x20 ADD SWAP2 PUSH2 0x77C JUMP JUMPDEST DUP3 ADD SWAP2 SWAP1 PUSH1 0x0 MSTORE PUSH1 0x20 PUSH1 0x0 KECCAK256 SWAP1 JUMPDEST DUP2 SLOAD DUP2 MSTORE SWAP1 PUSH1 0x1 ADD SWAP1 PUSH1 0x20 ADD DUP1 DUP4 GT PUSH2 0x75F JUMPI DUP3 SWAP1 SUB PUSH1 0x1F AND DUP3 ADD SWAP2 JUMPDEST POP POP POP POP POP SWAP2 POP DUP1 DUP1 SLOAD DUP1 PUSH1 0x20 MUL PUSH1 0x20 ADD PUSH1 0x40 MLOAD SWAP1 DUP2 ADD PUSH1 0x40 MSTORE DUP1 SWAP3 SWAP2 SWAP1 DUP2 DUP2 MSTORE PUSH1 0x20 ADD DUP3 DUP1 SLOAD DUP1 ISZERO PUSH2 0x804 JUMPI PUSH1 0x20 MUL DUP3 ADD SWAP2 SWAP1 PUSH1 0x0 MSTORE PUSH1 0x20 PUSH1 0x0 KECCAK256 SWAP1 JUMPDEST DUP2 PUSH1 0x0 SWAP1 SLOAD SWAP1 PUSH2 0x100 EXP SWAP1 DIV PUSH20 0xFFFFFFFFFFFFFFFFFFFFFFFFFFFFFFFFFFFFFFFF AND PUSH20 0xFFFFFFFFFFFFFFFFFFFFFFFFFFFFFFFFFFFFFFFF AND DUP2 MSTORE PUSH1 0x20 ADD SWAP1 PUSH1 0x1 ADD SWAP1 DUP1 DUP4 GT PUSH2 0x7BA JUMPI JUMPDEST POP POP POP POP POP SWAP1 POP SWAP4 POP SWAP4 POP SWAP4 POP SWAP4 POP SWAP2 SWAP4 POP SWAP2 SWAP4 JUMP JUMPDEST PUSH1 0x0 JUMPDEST PUSH1 0x3 DUP1 SLOAD SWAP1 POP DUP2 LT ISZERO PUSH2 0x940 JUMPI DUP2 PUSH20 0xFFFFFFFFFFFFFFFFFFFFFFFFFFFFFFFFFFFFFFFF AND PUSH1 0x3 DUP3 DUP2 SLOAD DUP2 LT PUSH2 0x855 JUMPI PUSH2 0x854 PUSH2 0x26AF JUMP JUMPDEST JUMPDEST SWAP1 PUSH1 0x0 MSTORE PUSH1 0x20 PUSH1 0x0 KECCAK256 SWAP1 PUSH1 0x4 MUL ADD PUSH1 0x1 ADD PUSH1 0x0 SWAP1 SLOAD SWAP1 PUSH2 0x100 EXP SWAP1 DIV PUSH20 0xFFFFFFFFFFFFFFFFFFFFFFFFFFFFFFFFFFFFFFFF AND PUSH20 0xFFFFFFFFFFFFFFFFFFFFFFFFFFFFFFFFFFFFFFFF AND SUB PUSH2 0x92D JUMPI PUSH1 0x3 DUP2 DUP2 SLOAD DUP2 LT PUSH2 0x8B6 JUMPI PUSH2 0x8B5 PUSH2 0x26AF JUMP JUMPDEST JUMPDEST SWAP1 PUSH1 0x0 MSTORE PUSH1 0x20 PUSH1 0x0 KECCAK256 SWAP1 PUSH1 0x4 MUL ADD PUSH1 0x3 ADD CALLER SWAP1 DUP1 PUSH1 0x1 DUP2 SLOAD ADD DUP1 DUP3 SSTORE DUP1 SWAP2 POP POP PUSH1 0x1 SWAP1 SUB SWAP1 PUSH1 0x0 MSTORE PUSH1 0x20 PUSH1 0x0 KECCAK256 ADD PUSH1 0x0 SWAP1 SWAP2 SWAP1 SWAP2 SWAP1 SWAP2 PUSH2 0x100 EXP DUP2 SLOAD DUP2 PUSH20 0xFFFFFFFFFFFFFFFFFFFFFFFFFFFFFFFFFFFFFFFF MUL NOT AND SWAP1 DUP4 PUSH20 0xFFFFFFFFFFFFFFFFFFFFFFFFFFFFFFFFFFFFFFFF AND MUL OR SWAP1 SSTORE POP PUSH2 0x940 JUMP JUMPDEST DUP1 DUP1 PUSH2 0x938 SWAP1 PUSH2 0x280B JUMP JUMPDEST SWAP2 POP POP PUSH2 0x81D JUMP JUMPDEST POP POP JUMP JUMPDEST PUSH1 0xC DUP2 DUP2 SLOAD DUP2 LT PUSH2 0x954 JUMPI PUSH1 0x0 DUP1 REVERT JUMPDEST SWAP1 PUSH1 0x0 MSTORE PUSH1 0x20 PUSH1 0x0 KECCAK256 SWAP1 PUSH1 0x4 MUL ADD PUSH1 0x0 SWAP2 POP SWAP1 POP DUP1 PUSH1 0x0 ADD SLOAD SWAP1 DUP1 PUSH1 0x1 ADD DUP1 SLOAD PUSH2 0x97D SWAP1 PUSH2 0x2400 JUMP JUMPDEST DUP1 PUSH1 0x1F ADD PUSH1 0x20 DUP1 SWAP2 DIV MUL PUSH1 0x20 ADD PUSH1 0x40 MLOAD SWAP1 DUP2 ADD PUSH1 0x40 MSTORE DUP1 SWAP3 SWAP2 SWAP1 DUP2 DUP2 MSTORE PUSH1 0x20 ADD DUP3 DUP1 SLOAD PUSH2 0x9A9 SWAP1 PUSH2 0x2400 JUMP JUMPDEST DUP1 ISZERO PUSH2 0x9F6 JUMPI DUP1 PUSH1 0x1F LT PUSH2 0x9CB JUMPI PUSH2 0x100 DUP1 DUP4 SLOAD DIV MUL DUP4 MSTORE SWAP2 PUSH1 0x20 ADD SWAP2 PUSH2 0x9F6 JUMP JUMPDEST DUP3 ADD SWAP2 SWAP1 PUSH1 0x0 MSTORE PUSH1 0x20 PUSH1 0x0 KECCAK256 SWAP1 JUMPDEST DUP2 SLOAD DUP2 MSTORE SWAP1 PUSH1 0x1 ADD SWAP1 PUSH1 0x20 ADD DUP1 DUP4 GT PUSH2 0x9D9 JUMPI DUP3 SWAP1 SUB PUSH1 0x1F AND DUP3 ADD SWAP2 JUMPDEST POP POP POP POP POP SWAP1 DUP1 PUSH1 0x2 ADD PUSH1 0x0 SWAP1 SLOAD SWAP1 PUSH2 0x100 EXP SWAP1 DIV PUSH20 0xFFFFFFFFFFFFFFFFFFFFFFFFFFFFFFFFFFFFFFFF AND SWAP1 DUP1 PUSH1 0x3 ADD PUSH1 0x0 SWAP1 SLOAD SWAP1 PUSH2 0x100 EXP SWAP1 DIV PUSH20 0xFFFFFFFFFFFFFFFFFFFFFFFFFFFFFFFFFFFFFFFF AND SWAP1 POP DUP5 JUMP JUMPDEST CALLER PUSH20 0xFFFFFFFFFFFFFFFFFFFFFFFFFFFFFFFFFFFFFFFF AND PUSH1 0x4 PUSH1 0x0 DUP10 DUP2 MSTORE PUSH1 0x20 ADD SWAP1 DUP2 MSTORE PUSH1 0x20 ADD PUSH1 0x0 KECCAK256 PUSH1 0x1 ADD PUSH1 0x0 SWAP1 SLOAD SWAP1 PUSH2 0x100 EXP SWAP1 DIV PUSH20 0xFFFFFFFFFFFFFFFFFFFFFFFFFFFFFFFFFFFFFFFF AND PUSH20 0xFFFFFFFFFFFFFFFFFFFFFFFFFFFFFFFFFFFFFFFF AND EQ PUSH2 0xAF0 JUMPI PUSH1 0x40 MLOAD PUSH32 0x8C379A000000000000000000000000000000000000000000000000000000000 DUP2 MSTORE PUSH1 0x4 ADD PUSH2 0xAE7 SWAP1 PUSH2 0x289F JUMP JUMPDEST PUSH1 0x40 MLOAD DUP1 SWAP2 SUB SWAP1 REVERT JUMPDEST PUSH1 0x0 DUP1 JUMPDEST PUSH1 0x3 DUP9 DUP2 SLOAD DUP2 LT PUSH2 0xB08 JUMPI PUSH2 0xB07 PUSH2 0x26AF JUMP JUMPDEST JUMPDEST SWAP1 PUSH1 0x0 MSTORE PUSH1 0x20 PUSH1 0x0 KECCAK256 SWAP1 PUSH1 0x4 MUL ADD PUSH1 0x3 ADD DUP1 SLOAD SWAP1 POP DUP2 LT ISZERO PUSH2 0xC1F JUMPI PUSH1 0x1 DUP10 DUP2 SLOAD DUP2 LT PUSH2 0xB38 JUMPI PUSH2 0xB37 PUSH2 0x26AF JUMP JUMPDEST JUMPDEST SWAP1 PUSH1 0x0 MSTORE PUSH1 0x20 PUSH1 0x0 KECCAK256 SWAP1 PUSH1 0x5 MUL ADD PUSH1 0x1 ADD PUSH1 0x0 SWAP1 SLOAD SWAP1 PUSH2 0x100 EXP SWAP1 DIV PUSH20 0xFFFFFFFFFFFFFFFFFFFFFFFFFFFFFFFFFFFFFFFF AND PUSH20 0xFFFFFFFFFFFFFFFFFFFFFFFFFFFFFFFFFFFFFFFF AND PUSH1 0x3 DUP10 DUP2 SLOAD DUP2 LT PUSH2 0xB94 JUMPI PUSH2 0xB93 PUSH2 0x26AF JUMP JUMPDEST JUMPDEST SWAP1 PUSH1 0x0 MSTORE PUSH1 0x20 PUSH1 0x0 KECCAK256 SWAP1 PUSH1 0x4 MUL ADD PUSH1 0x3 ADD DUP3 DUP2 SLOAD DUP2 LT PUSH2 0xBB7 JUMPI PUSH2 0xBB6 PUSH2 0x26AF JUMP JUMPDEST JUMPDEST SWAP1 PUSH1 0x0 MSTORE PUSH1 0x20 PUSH1 0x0 KECCAK256 ADD PUSH1 0x0 SWAP1 SLOAD SWAP1 PUSH2 0x100 EXP SWAP1 DIV PUSH20 0xFFFFFFFFFFFFFFFFFFFFFFFFFFFFFFFFFFFFFFFF AND PUSH20 0xFFFFFFFFFFFFFFFFFFFFFFFFFFFFFFFFFFFFFFFF AND SUB PUSH2 0xC06 JUMPI PUSH1 0x1 SWAP2 POP PUSH2 0xC0B JUMP JUMPDEST PUSH2 0xC0C JUMP JUMPDEST JUMPDEST DUP1 DUP1 PUSH2 0xC17 SWAP1 PUSH2 0x280B JUMP JUMPDEST SWAP2 POP POP PUSH2 0xAF4 JUMP JUMPDEST POP PUSH1 0x1 ISZERO ISZERO DUP2 ISZERO ISZERO EQ PUSH2 0xC67 JUMPI PUSH1 0x40 MLOAD PUSH32 0x8C379A000000000000000000000000000000000000000000000000000000000 DUP2 MSTORE PUSH1 0x4 ADD PUSH2 0xC5E SWAP1 PUSH2 0x290B JUMP JUMPDEST PUSH1 0x40 MLOAD DUP1 SWAP2 SUB SWAP1 REVERT JUMPDEST PUSH1 0x1 ISZERO ISZERO DUP7 ISZERO ISZERO SUB PUSH2 0xDE5 JUMPI PUSH1 0xD PUSH1 0x40 MLOAD DUP1 PUSH1 0x80 ADD PUSH1 0x40 MSTORE DUP1 DUP6 DUP2 MSTORE PUSH1 0x20 ADD DUP7 DUP2 MSTORE PUSH1 0x20 ADD PUSH1 0x3 DUP11 DUP2 SLOAD DUP2 LT PUSH2 0xCA0 JUMPI PUSH2 0xC9F PUSH2 0x26AF JUMP JUMPDEST JUMPDEST SWAP1 PUSH1 0x0 MSTORE PUSH1 0x20 PUSH1 0x0 KECCAK256 SWAP1 PUSH1 0x4 MUL ADD PUSH1 0x1 ADD PUSH1 0x0 SWAP1 SLOAD SWAP1 PUSH2 0x100 EXP SWAP1 DIV PUSH20 0xFFFFFFFFFFFFFFFFFFFFFFFFFFFFFFFFFFFFFFFF AND PUSH20 0xFFFFFFFFFFFFFFFFFFFFFFFFFFFFFFFFFFFFFFFF AND DUP2 MSTORE PUSH1 0x20 ADD CALLER PUSH20 0xFFFFFFFFFFFFFFFFFFFFFFFFFFFFFFFFFFFFFFFF AND DUP2 MSTORE POP SWAP1 DUP1 PUSH1 0x1 DUP2 SLOAD ADD DUP1 DUP3 SSTORE DUP1 SWAP2 POP POP PUSH1 0x1 SWAP1 SUB SWAP1 PUSH1 0x0 MSTORE PUSH1 0x20 PUSH1 0x0 KECCAK256 SWAP1 PUSH1 0x4 MUL ADD PUSH1 0x0 SWAP1 SWAP2 SWAP1 SWAP2 SWAP1 SWAP2 POP PUSH1 0x0 DUP3 ADD MLOAD DUP2 PUSH1 0x0 ADD SWAP1 DUP2 PUSH2 0xD45 SWAP2 SWAP1 PUSH2 0x25DD JUMP JUMPDEST POP PUSH1 0x20 DUP3 ADD MLOAD DUP2 PUSH1 0x1 ADD SSTORE PUSH1 0x40 DUP3 ADD MLOAD DUP2 PUSH1 0x2 ADD PUSH1 0x0 PUSH2 0x100 EXP DUP2 SLOAD DUP2 PUSH20 0xFFFFFFFFFFFFFFFFFFFFFFFFFFFFFFFFFFFFFFFF MUL NOT AND SWAP1 DUP4 PUSH20 0xFFFFFFFFFFFFFFFFFFFFFFFFFFFFFFFFFFFFFFFF AND MUL OR SWAP1 SSTORE POP PUSH1 0x60 DUP3 ADD MLOAD DUP2 PUSH1 0x3 ADD PUSH1 0x0 PUSH2 0x100 EXP DUP2 SLOAD DUP2 PUSH20 0xFFFFFFFFFFFFFFFFFFFFFFFFFFFFFFFFFFFFFFFF MUL NOT AND SWAP1 DUP4 PUSH20 0xFFFFFFFFFFFFFFFFFFFFFFFFFFFFFFFFFFFFFFFF AND MUL OR SWAP1 SSTORE POP POP POP PUSH2 0x125F JUMP JUMPDEST PUSH1 0x1 ISZERO ISZERO DUP6 ISZERO ISZERO SUB PUSH2 0xF64 JUMPI PUSH1 0xC PUSH1 0x40 MLOAD DUP1 PUSH1 0x80 ADD PUSH1 0x40 MSTORE DUP1 PUSH1 0x1 DUP2 MSTORE PUSH1 0x20 ADD DUP5 DUP2 MSTORE PUSH1 0x20 ADD CALLER PUSH20 0xFFFFFFFFFFFFFFFFFFFFFFFFFFFFFFFFFFFFFFFF AND DUP2 MSTORE PUSH1 0x20 ADD PUSH1 0x3 DUP11 DUP2 SLOAD DUP2 LT PUSH2 0xE3B JUMPI PUSH2 0xE3A PUSH2 0x26AF JUMP JUMPDEST JUMPDEST SWAP1 PUSH1 0x0 MSTORE PUSH1 0x20 PUSH1 0x0 KECCAK256 SWAP1 PUSH1 0x4 MUL ADD PUSH1 0x1 ADD PUSH1 0x0 SWAP1 SLOAD SWAP1 PUSH2 0x100 EXP SWAP1 DIV PUSH20 0xFFFFFFFFFFFFFFFFFFFFFFFFFFFFFFFFFFFFFFFF AND PUSH20 0xFFFFFFFFFFFFFFFFFFFFFFFFFFFFFFFFFFFFFFFF AND DUP2 MSTORE POP SWAP1 DUP1 PUSH1 0x1 DUP2 SLOAD ADD DUP1 DUP3 SSTORE DUP1 SWAP2 POP POP PUSH1 0x1 SWAP1 SUB SWAP1 PUSH1 0x0 MSTORE PUSH1 0x20 PUSH1 0x0 KECCAK256 SWAP1 PUSH1 0x4 MUL ADD PUSH1 0x0 SWAP1 SWAP2 SWAP1 SWAP2 SWAP1 SWAP2 POP PUSH1 0x0 DUP3 ADD MLOAD DUP2 PUSH1 0x0 ADD SSTORE PUSH1 0x20 DUP3 ADD MLOAD DUP2 PUSH1 0x1 ADD SWAP1 DUP2 PUSH2 0xECE SWAP2 SWAP1 PUSH2 0x25DD JUMP JUMPDEST POP PUSH1 0x40 DUP3 ADD MLOAD DUP2 PUSH1 0x2 ADD PUSH1 0x0 PUSH2 0x100 EXP DUP2 SLOAD DUP2 PUSH20 0xFFFFFFFFFFFFFFFFFFFFFFFFFFFFFFFFFFFFFFFF MUL NOT AND SWAP1 DUP4 PUSH20 0xFFFFFFFFFFFFFFFFFFFFFFFFFFFFFFFFFFFFFFFF AND MUL OR SWAP1 SSTORE POP PUSH1 0x60 DUP3 ADD MLOAD DUP2 PUSH1 0x3 ADD PUSH1 0x0 PUSH2 0x100 EXP DUP2 SLOAD DUP2 PUSH20 0xFFFFFFFFFFFFFFFFFFFFFFFFFFFFFFFFFFFFFFFF MUL NOT AND SWAP1 DUP4 PUSH20 0xFFFFFFFFFFFFFFFFFFFFFFFFFFFFFFFFFFFFFFFF AND MUL OR SWAP1 SSTORE POP POP POP PUSH2 0x125E JUMP JUMPDEST PUSH1 0x1 ISZERO ISZERO DUP6 ISZERO ISZERO EQ DUP1 ISZERO PUSH2 0xF7C JUMPI POP PUSH1 0x1 ISZERO ISZERO DUP7 ISZERO ISZERO EQ JUMPDEST ISZERO PUSH2 0x125D JUMPI PUSH1 0xD PUSH1 0x40 MLOAD DUP1 PUSH1 0x80 ADD PUSH1 0x40 MSTORE DUP1 DUP6 DUP2 MSTORE PUSH1 0x20 ADD DUP7 DUP2 MSTORE PUSH1 0x20 ADD PUSH1 0x3 DUP11 DUP2 SLOAD DUP2 LT PUSH2 0xFAE JUMPI PUSH2 0xFAD PUSH2 0x26AF JUMP JUMPDEST JUMPDEST SWAP1 PUSH1 0x0 MSTORE PUSH1 0x20 PUSH1 0x0 KECCAK256 SWAP1 PUSH1 0x4 MUL ADD PUSH1 0x1 ADD PUSH1 0x0 SWAP1 SLOAD SWAP1 PUSH2 0x100 EXP SWAP1 DIV PUSH20 0xFFFFFFFFFFFFFFFFFFFFFFFFFFFFFFFFFFFFFFFF AND PUSH20 0xFFFFFFFFFFFFFFFFFFFFFFFFFFFFFFFFFFFFFFFF AND DUP2 MSTORE PUSH1 0x20 ADD CALLER PUSH20 0xFFFFFFFFFFFFFFFFFFFFFFFFFFFFFFFFFFFFFFFF AND DUP2 MSTORE POP SWAP1 DUP1 PUSH1 0x1 DUP2 SLOAD ADD DUP1 DUP3 SSTORE DUP1 SWAP2 POP POP PUSH1 0x1 SWAP1 SUB SWAP1 PUSH1 0x0 MSTORE PUSH1 0x20 PUSH1 0x0 KECCAK256 SWAP1 PUSH1 0x4 MUL ADD PUSH1 0x0 SWAP1 SWAP2 SWAP1 SWAP2 SWAP1 SWAP2 POP PUSH1 0x0 DUP3 ADD MLOAD DUP2 PUSH1 0x0 ADD SWAP1 DUP2 PUSH2 0x1053 SWAP2 SWAP1 PUSH2 0x25DD JUMP JUMPDEST POP PUSH1 0x20 DUP3 ADD MLOAD DUP2 PUSH1 0x1 ADD SSTORE PUSH1 0x40 DUP3 ADD MLOAD DUP2 PUSH1 0x2 ADD PUSH1 0x0 PUSH2 0x100 EXP DUP2 SLOAD DUP2 PUSH20 0xFFFFFFFFFFFFFFFFFFFFFFFFFFFFFFFFFFFFFFFF MUL NOT AND SWAP1 DUP4 PUSH20 0xFFFFFFFFFFFFFFFFFFFFFFFFFFFFFFFFFFFFFFFF AND MUL OR SWAP1 SSTORE POP PUSH1 0x60 DUP3 ADD MLOAD DUP2 PUSH1 0x3 ADD PUSH1 0x0 PUSH2 0x100 EXP DUP2 SLOAD DUP2 PUSH20 0xFFFFFFFFFFFFFFFFFFFFFFFFFFFFFFFFFFFFFFFF MUL NOT AND SWAP1 DUP4 PUSH20 0xFFFFFFFFFFFFFFFFFFFFFFFFFFFFFFFFFFFFFFFF AND MUL OR SWAP1 SSTORE POP POP POP PUSH1 0xC PUSH1 0x40 MLOAD DUP1 PUSH1 0x80 ADD PUSH1 0x40 MSTORE DUP1 PUSH1 0x1 DUP2 MSTORE PUSH1 0x20 ADD DUP5 DUP2 MSTORE PUSH1 0x20 ADD CALLER PUSH20 0xFFFFFFFFFFFFFFFFFFFFFFFFFFFFFFFFFFFFFFFF AND DUP2 MSTORE PUSH1 0x20 ADD PUSH1 0x3 DUP11 DUP2 SLOAD DUP2 LT PUSH2 0x1138 JUMPI PUSH2 0x1137 PUSH2 0x26AF JUMP JUMPDEST JUMPDEST SWAP1 PUSH1 0x0 MSTORE PUSH1 0x20 PUSH1 0x0 KECCAK256 SWAP1 PUSH1 0x4 MUL ADD PUSH1 0x1 ADD PUSH1 0x0 SWAP1 SLOAD SWAP1 PUSH2 0x100 EXP SWAP1 DIV PUSH20 0xFFFFFFFFFFFFFFFFFFFFFFFFFFFFFFFFFFFFFFFF AND PUSH20 0xFFFFFFFFFFFFFFFFFFFFFFFFFFFFFFFFFFFFFFFF AND DUP2 MSTORE POP SWAP1 DUP1 PUSH1 0x1 DUP2 SLOAD ADD DUP1 DUP3 SSTORE DUP1 SWAP2 POP POP PUSH1 0x1 SWAP1 SUB SWAP1 PUSH1 0x0 MSTORE PUSH1 0x20 PUSH1 0x0 KECCAK256 SWAP1 PUSH1 0x4 MUL ADD PUSH1 0x0 SWAP1 SWAP2 SWAP1 SWAP2 SWAP1 SWAP2 POP PUSH1 0x0 DUP3 ADD MLOAD DUP2 PUSH1 0x0 ADD SSTORE PUSH1 0x20 DUP3 ADD MLOAD DUP2 PUSH1 0x1 ADD SWAP1 DUP2 PUSH2 0x11CB SWAP2 SWAP1 PUSH2 0x25DD JUMP JUMPDEST POP PUSH1 0x40 DUP3 ADD MLOAD DUP2 PUSH1 0x2 ADD PUSH1 0x0 PUSH2 0x100 EXP DUP2 SLOAD DUP2 PUSH20 0xFFFFFFFFFFFFFFFFFFFFFFFFFFFFFFFFFFFFFFFF MUL NOT AND SWAP1 DUP4 PUSH20 0xFFFFFFFFFFFFFFFFFFFFFFFFFFFFFFFFFFFFFFFF AND MUL OR SWAP1 SSTORE POP PUSH1 0x60 DUP3 ADD MLOAD DUP2 PUSH1 0x3 ADD PUSH1 0x0 PUSH2 0x100 EXP DUP2 SLOAD DUP2 PUSH20 0xFFFFFFFFFFFFFFFFFFFFFFFFFFFFFFFFFFFFFFFF MUL NOT AND SWAP1 DUP4 PUSH20 0xFFFFFFFFFFFFFFFFFFFFFFFFFFFFFFFFFFFFFFFF AND MUL OR SWAP1 SSTORE POP POP POP JUMPDEST JUMPDEST JUMPDEST PUSH1 0x2 PUSH1 0x1 DUP10 DUP2 SLOAD DUP2 LT PUSH2 0x1275 JUMPI PUSH2 0x1274 PUSH2 0x26AF JUMP JUMPDEST JUMPDEST SWAP1 PUSH1 0x0 MSTORE PUSH1 0x20 PUSH1 0x0 KECCAK256 SWAP1 PUSH1 0x5 MUL ADD SWAP1 DUP1 PUSH1 0x1 DUP2 SLOAD ADD DUP1 DUP3 SSTORE DUP1 SWAP2 POP POP PUSH1 0x1 SWAP1 SUB SWAP1 PUSH1 0x0 MSTORE PUSH1 0x20 PUSH1 0x0 KECCAK256 SWAP1 PUSH1 0x5 MUL ADD PUSH1 0x0 SWAP1 SWAP2 SWAP1 SWAP2 SWAP1 SWAP2 POP PUSH1 0x0 DUP3 ADD SLOAD DUP2 PUSH1 0x0 ADD SSTORE PUSH1 0x1 DUP3 ADD PUSH1 0x0 SWAP1 SLOAD SWAP1 PUSH2 0x100 EXP SWAP1 DIV PUSH20 0xFFFFFFFFFFFFFFFFFFFFFFFFFFFFFFFFFFFFFFFF AND DUP2 PUSH1 0x1 ADD PUSH1 0x0 PUSH2 0x100 EXP DUP2 SLOAD DUP2 PUSH20 0xFFFFFFFFFFFFFFFFFFFFFFFFFFFFFFFFFFFFFFFF MUL NOT AND SWAP1 DUP4 PUSH20 0xFFFFFFFFFFFFFFFFFFFFFFFFFFFFFFFFFFFFFFFF AND MUL OR SWAP1 SSTORE POP PUSH1 0x2 DUP3 ADD DUP2 PUSH1 0x2 ADD SWAP1 DUP2 PUSH2 0x1331 SWAP2 SWAP1 PUSH2 0x26F4 JUMP JUMPDEST POP PUSH1 0x3 DUP3 ADD DUP2 PUSH1 0x3 ADD SWAP1 DUP1 SLOAD PUSH2 0x1348 SWAP3 SWAP2 SWAP1 PUSH2 0x1B94 JUMP JUMPDEST POP PUSH1 0x4 DUP3 ADD DUP2 PUSH1 0x4 ADD SWAP1 DUP1 SLOAD PUSH2 0x135F SWAP3 SWAP2 SWAP1 PUSH2 0x1B94 JUMP JUMPDEST POP POP POP POP POP POP POP POP POP POP POP JUMP JUMPDEST PUSH1 0x1 DUP2 DUP2 SLOAD DUP2 LT PUSH2 0x137C JUMPI PUSH1 0x0 DUP1 REVERT JUMPDEST SWAP1 PUSH1 0x0 MSTORE PUSH1 0x20 PUSH1 0x0 KECCAK256 SWAP1 PUSH1 0x5 MUL ADD PUSH1 0x0 SWAP2 POP SWAP1 POP DUP1 PUSH1 0x0 ADD SLOAD SWAP1 DUP1 PUSH1 0x1 ADD PUSH1 0x0 SWAP1 SLOAD SWAP1 PUSH2 0x100 EXP SWAP1 DIV PUSH20 0xFFFFFFFFFFFFFFFFFFFFFFFFFFFFFFFFFFFFFFFF AND SWAP1 DUP1 PUSH1 0x2 ADD DUP1 SLOAD PUSH2 0x13CB SWAP1 PUSH2 0x2400 JUMP JUMPDEST DUP1 PUSH1 0x1F ADD PUSH1 0x20 DUP1 SWAP2 DIV MUL PUSH1 0x20 ADD PUSH1 0x40 MLOAD SWAP1 DUP2 ADD PUSH1 0x40 MSTORE DUP1 SWAP3 SWAP2 SWAP1 DUP2 DUP2 MSTORE PUSH1 0x20 ADD DUP3 DUP1 SLOAD PUSH2 0x13F7 SWAP1 PUSH2 0x2400 JUMP JUMPDEST DUP1 ISZERO PUSH2 0x1444 JUMPI DUP1 PUSH1 0x1F LT PUSH2 0x1419 JUMPI PUSH2 0x100 DUP1 DUP4 SLOAD DIV MUL DUP4 MSTORE SWAP2 PUSH1 0x20 ADD SWAP2 PUSH2 0x1444 JUMP JUMPDEST DUP3 ADD SWAP2 SWAP1 PUSH1 0x0 MSTORE PUSH1 0x20 PUSH1 0x0 KECCAK256 SWAP1 JUMPDEST DUP2 SLOAD DUP2 MSTORE SWAP1 PUSH1 0x1 ADD SWAP1 PUSH1 0x20 ADD DUP1 DUP4 GT PUSH2 0x1427 JUMPI DUP3 SWAP1 SUB PUSH1 0x1F AND DUP3 ADD SWAP2 JUMPDEST POP POP POP POP POP SWAP1 POP DUP4 JUMP JUMPDEST PUSH1 0xB DUP2 DUP2 SLOAD DUP2 LT PUSH2 0x145E JUMPI PUSH1 0x0 DUP1 REVERT JUMPDEST SWAP1 PUSH1 0x0 MSTORE PUSH1 0x20 PUSH1 0x0 KECCAK256 SWAP1 PUSH1 0x4 MUL ADD PUSH1 0x0 SWAP2 POP SWAP1 POP DUP1 PUSH1 0x0 ADD SLOAD SWAP1 DUP1 PUSH1 0x1 ADD DUP1 SLOAD PUSH2 0x1487 SWAP1 PUSH2 0x2400 JUMP JUMPDEST DUP1 PUSH1 0x1F ADD PUSH1 0x20 DUP1 SWAP2 DIV MUL PUSH1 0x20 ADD PUSH1 0x40 MLOAD SWAP1 DUP2 ADD PUSH1 0x40 MSTORE DUP1 SWAP3 SWAP2 SWAP1 DUP2 DUP2 MSTORE PUSH1 0x20 ADD DUP3 DUP1 SLOAD PUSH2 0x14B3 SWAP1 PUSH2 0x2400 JUMP JUMPDEST DUP1 ISZERO PUSH2 0x1500 JUMPI DUP1 PUSH1 0x1F LT PUSH2 0x14D5 JUMPI PUSH2 0x100 DUP1 DUP4 SLOAD DIV MUL DUP4 MSTORE SWAP2 PUSH1 0x20 ADD SWAP2 PUSH2 0x1500 JUMP JUMPDEST DUP3 ADD SWAP2 SWAP1 PUSH1 0x0 MSTORE PUSH1 0x20 PUSH1 0x0 KECCAK256 SWAP1 JUMPDEST DUP2 SLOAD DUP2 MSTORE SWAP1 PUSH1 0x1 ADD SWAP1 PUSH1 0x20 ADD DUP1 DUP4 GT PUSH2 0x14E3 JUMPI DUP3 SWAP1 SUB PUSH1 0x1F AND DUP3 ADD SWAP2 JUMPDEST POP POP POP POP POP SWAP1 DUP1 PUSH1 0x2 ADD PUSH1 0x0 SWAP1 SLOAD SWAP1 PUSH2 0x100 EXP SWAP1 DIV PUSH20 0xFFFFFFFFFFFFFFFFFFFFFFFFFFFFFFFFFFFFFFFF AND SWAP1 DUP1 PUSH1 0x3 ADD PUSH1 0x0 SWAP1 SLOAD SWAP1 PUSH2 0x100 EXP SWAP1 DIV PUSH20 0xFFFFFFFFFFFFFFFFFFFFFFFFFFFFFFFFFFFFFFFF AND SWAP1 POP DUP5 JUMP JUMPDEST PUSH1 0x2 DUP2 DUP2 SLOAD DUP2 LT PUSH2 0x1566 JUMPI PUSH1 0x0 DUP1 REVERT JUMPDEST SWAP1 PUSH1 0x0 MSTORE PUSH1 0x20 PUSH1 0x0 KECCAK256 SWAP1 PUSH1 0x5 MUL ADD PUSH1 0x0 SWAP2 POP SWAP1 POP DUP1 PUSH1 0x0 ADD SLOAD SWAP1 DUP1 PUSH1 0x1 ADD PUSH1 0x0 SWAP1 SLOAD SWAP1 PUSH2 0x100 EXP SWAP1 DIV PUSH20 0xFFFFFFFFFFFFFFFFFFFFFFFFFFFFFFFFFFFFFFFF AND SWAP1 DUP1 PUSH1 0x2 ADD DUP1 SLOAD PUSH2 0x15B5 SWAP1 PUSH2 0x2400 JUMP JUMPDEST DUP1 PUSH1 0x1F ADD PUSH1 0x20 DUP1 SWAP2 DIV MUL PUSH1 0x20 ADD PUSH1 0x40 MLOAD SWAP1 DUP2 ADD PUSH1 0x40 MSTORE DUP1 SWAP3 SWAP2 SWAP1 DUP2 DUP2 MSTORE PUSH1 0x20 ADD DUP3 DUP1 SLOAD PUSH2 0x15E1 SWAP1 PUSH2 0x2400 JUMP JUMPDEST DUP1 ISZERO PUSH2 0x162E JUMPI DUP1 PUSH1 0x1F LT PUSH2 0x1603 JUMPI PUSH2 0x100 DUP1 DUP4 SLOAD DIV MUL DUP4 MSTORE SWAP2 PUSH1 0x20 ADD SWAP2 PUSH2 0x162E JUMP JUMPDEST DUP3 ADD SWAP2 SWAP1 PUSH1 0x0 MSTORE PUSH1 0x20 PUSH1 0x0 KECCAK256 SWAP1 JUMPDEST DUP2 SLOAD DUP2 MSTORE SWAP1 PUSH1 0x1 ADD SWAP1 PUSH1 0x20 ADD DUP1 DUP4 GT PUSH2 0x1611 JUMPI DUP3 SWAP1 SUB PUSH1 0x1F AND DUP3 ADD SWAP2 JUMPDEST POP POP POP POP POP SWAP1 POP DUP4 JUMP JUMPDEST PUSH1 0xA DUP2 DUP2 SLOAD DUP2 LT PUSH2 0x1648 JUMPI PUSH1 0x0 DUP1 REVERT JUMPDEST SWAP1 PUSH1 0x0 MSTORE PUSH1 0x20 PUSH1 0x0 KECCAK256 SWAP1 PUSH1 0x4 MUL ADD PUSH1 0x0 SWAP2 POP SWAP1 POP DUP1 PUSH1 0x0 ADD SLOAD SWAP1 DUP1 PUSH1 0x1 ADD DUP1 SLOAD PUSH2 0x1671 SWAP1 PUSH2 0x2400 JUMP JUMPDEST DUP1 PUSH1 0x1F ADD PUSH1 0x20 DUP1 SWAP2 DIV MUL PUSH1 0x20 ADD PUSH1 0x40 MLOAD SWAP1 DUP2 ADD PUSH1 0x40 MSTORE DUP1 SWAP3 SWAP2 SWAP1 DUP2 DUP2 MSTORE PUSH1 0x20 ADD DUP3 DUP1 SLOAD PUSH2 0x169D SWAP1 PUSH2 0x2400 JUMP JUMPDEST DUP1 ISZERO PUSH2 0x16EA JUMPI DUP1 PUSH1 0x1F LT PUSH2 0x16BF JUMPI PUSH2 0x100 DUP1 DUP4 SLOAD DIV MUL DUP4 MSTORE SWAP2 PUSH1 0x20 ADD SWAP2 PUSH2 0x16EA JUMP JUMPDEST DUP3 ADD SWAP2 SWAP1 PUSH1 0x0 MSTORE PUSH1 0x20 PUSH1 0x0 KECCAK256 SWAP1 JUMPDEST DUP2 SLOAD DUP2 MSTORE SWAP1 PUSH1 0x1 ADD SWAP1 PUSH1 0x20 ADD DUP1 DUP4 GT PUSH2 0x16CD JUMPI DUP3 SWAP1 SUB PUSH1 0x1F AND DUP3 ADD SWAP2 JUMPDEST POP POP POP POP POP SWAP1 DUP1 PUSH1 0x2 ADD PUSH1 0x0 SWAP1 SLOAD SWAP1 PUSH2 0x100 EXP SWAP1 DIV PUSH20 0xFFFFFFFFFFFFFFFFFFFFFFFFFFFFFFFFFFFFFFFF AND SWAP1 DUP1 PUSH1 0x3 ADD PUSH1 0x0 SWAP1 SLOAD SWAP1 PUSH2 0x100 EXP SWAP1 DIV PUSH20 0xFFFFFFFFFFFFFFFFFFFFFFFFFFFFFFFFFFFFFFFF AND SWAP1 POP DUP5 JUMP JUMPDEST PUSH1 0xD DUP2 DUP2 SLOAD DUP2 LT PUSH2 0x1750 JUMPI PUSH1 0x0 DUP1 REVERT JUMPDEST SWAP1 PUSH1 0x0 MSTORE PUSH1 0x20 PUSH1 0x0 KECCAK256 SWAP1 PUSH1 0x4 MUL ADD PUSH1 0x0 SWAP2 POP SWAP1 POP DUP1 PUSH1 0x0 ADD DUP1 SLOAD PUSH2 0x1773 SWAP1 PUSH2 0x2400 JUMP JUMPDEST DUP1 PUSH1 0x1F ADD PUSH1 0x20 DUP1 SWAP2 DIV MUL PUSH1 0x20 ADD PUSH1 0x40 MLOAD SWAP1 DUP2 ADD PUSH1 0x40 MSTORE DUP1 SWAP3 SWAP2 SWAP1 DUP2 DUP2 MSTORE PUSH1 0x20 ADD DUP3 DUP1 SLOAD PUSH2 0x179F SWAP1 PUSH2 0x2400 JUMP JUMPDEST DUP1 ISZERO PUSH2 0x17EC JUMPI DUP1 PUSH1 0x1F LT PUSH2 0x17C1 JUMPI PUSH2 0x100 DUP1 DUP4 SLOAD DIV MUL DUP4 MSTORE SWAP2 PUSH1 0x20 ADD SWAP2 PUSH2 0x17EC JUMP JUMPDEST DUP3 ADD SWAP2 SWAP1 PUSH1 0x0 MSTORE PUSH1 0x20 PUSH1 0x0 KECCAK256 SWAP1 JUMPDEST DUP2 SLOAD DUP2 MSTORE SWAP1 PUSH1 0x1 ADD SWAP1 PUSH1 0x20 ADD DUP1 DUP4 GT PUSH2 0x17CF JUMPI DUP3 SWAP1 SUB PUSH1 0x1F AND DUP3 ADD SWAP2 JUMPDEST POP POP POP POP POP SWAP1 DUP1 PUSH1 0x1 ADD SLOAD SWAP1 DUP1 PUSH1 0x2 ADD PUSH1 0x0 SWAP1 SLOAD SWAP1 PUSH2 0x100 EXP SWAP1 DIV PUSH20 0xFFFFFFFFFFFFFFFFFFFFFFFFFFFFFFFFFFFFFFFF AND SWAP1 DUP1 PUSH1 0x3 ADD PUSH1 0x0 SWAP1 SLOAD SWAP1 PUSH2 0x100 EXP SWAP1 DIV PUSH20 0xFFFFFFFFFFFFFFFFFFFFFFFFFFFFFFFFFFFFFFFF AND SWAP1 POP DUP5 JUMP JUMPDEST CALLER PUSH20 0xFFFFFFFFFFFFFFFFFFFFFFFFFFFFFFFFFFFFFFFF AND PUSH1 0x0 DUP1 SLOAD SWAP1 PUSH2 0x100 EXP SWAP1 DIV PUSH20 0xFFFFFFFFFFFFFFFFFFFFFFFFFFFFFFFFFFFFFFFF AND PUSH20 0xFFFFFFFFFFFFFFFFFFFFFFFFFFFFFFFFFFFFFFFF AND EQ PUSH2 0x18D6 JUMPI PUSH1 0x40 MLOAD PUSH32 0x8C379A000000000000000000000000000000000000000000000000000000000 DUP2 MSTORE PUSH1 0x4 ADD PUSH2 0x18CD SWAP1 PUSH2 0x2977 JUMP JUMPDEST PUSH1 0x40 MLOAD DUP1 SWAP2 SUB SWAP1 REVERT JUMPDEST PUSH1 0x3 PUSH1 0x40 MLOAD DUP1 PUSH1 0x80 ADD PUSH1 0x40 MSTORE DUP1 PUSH1 0x6 SLOAD DUP2 MSTORE PUSH1 0x20 ADD DUP5 PUSH20 0xFFFFFFFFFFFFFFFFFFFFFFFFFFFFFFFFFFFFFFFF AND DUP2 MSTORE PUSH1 0x20 ADD DUP4 DUP2 MSTORE PUSH1 0x20 ADD PUSH1 0xE DUP1 SLOAD DUP1 PUSH1 0x20 MUL PUSH1 0x20 ADD PUSH1 0x40 MLOAD SWAP1 DUP2 ADD PUSH1 0x40 MSTORE DUP1 SWAP3 SWAP2 SWAP1 DUP2 DUP2 MSTORE PUSH1 0x20 ADD DUP3 DUP1 SLOAD DUP1 ISZERO PUSH2 0x198F JUMPI PUSH1 0x20 MUL DUP3 ADD SWAP2 SWAP1 PUSH1 0x0 MSTORE PUSH1 0x20 PUSH1 0x0 KECCAK256 SWAP1 JUMPDEST DUP2 PUSH1 0x0 SWAP1 SLOAD SWAP1 PUSH2 0x100 EXP SWAP1 DIV PUSH20 0xFFFFFFFFFFFFFFFFFFFFFFFFFFFFFFFFFFFFFFFF AND PUSH20 0xFFFFFFFFFFFFFFFFFFFFFFFFFFFFFFFFFFFFFFFF AND DUP2 MSTORE PUSH1 0x20 ADD SWAP1 PUSH1 0x1 ADD SWAP1 DUP1 DUP4 GT PUSH2 0x1945 JUMPI JUMPDEST POP POP POP POP POP DUP2 MSTORE POP SWAP1 DUP1 PUSH1 0x1 DUP2 SLOAD ADD DUP1 DUP3 SSTORE DUP1 SWAP2 POP POP PUSH1 0x1 SWAP1 SUB SWAP1 PUSH1 0x0 MSTORE PUSH1 0x20 PUSH1 0x0 KECCAK256 SWAP1 PUSH1 0x4 MUL ADD PUSH1 0x0 SWAP1 SWAP2 SWAP1 SWAP2 SWAP1 SWAP2 POP PUSH1 0x0 DUP3 ADD MLOAD DUP2 PUSH1 0x0 ADD SSTORE PUSH1 0x20 DUP3 ADD MLOAD DUP2 PUSH1 0x1 ADD PUSH1 0x0 PUSH2 0x100 EXP DUP2 SLOAD DUP2 PUSH20 0xFFFFFFFFFFFFFFFFFFFFFFFFFFFFFFFFFFFFFFFF MUL NOT AND SWAP1 DUP4 PUSH20 0xFFFFFFFFFFFFFFFFFFFFFFFFFFFFFFFFFFFFFFFF AND MUL OR SWAP1 SSTORE POP PUSH1 0x40 DUP3 ADD MLOAD DUP2 PUSH1 0x2 ADD SWAP1 DUP2 PUSH2 0x1A26 SWAP2 SWAP1 PUSH2 0x25DD JUMP JUMPDEST POP PUSH1 0x60 DUP3 ADD MLOAD DUP2 PUSH1 0x3 ADD SWAP1 DUP1 MLOAD SWAP1 PUSH1 0x20 ADD SWAP1 PUSH2 0x1A43 SWAP3 SWAP2 SWAP1 PUSH2 0x1BF1 JUMP JUMPDEST POP POP POP PUSH1 0x3 PUSH1 0x7 SLOAD DUP2 SLOAD DUP2 LT PUSH2 0x1A5C JUMPI PUSH2 0x1A5B PUSH2 0x26AF JUMP JUMPDEST JUMPDEST SWAP1 PUSH1 0x0 MSTORE PUSH1 0x20 PUSH1 0x0 KECCAK256 SWAP1 PUSH1 0x4 MUL ADD PUSH1 0x5 PUSH1 0x0 PUSH1 0x7 SLOAD DUP2 MSTORE PUSH1 0x20 ADD SWAP1 DUP2 MSTORE PUSH1 0x20 ADD PUSH1 0x0 KECCAK256 PUSH1 0x0 DUP3 ADD SLOAD DUP2 PUSH1 0x0 ADD SSTORE PUSH1 0x1 DUP3 ADD PUSH1 0x0 SWAP1 SLOAD SWAP1 PUSH2 0x100 EXP SWAP1 DIV PUSH20 0xFFFFFFFFFFFFFFFFFFFFFFFFFFFFFFFFFFFFFFFF AND DUP2 PUSH1 0x1 ADD PUSH1 0x0 PUSH2 0x100 EXP DUP2 SLOAD DUP2 PUSH20 0xFFFFFFFFFFFFFFFFFFFFFFFFFFFFFFFFFFFFFFFF MUL NOT AND SWAP1 DUP4 PUSH20 0xFFFFFFFFFFFFFFFFFFFFFFFFFFFFFFFFFFFFFFFF AND MUL OR SWAP1 SSTORE POP PUSH1 0x2 DUP3 ADD DUP2 PUSH1 0x2 ADD SWAP1 DUP2 PUSH2 0x1B04 SWAP2 SWAP1 PUSH2 0x26F4 JUMP JUMPDEST POP PUSH1 0x3 DUP3 ADD DUP2 PUSH1 0x3 ADD SWAP1 DUP1 SLOAD PUSH2 0x1B1B SWAP3 SWAP2 SWAP1 PUSH2 0x1C7B JUMP JUMPDEST POP SWAP1 POP POP PUSH1 0x7 PUSH1 0x0 DUP2 SLOAD DUP1 SWAP3 SWAP2 SWAP1 PUSH2 0x1B32 SWAP1 PUSH2 0x280B JUMP JUMPDEST SWAP2 SWAP1 POP SSTORE POP POP POP JUMP JUMPDEST DUP3 DUP1 SLOAD DUP3 DUP3 SSTORE SWAP1 PUSH1 0x0 MSTORE PUSH1 0x20 PUSH1 0x0 KECCAK256 SWAP1 DUP2 ADD SWAP3 DUP3 ISZERO PUSH2 0x1B83 JUMPI SWAP2 PUSH1 0x20 MUL DUP3 ADD JUMPDEST DUP3 DUP2 GT ISZERO PUSH2 0x1B82 JUMPI DUP3 MLOAD DUP3 SWAP1 DUP2 PUSH2 0x1B72 SWAP2 SWAP1 PUSH2 0x25DD JUMP JUMPDEST POP SWAP2 PUSH1 0x20 ADD SWAP2 SWAP1 PUSH1 0x1 ADD SWAP1 PUSH2 0x1B5B JUMP JUMPDEST JUMPDEST POP SWAP1 POP PUSH2 0x1B90 SWAP2 SWAP1 PUSH2 0x1CCD JUMP JUMPDEST POP SWAP1 JUMP JUMPDEST DUP3 DUP1 SLOAD DUP3 DUP3 SSTORE SWAP1 PUSH1 0x0 MSTORE PUSH1 0x20 PUSH1 0x0 KECCAK256 SWAP1 DUP2 ADD SWAP3 DUP3 ISZERO PUSH2 0x1BE0 JUMPI PUSH1 0x0 MSTORE PUSH1 0x20 PUSH1 0x0 KECCAK256 SWAP2 DUP3 ADD JUMPDEST DUP3 DUP2 GT ISZERO PUSH2 0x1BDF JUMPI DUP3 DUP3 SWAP1 DUP2 PUSH2 0x1BCF SWAP2 SWAP1 PUSH2 0x26F4 JUMP JUMPDEST POP SWAP2 PUSH1 0x1 ADD SWAP2 SWAP1 PUSH1 0x1 ADD SWAP1 PUSH2 0x1BB9 JUMP JUMPDEST JUMPDEST POP SWAP1 POP PUSH2 0x1BED SWAP2 SWAP1 PUSH2 0x1CCD JUMP JUMPDEST POP SWAP1 JUMP JUMPDEST DUP3 DUP1 SLOAD DUP3 DUP3 SSTORE SWAP1 PUSH1 0x0 MSTORE PUSH1 0x20 PUSH1 0x0 KECCAK256 SWAP1 DUP2 ADD SWAP3 DUP3 ISZERO PUSH2 0x1C6A JUMPI SWAP2 PUSH1 0x20 MUL DUP3 ADD JUMPDEST DUP3 DUP2 GT ISZERO PUSH2 0x1C69 JUMPI DUP3 MLOAD DUP3 PUSH1 0x0 PUSH2 0x100 EXP DUP2 SLOAD DUP2 PUSH20 0xFFFFFFFFFFFFFFFFFFFFFFFFFFFFFFFFFFFFFFFF MUL NOT AND SWAP1 DUP4 PUSH20 0xFFFFFFFFFFFFFFFFFFFFFFFFFFFFFFFFFFFFFFFF AND MUL OR SWAP1 SSTORE POP SWAP2 PUSH1 0x20 ADD SWAP2 SWAP1 PUSH1 0x1 ADD SWAP1 PUSH2 0x1C11 JUMP JUMPDEST JUMPDEST POP SWAP1 POP PUSH2 0x1C77 SWAP2 SWAP1 PUSH2 0x1CF1 JUMP JUMPDEST POP SWAP1 JUMP JUMPDEST DUP3 DUP1 SLOAD DUP3 DUP3 SSTORE SWAP1 PUSH1 0x0 MSTORE PUSH1 0x20 PUSH1 0x0 KECCAK256 SWAP1 DUP2 ADD SWAP3 DUP3 ISZERO PUSH2 0x1CBC JUMPI PUSH1 0x0 MSTORE PUSH1 0x20 PUSH1 0x0 KECCAK256 SWAP2 DUP3 ADD JUMPDEST DUP3 DUP2 GT ISZERO PUSH2 0x1CBB JUMPI DUP3 SLOAD DUP3 SSTORE SWAP2 PUSH1 0x1 ADD SWAP2 SWAP1 PUSH1 0x1 ADD SWAP1 PUSH2 0x1CA0 JUMP JUMPDEST JUMPDEST POP SWAP1 POP PUSH2 0x1CC9 SWAP2 SWAP1 PUSH2 0x1CF1 JUMP JUMPDEST POP SWAP1 JUMP JUMPDEST JUMPDEST DUP1 DUP3 GT ISZERO PUSH2 0x1CED JUMPI PUSH1 0x0 DUP2 DUP2 PUSH2 0x1CE4 SWAP2 SWAP1 PUSH2 0x1D0E JUMP JUMPDEST POP PUSH1 0x1 ADD PUSH2 0x1CCE JUMP JUMPDEST POP SWAP1 JUMP JUMPDEST JUMPDEST DUP1 DUP3 GT ISZERO PUSH2 0x1D0A JUMPI PUSH1 0x0 DUP2 PUSH1 0x0 SWAP1 SSTORE POP PUSH1 0x1 ADD PUSH2 0x1CF2 JUMP JUMPDEST POP SWAP1 JUMP JUMPDEST POP DUP1 SLOAD PUSH2 0x1D1A SWAP1 PUSH2 0x2400 JUMP JUMPDEST PUSH1 0x0 DUP3 SSTORE DUP1 PUSH1 0x1F LT PUSH2 0x1D2C JUMPI POP PUSH2 0x1D4B JUMP JUMPDEST PUSH1 0x1F ADD PUSH1 0x20 SWAP1 DIV SWAP1 PUSH1 0x0 MSTORE PUSH1 0x20 PUSH1 0x0 KECCAK256 SWAP1 DUP2 ADD SWAP1 PUSH2 0x1D4A SWAP2 SWAP1 PUSH2 0x1CF1 JUMP JUMPDEST JUMPDEST POP JUMP JUMPDEST PUSH1 0x0 PUSH1 0x40 MLOAD SWAP1 POP SWAP1 JUMP JUMPDEST PUSH1 0x0 DUP1 REVERT JUMPDEST PUSH1 0x0 DUP1 REVERT JUMPDEST PUSH1 0x0 DUP1 REVERT JUMPDEST PUSH1 0x0 DUP1 REVERT JUMPDEST PUSH1 0x0 PUSH1 0x1F NOT PUSH1 0x1F DUP4 ADD AND SWAP1 POP SWAP2 SWAP1 POP JUMP JUMPDEST PUSH32 0x4E487B7100000000000000000000000000000000000000000000000000000000 PUSH1 0x0 MSTORE PUSH1 0x41 PUSH1 0x4 MSTORE PUSH1 0x24 PUSH1 0x0 REVERT JUMPDEST PUSH2 0x1DB5 DUP3 PUSH2 0x1D6C JUMP JUMPDEST DUP2 ADD DUP2 DUP2 LT PUSH8 0xFFFFFFFFFFFFFFFF DUP3 GT OR ISZERO PUSH2 0x1DD4 JUMPI PUSH2 0x1DD3 PUSH2 0x1D7D JUMP JUMPDEST JUMPDEST DUP1 PUSH1 0x40 MSTORE POP POP POP JUMP JUMPDEST PUSH1 0x0 PUSH2 0x1DE7 PUSH2 0x1D4E JUMP JUMPDEST SWAP1 POP PUSH2 0x1DF3 DUP3 DUP3 PUSH2 0x1DAC JUMP JUMPDEST SWAP2 SWAP1 POP JUMP JUMPDEST PUSH1 0x0 PUSH8 0xFFFFFFFFFFFFFFFF DUP3 GT ISZERO PUSH2 0x1E13 JUMPI PUSH2 0x1E12 PUSH2 0x1D7D JUMP JUMPDEST JUMPDEST PUSH2 0x1E1C DUP3 PUSH2 0x1D6C JUMP JUMPDEST SWAP1 POP PUSH1 0x20 DUP2 ADD SWAP1 POP SWAP2 SWAP1 POP JUMP JUMPDEST DUP3 DUP2 DUP4 CALLDATACOPY PUSH1 0x0 DUP4 DUP4 ADD MSTORE POP POP POP JUMP JUMPDEST PUSH1 0x0 PUSH2 0x1E4B PUSH2 0x1E46 DUP5 PUSH2 0x1DF8 JUMP JUMPDEST PUSH2 0x1DDD JUMP JUMPDEST SWAP1 POP DUP3 DUP2 MSTORE PUSH1 0x20 DUP2 ADD DUP5 DUP5 DUP5 ADD GT ISZERO PUSH2 0x1E67 JUMPI PUSH2 0x1E66 PUSH2 0x1D67 JUMP JUMPDEST JUMPDEST PUSH2 0x1E72 DUP5 DUP3 DUP6 PUSH2 0x1E29 JUMP JUMPDEST POP SWAP4 SWAP3 POP POP POP JUMP JUMPDEST PUSH1 0x0 DUP3 PUSH1 0x1F DUP4 ADD SLT PUSH2 0x1E8F JUMPI PUSH2 0x1E8E PUSH2 0x1D62 JUMP JUMPDEST JUMPDEST DUP2 CALLDATALOAD PUSH2 0x1E9F DUP5 DUP3 PUSH1 0x20 DUP7 ADD PUSH2 0x1E38 JUMP JUMPDEST SWAP2 POP POP SWAP3 SWAP2 POP POP JUMP JUMPDEST PUSH1 0x0 PUSH1 0x20 DUP3 DUP5 SUB SLT ISZERO PUSH2 0x1EBE JUMPI PUSH2 0x1EBD PUSH2 0x1D58 JUMP JUMPDEST JUMPDEST PUSH1 0x0 DUP3 ADD CALLDATALOAD PUSH8 0xFFFFFFFFFFFFFFFF DUP2 GT ISZERO PUSH2 0x1EDC JUMPI PUSH2 0x1EDB PUSH2 0x1D5D JUMP JUMPDEST JUMPDEST PUSH2 0x1EE8 DUP5 DUP3 DUP6 ADD PUSH2 0x1E7A JUMP JUMPDEST SWAP2 POP POP SWAP3 SWAP2 POP POP JUMP JUMPDEST PUSH1 0x0 DUP2 SWAP1 POP SWAP2 SWAP1 POP JUMP JUMPDEST PUSH2 0x1F04 DUP2 PUSH2 0x1EF1 JUMP JUMPDEST DUP2 EQ PUSH2 0x1F0F JUMPI PUSH1 0x0 DUP1 REVERT JUMPDEST POP JUMP JUMPDEST PUSH1 0x0 DUP2 CALLDATALOAD SWAP1 POP PUSH2 0x1F21 DUP2 PUSH2 0x1EFB JUMP JUMPDEST SWAP3 SWAP2 POP POP JUMP JUMPDEST PUSH1 0x0 PUSH1 0x20 DUP3 DUP5 SUB SLT ISZERO PUSH2 0x1F3D JUMPI PUSH2 0x1F3C PUSH2 0x1D58 JUMP JUMPDEST JUMPDEST PUSH1 0x0 PUSH2 0x1F4B DUP5 DUP3 DUP6 ADD PUSH2 0x1F12 JUMP JUMPDEST SWAP2 POP POP SWAP3 SWAP2 POP POP JUMP JUMPDEST PUSH2 0x1F5D DUP2 PUSH2 0x1EF1 JUMP JUMPDEST DUP3 MSTORE POP POP JUMP JUMPDEST PUSH1 0x0 PUSH20 0xFFFFFFFFFFFFFFFFFFFFFFFFFFFFFFFFFFFFFFFF DUP3 AND SWAP1 POP SWAP2 SWAP1 POP JUMP JUMPDEST PUSH1 0x0 PUSH2 0x1F8E DUP3 PUSH2 0x1F63 JUMP JUMPDEST SWAP1 POP SWAP2 SWAP1 POP JUMP JUMPDEST PUSH2 0x1F9E DUP2 PUSH2 0x1F83 JUMP JUMPDEST DUP3 MSTORE POP POP JUMP JUMPDEST PUSH1 0x0 DUP2 MLOAD SWAP1 POP SWAP2 SWAP1 POP JUMP JUMPDEST PUSH1 0x0 DUP3 DUP3 MSTORE PUSH1 0x20 DUP3 ADD SWAP1 POP SWAP3 SWAP2 POP POP JUMP JUMPDEST PUSH1 0x0 JUMPDEST DUP4 DUP2 LT ISZERO PUSH2 0x1FDE JUMPI DUP1 DUP3 ADD MLOAD DUP2 DUP5 ADD MSTORE PUSH1 0x20 DUP2 ADD SWAP1 POP PUSH2 0x1FC3 JUMP JUMPDEST PUSH1 0x0 DUP5 DUP5 ADD MSTORE POP POP POP POP JUMP JUMPDEST PUSH1 0x0 PUSH2 0x1FF5 DUP3 PUSH2 0x1FA4 JUMP JUMPDEST PUSH2 0x1FFF DUP2 DUP6 PUSH2 0x1FAF JUMP JUMPDEST SWAP4 POP PUSH2 0x200F DUP2 DUP6 PUSH1 0x20 DUP7 ADD PUSH2 0x1FC0 JUMP JUMPDEST PUSH2 0x2018 DUP2 PUSH2 0x1D6C JUMP JUMPDEST DUP5 ADD SWAP2 POP POP SWAP3 SWAP2 POP POP JUMP JUMPDEST PUSH1 0x0 DUP2 MLOAD SWAP1 POP SWAP2 SWAP1 POP JUMP JUMPDEST PUSH1 0x0 DUP3 DUP3 MSTORE PUSH1 0x20 DUP3 ADD SWAP1 POP SWAP3 SWAP2 POP POP JUMP JUMPDEST PUSH1 0x0 DUP2 SWAP1 POP PUSH1 0x20 DUP3 ADD SWAP1 POP SWAP2 SWAP1 POP JUMP JUMPDEST PUSH2 0x2058 DUP2 PUSH2 0x1F83 JUMP JUMPDEST DUP3 MSTORE POP POP JUMP JUMPDEST PUSH1 0x0 PUSH2 0x206A DUP4 DUP4 PUSH2 0x204F JUMP JUMPDEST PUSH1 0x20 DUP4 ADD SWAP1 POP SWAP3 SWAP2 POP POP JUMP JUMPDEST PUSH1 0x0 PUSH1 0x20 DUP3 ADD SWAP1 POP SWAP2 SWAP1 POP JUMP JUMPDEST PUSH1 0x0 PUSH2 0x208E DUP3 PUSH2 0x2023 JUMP JUMPDEST PUSH2 0x2098 DUP2 DUP6 PUSH2 0x202E JUMP JUMPDEST SWAP4 POP PUSH2 0x20A3 DUP4 PUSH2 0x203F JUMP JUMPDEST DUP1 PUSH1 0x0 JUMPDEST DUP4 DUP2 LT ISZERO PUSH2 0x20D4 JUMPI DUP2 MLOAD PUSH2 0x20BB DUP9 DUP3 PUSH2 0x205E JUMP JUMPDEST SWAP8 POP PUSH2 0x20C6 DUP4 PUSH2 0x2076 JUMP JUMPDEST SWAP3 POP POP PUSH1 0x1 DUP2 ADD SWAP1 POP PUSH2 0x20A7 JUMP JUMPDEST POP DUP6 SWAP4 POP POP POP POP SWAP3 SWAP2 POP POP JUMP JUMPDEST PUSH1 0x0 PUSH1 0x80 DUP3 ADD SWAP1 POP PUSH2 0x20F6 PUSH1 0x0 DUP4 ADD DUP8 PUSH2 0x1F54 JUMP JUMPDEST PUSH2 0x2103 PUSH1 0x20 DUP4 ADD DUP7 PUSH2 0x1F95 JUMP JUMPDEST DUP2 DUP2 SUB PUSH1 0x40 DUP4 ADD MSTORE PUSH2 0x2115 DUP2 DUP6 PUSH2 0x1FEA JUMP JUMPDEST SWAP1 POP DUP2 DUP2 SUB PUSH1 0x60 DUP4 ADD MSTORE PUSH2 0x2129 DUP2 DUP5 PUSH2 0x2083 JUMP JUMPDEST SWAP1 POP SWAP6 SWAP5 POP POP POP POP POP JUMP JUMPDEST PUSH2 0x213D DUP2 PUSH2 0x1F83 JUMP JUMPDEST DUP2 EQ PUSH2 0x2148 JUMPI PUSH1 0x0 DUP1 REVERT JUMPDEST POP JUMP JUMPDEST PUSH1 0x0 DUP2 CALLDATALOAD SWAP1 POP PUSH2 0x215A DUP2 PUSH2 0x2134 JUMP JUMPDEST SWAP3 SWAP2 POP POP JUMP JUMPDEST PUSH1 0x0 PUSH1 0x20 DUP3 DUP5 SUB SLT ISZERO PUSH2 0x2176 JUMPI PUSH2 0x2175 PUSH2 0x1D58 JUMP JUMPDEST JUMPDEST PUSH1 0x0 PUSH2 0x2184 DUP5 DUP3 DUP6 ADD PUSH2 0x214B JUMP JUMPDEST SWAP2 POP POP SWAP3 SWAP2 POP POP JUMP JUMPDEST PUSH1 0x0 PUSH1 0x80 DUP3 ADD SWAP1 POP PUSH2 0x21A2 PUSH1 0x0 DUP4 ADD DUP8 PUSH2 0x1F54 JUMP JUMPDEST DUP2 DUP2 SUB PUSH1 0x20 DUP4 ADD MSTORE PUSH2 0x21B4 DUP2 DUP7 PUSH2 0x1FEA JUMP JUMPDEST SWAP1 POP PUSH2 0x21C3 PUSH1 0x40 DUP4 ADD DUP6 PUSH2 0x1F95 JUMP JUMPDEST PUSH2 0x21D0 PUSH1 0x60 DUP4 ADD DUP5 PUSH2 0x1F95 JUMP JUMPDEST SWAP6 SWAP5 POP POP POP POP POP JUMP JUMPDEST PUSH1 0x0 DUP2 ISZERO ISZERO SWAP1 POP SWAP2 SWAP1 POP JUMP JUMPDEST PUSH2 0x21EE DUP2 PUSH2 0x21D9 JUMP JUMPDEST DUP2 EQ PUSH2 0x21F9 JUMPI PUSH1 0x0 DUP1 REVERT JUMPDEST POP JUMP JUMPDEST PUSH1 0x0 DUP2 CALLDATALOAD SWAP1 POP PUSH2 0x220B DUP2 PUSH2 0x21E5 JUMP JUMPDEST SWAP3 SWAP2 POP POP JUMP JUMPDEST PUSH1 0x0 DUP1 PUSH1 0x0 DUP1 PUSH1 0x0 DUP1 PUSH1 0x0 PUSH1 0xE0 DUP9 DUP11 SUB SLT ISZERO PUSH2 0x2230 JUMPI PUSH2 0x222F PUSH2 0x1D58 JUMP JUMPDEST JUMPDEST PUSH1 0x0 PUSH2 0x223E DUP11 DUP3 DUP12 ADD PUSH2 0x1F12 JUMP JUMPDEST SWAP8 POP POP PUSH1 0x20 PUSH2 0x224F DUP11 DUP3 DUP12 ADD PUSH2 0x1F12 JUMP JUMPDEST SWAP7 POP POP PUSH1 0x40 PUSH2 0x2260 DUP11 DUP3 DUP12 ADD PUSH2 0x21FC JUMP JUMPDEST SWAP6 POP POP PUSH1 0x60 PUSH2 0x2271 DUP11 DUP3 DUP12 ADD PUSH2 0x21FC JUMP JUMPDEST SWAP5 POP POP PUSH1 0x80 PUSH2 0x2282 DUP11 DUP3 DUP12 ADD PUSH2 0x1F12 JUMP JUMPDEST SWAP4 POP POP PUSH1 0xA0 DUP9 ADD CALLDATALOAD PUSH8 0xFFFFFFFFFFFFFFFF DUP2 GT ISZERO PUSH2 0x22A3 JUMPI PUSH2 0x22A2 PUSH2 0x1D5D JUMP JUMPDEST JUMPDEST PUSH2 0x22AF DUP11 DUP3 DUP12 ADD PUSH2 0x1E7A JUMP JUMPDEST SWAP3 POP POP PUSH1 0xC0 DUP9 ADD CALLDATALOAD PUSH8 0xFFFFFFFFFFFFFFFF DUP2 GT ISZERO PUSH2 0x22D0 JUMPI PUSH2 0x22CF PUSH2 0x1D5D JUMP JUMPDEST JUMPDEST PUSH2 0x22DC DUP11 DUP3 DUP12 ADD PUSH2 0x1E7A JUMP JUMPDEST SWAP2 POP POP SWAP3 SWAP6 SWAP9 SWAP2 SWAP5 SWAP8 POP SWAP3 SWAP6 POP JUMP JUMPDEST PUSH1 0x0 PUSH1 0x60 DUP3 ADD SWAP1 POP PUSH2 0x2300 PUSH1 0x0 DUP4 ADD DUP7 PUSH2 0x1F54 JUMP JUMPDEST PUSH2 0x230D PUSH1 0x20 DUP4 ADD DUP6 PUSH2 0x1F95 JUMP JUMPDEST DUP2 DUP2 SUB PUSH1 0x40 DUP4 ADD MSTORE PUSH2 0x231F DUP2 DUP5 PUSH2 0x1FEA JUMP JUMPDEST SWAP1 POP SWAP5 SWAP4 POP POP POP POP JUMP JUMPDEST PUSH1 0x0 PUSH1 0x80 DUP3 ADD SWAP1 POP DUP2 DUP2 SUB PUSH1 0x0 DUP4 ADD MSTORE PUSH2 0x2343 DUP2 DUP8 PUSH2 0x1FEA JUMP JUMPDEST SWAP1 POP PUSH2 0x2352 PUSH1 0x20 DUP4 ADD DUP7 PUSH2 0x1F54 JUMP JUMPDEST PUSH2 0x235F PUSH1 0x40 DUP4 ADD DUP6 PUSH2 0x1F95 JUMP JUMPDEST PUSH2 0x236C PUSH1 0x60 DUP4 ADD DUP5 PUSH2 0x1F95 JUMP JUMPDEST SWAP6 SWAP5 POP POP POP POP POP JUMP JUMPDEST PUSH1 0x0 DUP1 PUSH1 0x40 DUP4 DUP6 SUB SLT ISZERO PUSH2 0x238C JUMPI PUSH2 0x238B PUSH2 0x1D58 JUMP JUMPDEST JUMPDEST PUSH1 0x0 PUSH2 0x239A DUP6 DUP3 DUP7 ADD PUSH2 0x214B JUMP JUMPDEST SWAP3 POP POP PUSH1 0x20 DUP4 ADD CALLDATALOAD PUSH8 0xFFFFFFFFFFFFFFFF DUP2 GT ISZERO PUSH2 0x23BB JUMPI PUSH2 0x23BA PUSH2 0x1D5D JUMP JUMPDEST JUMPDEST PUSH2 0x23C7 DUP6 DUP3 DUP7 ADD PUSH2 0x1E7A JUMP JUMPDEST SWAP2 POP POP SWAP3 POP SWAP3 SWAP1 POP JUMP JUMPDEST PUSH32 0x4E487B7100000000000000000000000000000000000000000000000000000000 PUSH1 0x0 MSTORE PUSH1 0x22 PUSH1 0x4 MSTORE PUSH1 0x24 PUSH1 0x0 REVERT JUMPDEST PUSH1 0x0 PUSH1 0x2 DUP3 DIV SWAP1 POP PUSH1 0x1 DUP3 AND DUP1 PUSH2 0x2418 JUMPI PUSH1 0x7F DUP3 AND SWAP2 POP JUMPDEST PUSH1 0x20 DUP3 LT DUP2 SUB PUSH2 0x242B JUMPI PUSH2 0x242A PUSH2 0x23D1 JUMP JUMPDEST JUMPDEST POP SWAP2 SWAP1 POP JUMP JUMPDEST PUSH1 0x0 DUP2 SWAP1 POP DUP2 PUSH1 0x0 MSTORE PUSH1 0x20 PUSH1 0x0 KECCAK256 SWAP1 POP SWAP2 SWAP1 POP JUMP JUMPDEST PUSH1 0x0 PUSH1 0x20 PUSH1 0x1F DUP4 ADD DIV SWAP1 POP SWAP2 SWAP1 POP JUMP JUMPDEST PUSH1 0x0 DUP3 DUP3 SHL SWAP1 POP SWAP3 SWAP2 POP POP JUMP JUMPDEST PUSH1 0x0 PUSH1 0x8 DUP4 MUL PUSH2 0x2493 PUSH32 0xFFFFFFFFFFFFFFFFFFFFFFFFFFFFFFFFFFFFFFFFFFFFFFFFFFFFFFFFFFFFFFFF DUP3 PUSH2 0x2456 JUMP JUMPDEST PUSH2 0x249D DUP7 DUP4 PUSH2 0x2456 JUMP JUMPDEST SWAP6 POP DUP1 NOT DUP5 AND SWAP4 POP DUP1 DUP7 AND DUP5 OR SWAP3 POP POP POP SWAP4 SWAP3 POP POP POP JUMP JUMPDEST PUSH1 0x0 DUP2 SWAP1 POP SWAP2 SWAP1 POP JUMP JUMPDEST PUSH1 0x0 PUSH2 0x24DA PUSH2 0x24D5 PUSH2 0x24D0 DUP5 PUSH2 0x1EF1 JUMP JUMPDEST PUSH2 0x24B5 JUMP JUMPDEST PUSH2 0x1EF1 JUMP JUMPDEST SWAP1 POP SWAP2 SWAP1 POP JUMP JUMPDEST PUSH1 0x0 DUP2 SWAP1 POP SWAP2 SWAP1 POP JUMP JUMPDEST PUSH2 0x24F4 DUP4 PUSH2 0x24BF JUMP JUMPDEST PUSH2 0x2508 PUSH2 0x2500 DUP3 PUSH2 0x24E1 JUMP JUMPDEST DUP5 DUP5 SLOAD PUSH2 0x2463 JUMP JUMPDEST DUP3 SSTORE POP POP POP POP JUMP JUMPDEST PUSH1 0x0 SWAP1 JUMP JUMPDEST PUSH2 0x251D PUSH2 0x2510 JUMP JUMPDEST PUSH2 0x2528 DUP2 DUP5 DUP5 PUSH2 0x24EB JUMP JUMPDEST POP POP POP JUMP JUMPDEST JUMPDEST DUP2 DUP2 LT ISZERO PUSH2 0x254C JUMPI PUSH2 0x2541 PUSH1 0x0 DUP3 PUSH2 0x2515 JUMP JUMPDEST PUSH1 0x1 DUP2 ADD SWAP1 POP PUSH2 0x252E JUMP JUMPDEST POP POP JUMP JUMPDEST PUSH1 0x1F DUP3 GT ISZERO PUSH2 0x2591 JUMPI PUSH2 0x2562 DUP2 PUSH2 0x2431 JUMP JUMPDEST PUSH2 0x256B DUP5 PUSH2 0x2446 JUMP JUMPDEST DUP2 ADD PUSH1 0x20 DUP6 LT ISZERO PUSH2 0x257A JUMPI DUP2 SWAP1 POP JUMPDEST PUSH2 0x258E PUSH2 0x2586 DUP6 PUSH2 0x2446 JUMP JUMPDEST DUP4 ADD DUP3 PUSH2 0x252D JUMP JUMPDEST POP POP JUMPDEST POP POP POP JUMP JUMPDEST PUSH1 0x0 DUP3 DUP3 SHR SWAP1 POP SWAP3 SWAP2 POP POP JUMP JUMPDEST PUSH1 0x0 PUSH2 0x25B4 PUSH1 0x0 NOT DUP5 PUSH1 0x8 MUL PUSH2 0x2596 JUMP JUMPDEST NOT DUP1 DUP4 AND SWAP2 POP POP SWAP3 SWAP2 POP POP JUMP JUMPDEST PUSH1 0x0 PUSH2 0x25CD DUP4 DUP4 PUSH2 0x25A3 JUMP JUMPDEST SWAP2 POP DUP3 PUSH1 0x2 MUL DUP3 OR SWAP1 POP SWAP3 SWAP2 POP POP JUMP JUMPDEST PUSH2 0x25E6 DUP3 PUSH2 0x1FA4 JUMP JUMPDEST PUSH8 0xFFFFFFFFFFFFFFFF DUP2 GT ISZERO PUSH2 0x25FF JUMPI PUSH2 0x25FE PUSH2 0x1D7D JUMP JUMPDEST JUMPDEST PUSH2 0x2609 DUP3 SLOAD PUSH2 0x2400 JUMP JUMPDEST PUSH2 0x2614 DUP3 DUP3 DUP6 PUSH2 0x2550 JUMP JUMPDEST PUSH1 0x0 PUSH1 0x20 SWAP1 POP PUSH1 0x1F DUP4 GT PUSH1 0x1 DUP2 EQ PUSH2 0x2647 JUMPI PUSH1 0x0 DUP5 ISZERO PUSH2 0x2635 JUMPI DUP3 DUP8 ADD MLOAD SWAP1 POP JUMPDEST PUSH2 0x263F DUP6 DUP3 PUSH2 0x25C1 JUMP JUMPDEST DUP7 SSTORE POP PUSH2 0x26A7 JUMP JUMPDEST PUSH1 0x1F NOT DUP5 AND PUSH2 0x2655 DUP7 PUSH2 0x2431 JUMP JUMPDEST PUSH1 0x0 JUMPDEST DUP3 DUP2 LT ISZERO PUSH2 0x267D JUMPI DUP5 DUP10 ADD MLOAD DUP3 SSTORE PUSH1 0x1 DUP3 ADD SWAP2 POP PUSH1 0x20 DUP6 ADD SWAP5 POP PUSH1 0x20 DUP2 ADD SWAP1 POP PUSH2 0x2658 JUMP JUMPDEST DUP7 DUP4 LT ISZERO PUSH2 0x269A JUMPI DUP5 DUP10 ADD MLOAD PUSH2 0x2696 PUSH1 0x1F DUP10 AND DUP3 PUSH2 0x25A3 JUMP JUMPDEST DUP4 SSTORE POP JUMPDEST PUSH1 0x1 PUSH1 0x2 DUP9 MUL ADD DUP9 SSTORE POP POP POP JUMPDEST POP POP POP POP POP POP JUMP JUMPDEST PUSH32 0x4E487B7100000000000000000000000000000000000000000000000000000000 PUSH1 0x0 MSTORE PUSH1 0x32 PUSH1 0x4 MSTORE PUSH1 0x24 PUSH1 0x0 REVERT JUMPDEST PUSH1 0x0 DUP2 SLOAD SWAP1 POP PUSH2 0x26ED DUP2 PUSH2 0x2400 JUMP JUMPDEST SWAP1 POP SWAP2 SWAP1 POP JUMP JUMPDEST DUP2 DUP2 SUB PUSH2 0x2702 JUMPI POP POP PUSH2 0x27DA JUMP JUMPDEST PUSH2 0x270B DUP3 PUSH2 0x26DE JUMP JUMPDEST PUSH8 0xFFFFFFFFFFFFFFFF DUP2 GT ISZERO PUSH2 0x2724 JUMPI PUSH2 0x2723 PUSH2 0x1D7D JUMP JUMPDEST JUMPDEST PUSH2 0x272E DUP3 SLOAD PUSH2 0x2400 JUMP JUMPDEST PUSH2 0x2739 DUP3 DUP3 DUP6 PUSH2 0x2550 JUMP JUMPDEST PUSH1 0x0 PUSH1 0x1F DUP4 GT PUSH1 0x1 DUP2 EQ PUSH2 0x2768 JUMPI PUSH1 0x0 DUP5 ISZERO PUSH2 0x2756 JUMPI DUP3 DUP8 ADD SLOAD SWAP1 POP JUMPDEST PUSH2 0x2760 DUP6 DUP3 PUSH2 0x25C1 JUMP JUMPDEST DUP7 SSTORE POP PUSH2 0x27D3 JUMP JUMPDEST PUSH1 0x1F NOT DUP5 AND PUSH2 0x2776 DUP8 PUSH2 0x2431 JUMP JUMPDEST SWAP7 POP PUSH2 0x2781 DUP7 PUSH2 0x2431 JUMP JUMPDEST PUSH1 0x0 JUMPDEST DUP3 DUP2 LT ISZERO PUSH2 0x27A9 JUMPI DUP5 DUP10 ADD SLOAD DUP3 SSTORE PUSH1 0x1 DUP3 ADD SWAP2 POP PUSH1 0x1 DUP6 ADD SWAP5 POP PUSH1 0x20 DUP2 ADD SWAP1 POP PUSH2 0x2784 JUMP JUMPDEST DUP7 DUP4 LT ISZERO PUSH2 0x27C6 JUMPI DUP5 DUP10 ADD SLOAD PUSH2 0x27C2 PUSH1 0x1F DUP10 AND DUP3 PUSH2 0x25A3 JUMP JUMPDEST DUP4 SSTORE POP JUMPDEST PUSH1 0x1 PUSH1 0x2 DUP9 MUL ADD DUP9 SSTORE POP POP POP JUMPDEST POP POP POP POP POP POP JUMPDEST JUMP JUMPDEST PUSH32 0x4E487B7100000000000000000000000000000000000000000000000000000000 PUSH1 0x0 MSTORE PUSH1 0x11 PUSH1 0x4 MSTORE PUSH1 0x24 PUSH1 0x0 REVERT JUMPDEST PUSH1 0x0 PUSH2 0x2816 DUP3 PUSH2 0x1EF1 JUMP JUMPDEST SWAP2 POP PUSH32 0xFFFFFFFFFFFFFFFFFFFFFFFFFFFFFFFFFFFFFFFFFFFFFFFFFFFFFFFFFFFFFFFF DUP3 SUB PUSH2 0x2848 JUMPI PUSH2 0x2847 PUSH2 0x27DC JUMP JUMPDEST JUMPDEST PUSH1 0x1 DUP3 ADD SWAP1 POP SWAP2 SWAP1 POP JUMP JUMPDEST PUSH32 0x4E6F742052656769737465726564000000000000000000000000000000000000 PUSH1 0x0 DUP3 ADD MSTORE POP JUMP JUMPDEST PUSH1 0x0 PUSH2 0x2889 PUSH1 0xE DUP4 PUSH2 0x1FAF JUMP JUMPDEST SWAP2 POP PUSH2 0x2894 DUP3 PUSH2 0x2853 JUMP JUMPDEST PUSH1 0x20 DUP3 ADD SWAP1 POP SWAP2 SWAP1 POP JUMP JUMPDEST PUSH1 0x0 PUSH1 0x20 DUP3 ADD SWAP1 POP DUP2 DUP2 SUB PUSH1 0x0 DUP4 ADD MSTORE PUSH2 0x28B8 DUP2 PUSH2 0x287C JUMP JUMPDEST SWAP1 POP SWAP2 SWAP1 POP JUMP JUMPDEST PUSH32 0x54616B6520616E204170706F696E746D656E6E74000000000000000000000000 PUSH1 0x0 DUP3 ADD MSTORE POP JUMP JUMPDEST PUSH1 0x0 PUSH2 0x28F5 PUSH1 0x14 DUP4 PUSH2 0x1FAF JUMP JUMPDEST SWAP2 POP PUSH2 0x2900 DUP3 PUSH2 0x28BF JUMP JUMPDEST PUSH1 0x20 DUP3 ADD SWAP1 POP SWAP2 SWAP1 POP JUMP JUMPDEST PUSH1 0x0 PUSH1 0x20 DUP3 ADD SWAP1 POP DUP2 DUP2 SUB PUSH1 0x0 DUP4 ADD MSTORE PUSH2 0x2924 DUP2 PUSH2 0x28E8 JUMP JUMPDEST SWAP1 POP SWAP2 SWAP1 POP JUMP JUMPDEST PUSH32 0x596F7520617265206E6F7420746865206F776E65720000000000000000000000 PUSH1 0x0 DUP3 ADD MSTORE POP JUMP JUMPDEST PUSH1 0x0 PUSH2 0x2961 PUSH1 0x15 DUP4 PUSH2 0x1FAF JUMP JUMPDEST SWAP2 POP PUSH2 0x296C DUP3 PUSH2 0x292B JUMP JUMPDEST PUSH1 0x20 DUP3 ADD SWAP1 POP SWAP2 SWAP1 POP JUMP JUMPDEST PUSH1 0x0 PUSH1 0x20 DUP3 ADD SWAP1 POP DUP2 DUP2 SUB PUSH1 0x0 DUP4 ADD MSTORE PUSH2 0x2990 DUP2 PUSH2 0x2954 JUMP JUMPDEST SWAP1 POP SWAP2 SWAP1 POP JUMP INVALID LOG2 PUSH5 0x6970667358 0x22 SLT KECCAK256 SWAP16 0xD8 0xB1 0xE1 0x27 PUSH18 0xB8FC27B221809A5BF5547C780A411F3E8704 SAR 0xF8 0xBA 0xF9 0x2D ADDMOD RETURNDATACOPY DUP7 PUSH5 0x736F6C6343 STOP ADDMOD SGT STOP CALLER "
				},
				"gasEstimates": {
					"creation": {
						"codeDepositCost": "2140200",
						"executionCost": "36558",
						"totalCost": "2176758"
					},
					"external": {
						"HospitalReg(address,string)": "infinite",
						"_blooddonated(uint256)": "infinite",
						"_bloodsupply(uint256)": "infinite",
						"_organdonated(uint256)": "infinite",
						"_organsupply(uint256)": "infinite",
						"bookAppointment(address)": "infinite",
						"donars(uint256)": "infinite",
						"donate(uint256,uint256,bool,bool,uint256,string,string)": "infinite",
						"getHospitalDetails(uint256)": "infinite",
						"patientReg(string)": "infinite",
						"patients(uint256)": "infinite"
					}
				},
				"methodIdentifiers": {
					"HospitalReg(address,string)": "ea4bf49a",
					"_blooddonated(uint256)": "de24930b",
					"_bloodsupply(uint256)": "b6d175eb",
					"_organdonated(uint256)": "84728ef6",
					"_organsupply(uint256)": "d85680da",
					"bookAppointment(address)": "68f4e963",
					"donars(uint256)": "c0f801de",
					"donate(uint256,uint256,bool,bool,uint256,string,string)": "86e758f2",
					"getHospitalDetails(uint256)": "4b0a7573",
					"patientReg(string)": "365af9d3",
					"patients(uint256)": "93119a83"
				}
			},
			"storageLayout": {
				"storage": [
					{
						"astId": 3,
						"contract": "SecondLife.sol:SecondLife",
						"label": "owner",
						"offset": 0,
						"slot": "0",
						"type": "t_address"
					},
					{
						"astId": 75,
						"contract": "SecondLife.sol:SecondLife",
						"label": "patients",
						"offset": 0,
						"slot": "1",
						"type": "t_array(t_struct(patient)25_storage)dyn_storage"
					},
					{
						"astId": 79,
						"contract": "SecondLife.sol:SecondLife",
						"label": "donars",
						"offset": 0,
						"slot": "2",
						"type": "t_array(t_struct(patient)25_storage)dyn_storage"
					},
					{
						"astId": 83,
						"contract": "SecondLife.sol:SecondLife",
						"label": "hospitals",
						"offset": 0,
						"slot": "3",
						"type": "t_array(t_struct(hospital)71_storage)dyn_storage"
					},
					{
						"astId": 88,
						"contract": "SecondLife.sol:SecondLife",
						"label": "ispatient",
						"offset": 0,
						"slot": "4",
						"type": "t_mapping(t_uint256,t_struct(patient)25_storage)"
					},
					{
						"astId": 93,
						"contract": "SecondLife.sol:SecondLife",
						"label": "ishospital",
						"offset": 0,
						"slot": "5",
						"type": "t_mapping(t_uint256,t_struct(hospital)71_storage)"
					},
					{
						"astId": 96,
						"contract": "SecondLife.sol:SecondLife",
						"label": "Id1",
						"offset": 0,
						"slot": "6",
						"type": "t_uint256"
					},
					{
						"astId": 99,
						"contract": "SecondLife.sol:SecondLife",
						"label": "Id2",
						"offset": 0,
						"slot": "7",
						"type": "t_uint256"
					},
					{
						"astId": 102,
						"contract": "SecondLife.sol:SecondLife",
						"label": "_donations",
						"offset": 0,
						"slot": "8",
						"type": "t_array(t_string_storage)dyn_storage"
					},
					{
						"astId": 105,
						"contract": "SecondLife.sol:SecondLife",
						"label": "_ask",
						"offset": 0,
						"slot": "9",
						"type": "t_array(t_string_storage)dyn_storage"
					},
					{
						"astId": 139,
						"contract": "SecondLife.sol:SecondLife",
						"label": "_organsupply",
						"offset": 0,
						"slot": "10",
						"type": "t_array(t_struct(organsupplied)61_storage)dyn_storage"
					},
					{
						"astId": 143,
						"contract": "SecondLife.sol:SecondLife",
						"label": "_bloodsupply",
						"offset": 0,
						"slot": "11",
						"type": "t_array(t_struct(bloodsupplied)52_storage)dyn_storage"
					},
					{
						"astId": 147,
						"contract": "SecondLife.sol:SecondLife",
						"label": "_organdonated",
						"offset": 0,
						"slot": "12",
						"type": "t_array(t_struct(organdonation)43_storage)dyn_storage"
					},
					{
						"astId": 151,
						"contract": "SecondLife.sol:SecondLife",
						"label": "_blooddonated",
						"offset": 0,
						"slot": "13",
						"type": "t_array(t_struct(blooddonation)34_storage)dyn_storage"
					},
					{
						"astId": 154,
						"contract": "SecondLife.sol:SecondLife",
						"label": "_appointmentQueue",
						"offset": 0,
						"slot": "14",
						"type": "t_array(t_address)dyn_storage"
					}
				],
				"types": {
					"t_address": {
						"encoding": "inplace",
						"label": "address",
						"numberOfBytes": "20"
					},
					"t_array(t_address)dyn_storage": {
						"base": "t_address",
						"encoding": "dynamic_array",
						"label": "address[]",
						"numberOfBytes": "32"
					},
					"t_array(t_string_storage)dyn_storage": {
						"base": "t_string_storage",
						"encoding": "dynamic_array",
						"label": "string[]",
						"numberOfBytes": "32"
					},
					"t_array(t_struct(blooddonation)34_storage)dyn_storage": {
						"base": "t_struct(blooddonation)34_storage",
						"encoding": "dynamic_array",
						"label": "struct SecondLife.blooddonation[]",
						"numberOfBytes": "32"
					},
					"t_array(t_struct(bloodsupplied)52_storage)dyn_storage": {
						"base": "t_struct(bloodsupplied)52_storage",
						"encoding": "dynamic_array",
						"label": "struct SecondLife.bloodsupplied[]",
						"numberOfBytes": "32"
					},
					"t_array(t_struct(hospital)71_storage)dyn_storage": {
						"base": "t_struct(hospital)71_storage",
						"encoding": "dynamic_array",
						"label": "struct SecondLife.hospital[]",
						"numberOfBytes": "32"
					},
					"t_array(t_struct(organdonation)43_storage)dyn_storage": {
						"base": "t_struct(organdonation)43_storage",
						"encoding": "dynamic_array",
						"label": "struct SecondLife.organdonation[]",
						"numberOfBytes": "32"
					},
					"t_array(t_struct(organsupplied)61_storage)dyn_storage": {
						"base": "t_struct(organsupplied)61_storage",
						"encoding": "dynamic_array",
						"label": "struct SecondLife.organsupplied[]",
						"numberOfBytes": "32"
					},
					"t_array(t_struct(patient)25_storage)dyn_storage": {
						"base": "t_struct(patient)25_storage",
						"encoding": "dynamic_array",
						"label": "struct SecondLife.patient[]",
						"numberOfBytes": "32"
					},
					"t_mapping(t_uint256,t_struct(hospital)71_storage)": {
						"encoding": "mapping",
						"key": "t_uint256",
						"label": "mapping(uint256 => struct SecondLife.hospital)",
						"numberOfBytes": "32",
						"value": "t_struct(hospital)71_storage"
					},
					"t_mapping(t_uint256,t_struct(patient)25_storage)": {
						"encoding": "mapping",
						"key": "t_uint256",
						"label": "mapping(uint256 => struct SecondLife.patient)",
						"numberOfBytes": "32",
						"value": "t_struct(patient)25_storage"
					},
					"t_string_storage": {
						"encoding": "bytes",
						"label": "string",
						"numberOfBytes": "32"
					},
					"t_struct(blooddonation)34_storage": {
						"encoding": "inplace",
						"label": "struct SecondLife.blooddonation",
						"members": [
							{
								"astId": 27,
								"contract": "SecondLife.sol:SecondLife",
								"label": "bloodtype",
								"offset": 0,
								"slot": "0",
								"type": "t_string_storage"
							},
							{
								"astId": 29,
								"contract": "SecondLife.sol:SecondLife",
								"label": "amount",
								"offset": 0,
								"slot": "1",
								"type": "t_uint256"
							},
							{
								"astId": 31,
								"contract": "SecondLife.sol:SecondLife",
								"label": "tohospital",
								"offset": 0,
								"slot": "2",
								"type": "t_address"
							},
							{
								"astId": 33,
								"contract": "SecondLife.sol:SecondLife",
								"label": "frompatient",
								"offset": 0,
								"slot": "3",
								"type": "t_address"
							}
						],
						"numberOfBytes": "128"
					},
					"t_struct(bloodsupplied)52_storage": {
						"encoding": "inplace",
						"label": "struct SecondLife.bloodsupplied",
						"members": [
							{
								"astId": 45,
								"contract": "SecondLife.sol:SecondLife",
								"label": "amount",
								"offset": 0,
								"slot": "0",
								"type": "t_uint256"
							},
							{
								"astId": 47,
								"contract": "SecondLife.sol:SecondLife",
								"label": "bloodtype",
								"offset": 0,
								"slot": "1",
								"type": "t_string_storage"
							},
							{
								"astId": 49,
								"contract": "SecondLife.sol:SecondLife",
								"label": "topatient",
								"offset": 0,
								"slot": "2",
								"type": "t_address"
							},
							{
								"astId": 51,
								"contract": "SecondLife.sol:SecondLife",
								"label": "fromhospital",
								"offset": 0,
								"slot": "3",
								"type": "t_address"
							}
						],
						"numberOfBytes": "128"
					},
					"t_struct(hospital)71_storage": {
						"encoding": "inplace",
						"label": "struct SecondLife.hospital",
						"members": [
							{
								"astId": 63,
								"contract": "SecondLife.sol:SecondLife",
								"label": "id",
								"offset": 0,
								"slot": "0",
								"type": "t_uint256"
							},
							{
								"astId": 65,
								"contract": "SecondLife.sol:SecondLife",
								"label": "addrh",
								"offset": 0,
								"slot": "1",
								"type": "t_address"
							},
							{
								"astId": 67,
								"contract": "SecondLife.sol:SecondLife",
								"label": "name",
								"offset": 0,
								"slot": "2",
								"type": "t_string_storage"
							},
							{
								"astId": 70,
								"contract": "SecondLife.sol:SecondLife",
								"label": "appointmentQueue",
								"offset": 0,
								"slot": "3",
								"type": "t_array(t_address)dyn_storage"
							}
						],
						"numberOfBytes": "128"
					},
					"t_struct(organdonation)43_storage": {
						"encoding": "inplace",
						"label": "struct SecondLife.organdonation",
						"members": [
							{
								"astId": 36,
								"contract": "SecondLife.sol:SecondLife",
								"label": "amount",
								"offset": 0,
								"slot": "0",
								"type": "t_uint256"
							},
							{
								"astId": 38,
								"contract": "SecondLife.sol:SecondLife",
								"label": "organname",
								"offset": 0,
								"slot": "1",
								"type": "t_string_storage"
							},
							{
								"astId": 40,
								"contract": "SecondLife.sol:SecondLife",
								"label": "frompatient",
								"offset": 0,
								"slot": "2",
								"type": "t_address"
							},
							{
								"astId": 42,
								"contract": "SecondLife.sol:SecondLife",
								"label": "tohospital",
								"offset": 0,
								"slot": "3",
								"type": "t_address"
							}
						],
						"numberOfBytes": "128"
					},
					"t_struct(organsupplied)61_storage": {
						"encoding": "inplace",
						"label": "struct SecondLife.organsupplied",
						"members": [
							{
								"astId": 54,
								"contract": "SecondLife.sol:SecondLife",
								"label": "amount",
								"offset": 0,
								"slot": "0",
								"type": "t_uint256"
							},
							{
								"astId": 56,
								"contract": "SecondLife.sol:SecondLife",
								"label": "organname",
								"offset": 0,
								"slot": "1",
								"type": "t_string_storage"
							},
							{
								"astId": 58,
								"contract": "SecondLife.sol:SecondLife",
								"label": "topatient",
								"offset": 0,
								"slot": "2",
								"type": "t_address"
							},
							{
								"astId": 60,
								"contract": "SecondLife.sol:SecondLife",
								"label": "fromhospital",
								"offset": 0,
								"slot": "3",
								"type": "t_address"
							}
						],
						"numberOfBytes": "128"
					},
					"t_struct(patient)25_storage": {
						"encoding": "inplace",
						"label": "struct SecondLife.patient",
						"members": [
							{
								"astId": 14,
								"contract": "SecondLife.sol:SecondLife",
								"label": "id",
								"offset": 0,
								"slot": "0",
								"type": "t_uint256"
							},
							{
								"astId": 16,
								"contract": "SecondLife.sol:SecondLife",
								"label": "addr",
								"offset": 0,
								"slot": "1",
								"type": "t_address"
							},
							{
								"astId": 18,
								"contract": "SecondLife.sol:SecondLife",
								"label": "name",
								"offset": 0,
								"slot": "2",
								"type": "t_string_storage"
							},
							{
								"astId": 21,
								"contract": "SecondLife.sol:SecondLife",
								"label": "donation",
								"offset": 0,
								"slot": "3",
								"type": "t_array(t_string_storage)dyn_storage"
							},
							{
								"astId": 24,
								"contract": "SecondLife.sol:SecondLife",
								"label": "ask",
								"offset": 0,
								"slot": "4",
								"type": "t_array(t_string_storage)dyn_storage"
							}
						],
						"numberOfBytes": "160"
					},
					"t_uint256": {
						"encoding": "inplace",
						"label": "uint256",
						"numberOfBytes": "32"
					}
				}
			},
			"userdoc": {
				"kind": "user",
				"methods": {},
				"version": 1
			}
		}
	}
}